{
	"data": {
		"bytecode": {
			"linkReferences": {},
			"object": "608060405266470de4df820000600d55662386f26fc10000600e556014600f556003601055600160115f6101000a81548160ff0219169083151502179055506001601160016101000a81548160ff021916908315150217905550348015610064575f80fd5b50604051615ab7380380615ab7833981810160405281019061008691906107e0565b818184604051806080016040528060438152602001615a74604391396100b18161023a60201b60201c565b505f73ffffffffffffffffffffffffffffffffffffffff168173ffffffffffffffffffffffffffffffffffffffff1603610122575f6040517f1e4fbdf70000000000000000000000000000000000000000000000000000000081526004016101199190610877565b60405180910390fd5b6101318161024d60201b60201c565b505f600360146101000a81548160ff0219169083151502179055508051825114610190576040517f08c379a000000000000000000000000000000000000000000000000000000000815260040161018790610910565b60405180910390fd5b5f8251116101d3576040517f08c379a00000000000000000000000000000000000000000000000000000000081526004016101ca90610978565b60405180910390fd5b5f5b825181101561022f576102228382815181106101f4576101f3610996565b5b602002602001015183838151811061020f5761020e610996565b5b602002602001015161031060201b60201c565b80806001019150506101d5565b505050505050610eb0565b80600290816102499190610bc7565b5050565b5f60035f9054906101000a900473ffffffffffffffffffffffffffffffffffffffff1690508160035f6101000a81548173ffffffffffffffffffffffffffffffffffffffff021916908373ffffffffffffffffffffffffffffffffffffffff1602179055508173ffffffffffffffffffffffffffffffffffffffff168173ffffffffffffffffffffffffffffffffffffffff167f8be0079c531659141344cd1fd0a4f28419497f9722a3daafe3b4186f6b6457e060405160405180910390a35050565b5f73ffffffffffffffffffffffffffffffffffffffff168273ffffffffffffffffffffffffffffffffffffffff160361037e576040517f08c379a000000000000000000000000000000000000000000000000000000000815260040161037590610d06565b60405180910390fd5b5f81116103c0576040517f08c379a00000000000000000000000000000000000000000000000000000000081526004016103b790610d6e565b60405180910390fd5b5f60085f8473ffffffffffffffffffffffffffffffffffffffff1673ffffffffffffffffffffffffffffffffffffffff1681526020019081526020015f20541461043f576040517f08c379a000000000000000000000000000000000000000000000000000000000815260040161043690610dfc565b60405180910390fd5b600a82908060018154018082558091505060019003905f5260205f20015f9091909190916101000a81548173ffffffffffffffffffffffffffffffffffffffff021916908373ffffffffffffffffffffffffffffffffffffffff1602179055508060085f8473ffffffffffffffffffffffffffffffffffffffff1673ffffffffffffffffffffffffffffffffffffffff1681526020019081526020015f2081905550806006546104ef9190610e47565b6006819055507f40c340f65e17194d14ddddb073d3c9f888e3cb52b5aae0c6c7706b4fbc905fac8282604051610526929190610e89565b60405180910390a15050565b5f604051905090565b5f80fd5b5f80fd5b5f73ffffffffffffffffffffffffffffffffffffffff82169050919050565b5f61056c82610543565b9050919050565b61057c81610562565b8114610586575f80fd5b50565b5f8151905061059781610573565b92915050565b5f80fd5b5f601f19601f8301169050919050565b7f4e487b71000000000000000000000000000000000000000000000000000000005f52604160045260245ffd5b6105e7826105a1565b810181811067ffffffffffffffff82111715610606576106056105b1565b5b80604052505050565b5f610618610532565b905061062482826105de565b919050565b5f67ffffffffffffffff821115610643576106426105b1565b5b602082029050602081019050919050565b5f80fd5b5f61066a61066584610629565b61060f565b9050808382526020820190506020840283018581111561068d5761068c610654565b5b835b818110156106b657806106a28882610589565b84526020840193505060208101905061068f565b5050509392505050565b5f82601f8301126106d4576106d361059d565b5b81516106e4848260208601610658565b91505092915050565b5f67ffffffffffffffff821115610707576107066105b1565b5b602082029050602081019050919050565b5f819050919050565b61072a81610718565b8114610734575f80fd5b50565b5f8151905061074581610721565b92915050565b5f61075d610758846106ed565b61060f565b905080838252602082019050602084028301858111156107805761077f610654565b5b835b818110156107a957806107958882610737565b845260208401935050602081019050610782565b5050509392505050565b5f82601f8301126107c7576107c661059d565b5b81516107d784826020860161074b565b91505092915050565b5f805f606084860312156107f7576107f661053b565b5b5f61080486828701610589565b935050602084015167ffffffffffffffff8111156108255761082461053f565b5b610831868287016106c0565b925050604084015167ffffffffffffffff8111156108525761085161053f565b5b61085e868287016107b3565b9150509250925092565b61087181610562565b82525050565b5f60208201905061088a5f830184610868565b92915050565b5f82825260208201905092915050565b7f5061796d656e7453706c69747465723a2070617965657320616e6420736861725f8201527f6573206c656e677468206d69736d617463680000000000000000000000000000602082015250565b5f6108fa603283610890565b9150610905826108a0565b604082019050919050565b5f6020820190508181035f830152610927816108ee565b9050919050565b7f5061796d656e7453706c69747465723a206e6f207061796565730000000000005f82015250565b5f610962601a83610890565b915061096d8261092e565b602082019050919050565b5f6020820190508181035f83015261098f81610956565b9050919050565b7f4e487b71000000000000000000000000000000000000000000000000000000005f52603260045260245ffd5b5f81519050919050565b7f4e487b71000000000000000000000000000000000000000000000000000000005f52602260045260245ffd5b5f6002820490506001821680610a1157607f821691505b602082108103610a2457610a236109cd565b5b50919050565b5f819050815f5260205f209050919050565b5f6020601f8301049050919050565b5f82821b905092915050565b5f60088302610a867fffffffffffffffffffffffffffffffffffffffffffffffffffffffffffffffff82610a4b565b610a908683610a4b565b95508019841693508086168417925050509392505050565b5f819050919050565b5f610acb610ac6610ac184610718565b610aa8565b610718565b9050919050565b5f819050919050565b610ae483610ab1565b610af8610af082610ad2565b848454610a57565b825550505050565b5f90565b610b0c610b00565b610b17818484610adb565b505050565b5b81811015610b3a57610b2f5f82610b04565b600181019050610b1d565b5050565b601f821115610b7f57610b5081610a2a565b610b5984610a3c565b81016020851015610b68578190505b610b7c610b7485610a3c565b830182610b1c565b50505b505050565b5f82821c905092915050565b5f610b9f5f1984600802610b84565b1980831691505092915050565b5f610bb78383610b90565b9150826002028217905092915050565b610bd0826109c3565b67ffffffffffffffff811115610be957610be86105b1565b5b610bf382546109fa565b610bfe828285610b3e565b5f60209050601f831160018114610c2f575f8415610c1d578287015190505b610c278582610bac565b865550610c8e565b601f198416610c3d86610a2a565b5f5b82811015610c6457848901518255600182019150602085019450602081019050610c3f565b86831015610c815784890151610c7d601f891682610b90565b8355505b6001600288020188555050505b505050505050565b7f5061796d656e7453706c69747465723a206163636f756e7420697320746865205f8201527f7a65726f20616464726573730000000000000000000000000000000000000000602082015250565b5f610cf0602c83610890565b9150610cfb82610c96565b604082019050919050565b5f6020820190508181035f830152610d1d81610ce4565b9050919050565b7f5061796d656e7453706c69747465723a207368617265732061726520300000005f82015250565b5f610d58601d83610890565b9150610d6382610d24565b602082019050919050565b5f6020820190508181035f830152610d8581610d4c565b9050919050565b7f5061796d656e7453706c69747465723a206163636f756e7420616c72656164795f8201527f2068617320736861726573000000000000000000000000000000000000000000602082015250565b5f610de6602b83610890565b9150610df182610d8c565b604082019050919050565b5f6020820190508181035f830152610e1381610dda565b9050919050565b7f4e487b71000000000000000000000000000000000000000000000000000000005f52601160045260245ffd5b5f610e5182610718565b9150610e5c83610718565b9250828201905080821115610e7457610e73610e1a565b5b92915050565b610e8381610718565b82525050565b5f604082019050610e9c5f830185610868565b610ea96020830184610e7a565b9392505050565b614bb780610ebd5f395ff3fe60806040526004361061025e575f3560e01c80636447c35d11610143578063a945bf80116100b5578063d5abeb0111610079578063d5abeb011461094d578063d79779b214610977578063e33b7de3146109b3578063e985e9c5146109dd578063f242432a14610a19578063f2fde38b14610a41576102a5565b8063a945bf8014610845578063bcc9ca5b1461086f578063bd85b03914610899578063c45ac050146108d5578063ce7c2ac214610911576102a5565b806397959f6d1161010757806397959f6d146107235780639852595c1461075f57806398ae99a81461079b578063a22cb465146107b7578063a24e5153146107df578063a3f8eace14610809576102a5565b80636447c35d14610669578063715018a6146106915780638456cb59146106a75780638b83209b146106bd5780638da5cb5b146106f9576102a5565b80632eb2c2d6116101dc578063453c2310116101a0578063453c23101461054d57806348b75044146105775780634e1273f41461059f5780634f558e79146105db57806351cff8d9146106175780635c975abb1461063f576102a5565b80632eb2c2d6146104815780632f48de79146104a95780633a98ef39146104d15780633f4ba83a146104fb578063406072a914610511576102a5565b8063128ac91b11610223578063128ac91b146103af57806318160ddd146103cb57806319165587146103f55780631f7fdffa1461041d5780632848aeaf14610445576102a5565b8062fdd58e146102a957806301ffc9a7146102e557806302fe530514610321578063085c9bac146103495780630e89341c14610373576102a5565b366102a5577f6ef95f06320e7a25a04a175ca677b7052bdd97131872c2192525a629f51be77061028c610a69565b3460405161029b929190613253565b60405180910390a1005b5f80fd5b3480156102b4575f80fd5b506102cf60048036038101906102ca91906132df565b610a70565b6040516102dc919061331d565b60405180910390f35b3480156102f0575f80fd5b5061030b6004803603810190610306919061338b565b610ac5565b60405161031891906133d0565b60405180910390f35b34801561032c575f80fd5b5061034760048036038101906103429190613525565b610ba6565b005b348015610354575f80fd5b5061035d610bba565b60405161036a91906133d0565b60405180910390f35b34801561037e575f80fd5b506103996004803603810190610394919061356c565b610bcd565b6040516103a691906135f7565b60405180910390f35b6103c960048036038101906103c49190613617565b610c50565b005b3480156103d6575f80fd5b506103df610d85565b6040516103ec919061331d565b60405180910390f35b348015610400575f80fd5b5061041b60048036038101906104169190613690565b610d8e565b005b348015610428575f80fd5b50610443600480360381019061043e919061381d565b610f04565b005b348015610450575f80fd5b5061046b600480360381019061046691906138d5565b610f1e565b60405161047891906133d0565b60405180910390f35b34801561048c575f80fd5b506104a760048036038101906104a29190613900565b610f3b565b005b3480156104b4575f80fd5b506104cf60048036038101906104ca91906139f5565b610fe2565b005b3480156104dc575f80fd5b506104e5611021565b6040516104f2919061331d565b60405180910390f35b348015610506575f80fd5b5061050f61102a565b005b34801561051c575f80fd5b5061053760048036038101906105329190613a6e565b61103c565b604051610544919061331d565b60405180910390f35b348015610558575f80fd5b506105616110be565b60405161056e919061331d565b60405180910390f35b348015610582575f80fd5b5061059d60048036038101906105989190613a6e565b6110c4565b005b3480156105aa575f80fd5b506105c560048036038101906105c09190613b6c565b6112ca565b6040516105d29190613c99565b60405180910390f35b3480156105e6575f80fd5b5061060160048036038101906105fc919061356c565b6113d1565b60405161060e91906133d0565b60405180910390f35b348015610622575f80fd5b5061063d600480360381019061063891906138d5565b6113e4565b005b34801561064a575f80fd5b50610653611438565b60405161066091906133d0565b60405180910390f35b348015610674575f80fd5b5061068f600480360381019061068a9190613d12565b61144e565b005b34801561069c575f80fd5b506106a56114f1565b005b3480156106b2575f80fd5b506106bb611504565b005b3480156106c8575f80fd5b506106e360048036038101906106de919061356c565b611516565b6040516106f09190613d5d565b60405180910390f35b348015610704575f80fd5b5061070d61155a565b60405161071a9190613d5d565b60405180910390f35b34801561072e575f80fd5b50610749600480360381019061074491906138d5565b611582565b604051610756919061331d565b60405180910390f35b34801561076a575f80fd5b50610785600480360381019061078091906138d5565b611597565b604051610792919061331d565b60405180910390f35b6107b560048036038101906107b09190613617565b6115dd565b005b3480156107c2575f80fd5b506107dd60048036038101906107d89190613d76565b611688565b005b3480156107ea575f80fd5b506107f361169e565b604051610800919061331d565b60405180910390f35b348015610814575f80fd5b5061082f600480360381019061082a91906138d5565b6116a4565b60405161083c919061331d565b60405180910390f35b348015610850575f80fd5b506108596116d6565b604051610866919061331d565b60405180910390f35b34801561087a575f80fd5b506108836116dc565b60405161089091906133d0565b60405180910390f35b3480156108a4575f80fd5b506108bf60048036038101906108ba919061356c565b6116ee565b6040516108cc919061331d565b60405180910390f35b3480156108e0575f80fd5b506108fb60048036038101906108f69190613a6e565b611708565b604051610908919061331d565b60405180910390f35b34801561091c575f80fd5b50610937600480360381019061093291906138d5565b6117b4565b604051610944919061331d565b60405180910390f35b348015610958575f80fd5b506109616117fa565b60405161096e919061331d565b60405180910390f35b348015610982575f80fd5b5061099d60048036038101906109989190613db4565b611800565b6040516109aa919061331d565b60405180910390f35b3480156109be575f80fd5b506109c7611846565b6040516109d4919061331d565b60405180910390f35b3480156109e8575f80fd5b50610a0360048036038101906109fe9190613ddf565b61184f565b604051610a1091906133d0565b60405180910390f35b348015610a24575f80fd5b50610a3f6004803603810190610a3a9190613e1d565b6118dd565b005b348015610a4c575f80fd5b50610a676004803603810190610a6291906138d5565b611984565b005b5f33905090565b5f805f8381526020019081526020015f205f8473ffffffffffffffffffffffffffffffffffffffff1673ffffffffffffffffffffffffffffffffffffffff1681526020019081526020015f2054905092915050565b5f7fd9b67a26000000000000000000000000000000000000000000000000000000007bffffffffffffffffffffffffffffffffffffffffffffffffffffffff1916827bffffffffffffffffffffffffffffffffffffffffffffffffffffffff19161480610b8f57507f0e89341c000000000000000000000000000000000000000000000000000000007bffffffffffffffffffffffffffffffffffffffffffffffffffffffff1916827bffffffffffffffffffffffffffffffffffffffffffffffffffffffff1916145b80610b9f5750610b9e82611a08565b5b9050919050565b610bae611a71565b610bb781611af8565b50565b601160019054906101000a900460ff1681565b6060610bd8826113d1565b610c17576040517f08c379a0000000000000000000000000000000000000000000000000000000008152600401610c0e90613efa565b60405180910390fd5b610c2082611b0b565b610c2983611b9d565b604051602001610c3a929190613f9c565b6040516020818303038152906040529050919050565b601160019054906101000a900460ff16610c9f576040517f08c379a0000000000000000000000000000000000000000000000000000000008152600401610c9690614014565b60405180910390fd5b60125f3373ffffffffffffffffffffffffffffffffffffffff1673ffffffffffffffffffffffffffffffffffffffff1681526020019081526020015f205f9054906101000a900460ff16610d28576040517f08c379a0000000000000000000000000000000000000000000000000000000008152600401610d1f9061407c565b60405180910390fd5b80600e54610d3691906140c7565b3414610d77576040517f08c379a0000000000000000000000000000000000000000000000000000000008152600401610d6e90614152565b60405180910390fd5b610d818282611c67565b5050565b5f600554905090565b5f60085f8373ffffffffffffffffffffffffffffffffffffffff1673ffffffffffffffffffffffffffffffffffffffff1681526020019081526020015f205411610e0d576040517f08c379a0000000000000000000000000000000000000000000000000000000008152600401610e04906141e0565b60405180910390fd5b5f610e17826116a4565b90505f8103610e5b576040517f08c379a0000000000000000000000000000000000000000000000000000000008152600401610e529061426e565b60405180910390fd5b8060075f828254610e6c919061428c565b925050819055508060095f8473ffffffffffffffffffffffffffffffffffffffff1673ffffffffffffffffffffffffffffffffffffffff1681526020019081526020015f205f8282540192505081905550610ec78282611dff565b7fdf20fd1e76bc69d672e4814fafb2c449bba3a5369d8359adf9e05e6fde87b0568282604051610ef892919061431a565b60405180910390a15050565b610f0c611a71565b610f1884848484611ec5565b50505050565b6012602052805f5260405f205f915054906101000a900460ff1681565b5f610f44610a69565b90508073ffffffffffffffffffffffffffffffffffffffff168673ffffffffffffffffffffffffffffffffffffffff1614158015610f895750610f87868261184f565b155b15610fcd5780866040517fe237d922000000000000000000000000000000000000000000000000000000008152600401610fc4929190614341565b60405180910390fd5b610fda8686868686611f48565b505050505050565b610fea611a71565b8160115f6101000a81548160ff02191690831515021790555080601160016101000a81548160ff0219169083151502179055505050565b5f600654905090565b611032611a71565b61103a61203c565b565b5f600c5f8473ffffffffffffffffffffffffffffffffffffffff1673ffffffffffffffffffffffffffffffffffffffff1681526020019081526020015f205f8373ffffffffffffffffffffffffffffffffffffffff1673ffffffffffffffffffffffffffffffffffffffff1681526020019081526020015f2054905092915050565b60105481565b5f60085f8373ffffffffffffffffffffffffffffffffffffffff1673ffffffffffffffffffffffffffffffffffffffff1681526020019081526020015f205411611143576040517f08c379a000000000000000000000000000000000000000000000000000000000815260040161113a906141e0565b60405180910390fd5b5f61114e8383611708565b90505f8103611192576040517f08c379a00000000000000000000000000000000000000000000000000000000081526004016111899061426e565b60405180910390fd5b80600b5f8573ffffffffffffffffffffffffffffffffffffffff1673ffffffffffffffffffffffffffffffffffffffff1681526020019081526020015f205f8282546111de919061428c565b9250508190555080600c5f8573ffffffffffffffffffffffffffffffffffffffff1673ffffffffffffffffffffffffffffffffffffffff1681526020019081526020015f205f8473ffffffffffffffffffffffffffffffffffffffff1673ffffffffffffffffffffffffffffffffffffffff1681526020019081526020015f205f828254019250508190555061127583838361209e565b8273ffffffffffffffffffffffffffffffffffffffff167f3be5b7a71e84ed12875d241991c70855ac5817d847039e17a9d895c1ceb0f18a83836040516112bd929190613253565b60405180910390a2505050565b6060815183511461131657815183516040517f5b05999100000000000000000000000000000000000000000000000000000000815260040161130d929190614368565b60405180910390fd5b5f835167ffffffffffffffff81111561133257611331613401565b5b6040519080825280602002602001820160405280156113605781602001602082028036833780820191505090505b5090505f5b84518110156113c65761139c611384828761211d90919063ffffffff16565b611397838761213090919063ffffffff16565b610a70565b8282815181106113af576113ae61438f565b5b602002602001018181525050806001019050611365565b508091505092915050565b5f806113dc836116ee565b119050919050565b6113ec611a71565b5f4790508173ffffffffffffffffffffffffffffffffffffffff166108fc8290811502906040515f60405180830381858888f19350505050158015611433573d5f803e3d5ffd5b505050565b5f600360149054906101000a900460ff16905090565b611456611a71565b5f5b828290508110156114ec57600160125f85858581811061147b5761147a61438f565b5b905060200201602081019061149091906138d5565b73ffffffffffffffffffffffffffffffffffffffff1673ffffffffffffffffffffffffffffffffffffffff1681526020019081526020015f205f6101000a81548160ff0219169083151502179055508080600101915050611458565b505050565b6114f9611a71565b6115025f612143565b565b61150c611a71565b611514612206565b565b5f600a828154811061152b5761152a61438f565b5b905f5260205f20015f9054906101000a900473ffffffffffffffffffffffffffffffffffffffff169050919050565b5f60035f9054906101000a900473ffffffffffffffffffffffffffffffffffffffff16905090565b6013602052805f5260405f205f915090505481565b5f60095f8373ffffffffffffffffffffffffffffffffffffffff1673ffffffffffffffffffffffffffffffffffffffff1681526020019081526020015f20549050919050565b60115f9054906101000a900460ff1661162b576040517f08c379a000000000000000000000000000000000000000000000000000000000815260040161162290614406565b60405180910390fd5b80600d5461163991906140c7565b341461167a576040517f08c379a00000000000000000000000000000000000000000000000000000000081526004016116719061446e565b60405180910390fd5b6116848282611c67565b5050565b61169a611693610a69565b8383612269565b5050565b600e5481565b5f806116ae611846565b476116b9919061428c565b90506116ce83826116c986611597565b6123d2565b915050919050565b600d5481565b60115f9054906101000a900460ff1681565b5f60045f8381526020019081526020015f20549050919050565b5f8061171384611800565b8473ffffffffffffffffffffffffffffffffffffffff166370a08231306040518263ffffffff1660e01b815260040161174c9190613d5d565b602060405180830381865afa158015611767573d5f803e3d5ffd5b505050506040513d601f19601f8201168201806040525081019061178b91906144a0565b611795919061428c565b90506117ab83826117a6878761103c565b6123d2565b91505092915050565b5f60085f8373ffffffffffffffffffffffffffffffffffffffff1673ffffffffffffffffffffffffffffffffffffffff1681526020019081526020015f20549050919050565b600f5481565b5f600b5f8373ffffffffffffffffffffffffffffffffffffffff1673ffffffffffffffffffffffffffffffffffffffff1681526020019081526020015f20549050919050565b5f600754905090565b5f60015f8473ffffffffffffffffffffffffffffffffffffffff1673ffffffffffffffffffffffffffffffffffffffff1681526020019081526020015f205f8373ffffffffffffffffffffffffffffffffffffffff1673ffffffffffffffffffffffffffffffffffffffff1681526020019081526020015f205f9054906101000a900460ff16905092915050565b5f6118e6610a69565b90508073ffffffffffffffffffffffffffffffffffffffff168673ffffffffffffffffffffffffffffffffffffffff161415801561192b5750611929868261184f565b155b1561196f5780866040517fe237d922000000000000000000000000000000000000000000000000000000008152600401611966929190614341565b60405180910390fd5b61197c868686868661243d565b505050505050565b61198c611a71565b5f73ffffffffffffffffffffffffffffffffffffffff168173ffffffffffffffffffffffffffffffffffffffff16036119fc575f6040517f1e4fbdf70000000000000000000000000000000000000000000000000000000081526004016119f39190613d5d565b60405180910390fd5b611a0581612143565b50565b5f7f01ffc9a7000000000000000000000000000000000000000000000000000000007bffffffffffffffffffffffffffffffffffffffffffffffffffffffff1916827bffffffffffffffffffffffffffffffffffffffffffffffffffffffff1916149050919050565b611a79610a69565b73ffffffffffffffffffffffffffffffffffffffff16611a9761155a565b73ffffffffffffffffffffffffffffffffffffffff1614611af657611aba610a69565b6040517f118cdaa7000000000000000000000000000000000000000000000000000000008152600401611aed9190613d5d565b60405180910390fd5b565b8060029081611b0791906146bc565b5050565b606060028054611b1a906144f8565b80601f0160208091040260200160405190810160405280929190818152602001828054611b46906144f8565b8015611b915780601f10611b6857610100808354040283529160200191611b91565b820191905f5260205f20905b815481529060010190602001808311611b7457829003601f168201915b50505050509050919050565b60605f6001611bab84612543565b0190505f8167ffffffffffffffff811115611bc957611bc8613401565b5b6040519080825280601f01601f191660200182016040528015611bfb5781602001600182028036833780820191505090505b5090505f82602001820190505b600115611c5c578080600190039150507f3031323334353637383961626364656600000000000000000000000000000000600a86061a8153600a8581611c5157611c5061478b565b5b0494505f8503611c08575b819350505050919050565b6010548160135f3373ffffffffffffffffffffffffffffffffffffffff1673ffffffffffffffffffffffffffffffffffffffff1681526020019081526020015f2054611cb3919061428c565b1115611cf4576040517f08c379a0000000000000000000000000000000000000000000000000000000008152600401611ceb90614802565b60405180910390fd5b60028210611d37576040517f08c379a0000000000000000000000000000000000000000000000000000000008152600401611d2e90614890565b60405180910390fd5b600f5481611d43610d85565b611d4d919061428c565b1115611d8e576040517f08c379a0000000000000000000000000000000000000000000000000000000008152600401611d85906148f8565b60405180910390fd5b611da833838360405180602001604052805f815250612694565b8060135f3373ffffffffffffffffffffffffffffffffffffffff1673ffffffffffffffffffffffffffffffffffffffff1681526020019081526020015f205f828254611df4919061428c565b925050819055505050565b80471015611e465747816040517fcf479181000000000000000000000000000000000000000000000000000000008152600401611e3d929190614368565b60405180910390fd5b5f808373ffffffffffffffffffffffffffffffffffffffff1683604051611e6c90614943565b5f6040518083038185875af1925050503d805f8114611ea6576040519150601f19603f3d011682016040523d82523d5f602084013e611eab565b606091505b509150915081611ebf57611ebe81612729565b5b50505050565b5f73ffffffffffffffffffffffffffffffffffffffff168473ffffffffffffffffffffffffffffffffffffffff1603611f35575f6040517f57f447ce000000000000000000000000000000000000000000000000000000008152600401611f2c9190613d5d565b60405180910390fd5b611f425f8585858561276d565b50505050565b5f73ffffffffffffffffffffffffffffffffffffffff168473ffffffffffffffffffffffffffffffffffffffff1603611fb8575f6040517f57f447ce000000000000000000000000000000000000000000000000000000008152600401611faf9190613d5d565b60405180910390fd5b5f73ffffffffffffffffffffffffffffffffffffffff168573ffffffffffffffffffffffffffffffffffffffff1603612028575f6040517f01a8351400000000000000000000000000000000000000000000000000000000815260040161201f9190613d5d565b60405180910390fd5b612035858585858561276d565b5050505050565b612044612819565b5f600360146101000a81548160ff0219169083151502179055507f5db9ee0a495bf2e6ff9c91a7834c1ba4fdd244a5e8aa4e537bd38aeae4b073aa612087610a69565b6040516120949190613d5d565b60405180910390a1565b612118838473ffffffffffffffffffffffffffffffffffffffff1663a9059cbb85856040516024016120d1929190613253565b604051602081830303815290604052915060e01b6020820180517bffffffffffffffffffffffffffffffffffffffffffffffffffffffff8381831617835250505050612859565b505050565b5f60208202602084010151905092915050565b5f60208202602084010151905092915050565b5f60035f9054906101000a900473ffffffffffffffffffffffffffffffffffffffff1690508160035f6101000a81548173ffffffffffffffffffffffffffffffffffffffff021916908373ffffffffffffffffffffffffffffffffffffffff1602179055508173ffffffffffffffffffffffffffffffffffffffff168173ffffffffffffffffffffffffffffffffffffffff167f8be0079c531659141344cd1fd0a4f28419497f9722a3daafe3b4186f6b6457e060405160405180910390a35050565b61220e6128f4565b6001600360146101000a81548160ff0219169083151502179055507f62e78cea01bee320cd4e420270b5ea74000d11b0c9f74754ebdbfc544b05a258612252610a69565b60405161225f9190613d5d565b60405180910390a1565b5f73ffffffffffffffffffffffffffffffffffffffff168273ffffffffffffffffffffffffffffffffffffffff16036122d9575f6040517fced3e1000000000000000000000000000000000000000000000000000000000081526004016122d09190613d5d565b60405180910390fd5b8060015f8573ffffffffffffffffffffffffffffffffffffffff1673ffffffffffffffffffffffffffffffffffffffff1681526020019081526020015f205f8473ffffffffffffffffffffffffffffffffffffffff1673ffffffffffffffffffffffffffffffffffffffff1681526020019081526020015f205f6101000a81548160ff0219169083151502179055508173ffffffffffffffffffffffffffffffffffffffff168373ffffffffffffffffffffffffffffffffffffffff167f17307eab39ab6107e8899845ad3d59bd9653f200f220920489ca2b5937696c31836040516123c591906133d0565b60405180910390a3505050565b5f8160065460085f8773ffffffffffffffffffffffffffffffffffffffff1673ffffffffffffffffffffffffffffffffffffffff1681526020019081526020015f20548561242091906140c7565b61242a9190614957565b6124349190614987565b90509392505050565b5f73ffffffffffffffffffffffffffffffffffffffff168473ffffffffffffffffffffffffffffffffffffffff16036124ad575f6040517f57f447ce0000000000000000000000000000000000000000000000000000000081526004016124a49190613d5d565b60405180910390fd5b5f73ffffffffffffffffffffffffffffffffffffffff168573ffffffffffffffffffffffffffffffffffffffff160361251d575f6040517f01a835140000000000000000000000000000000000000000000000000000000081526004016125149190613d5d565b60405180910390fd5b5f806125298585612935565b9150915061253a878784848761276d565b50505050505050565b5f805f90507a184f03e93ff9f4daa797ed6e38ed64bf6a1f010000000000000000831061259f577a184f03e93ff9f4daa797ed6e38ed64bf6a1f01000000000000000083816125955761259461478b565b5b0492506040810190505b6d04ee2d6d415b85acef810000000083106125dc576d04ee2d6d415b85acef810000000083816125d2576125d161478b565b5b0492506020810190505b662386f26fc10000831061260b57662386f26fc1000083816126015761260061478b565b5b0492506010810190505b6305f5e1008310612634576305f5e100838161262a5761262961478b565b5b0492506008810190505b612710831061265957612710838161264f5761264e61478b565b5b0492506004810190505b6064831061267c57606483816126725761267161478b565b5b0492506002810190505b600a831061268b576001810190505b80915050919050565b5f73ffffffffffffffffffffffffffffffffffffffff168473ffffffffffffffffffffffffffffffffffffffff1603612704575f6040517f57f447ce0000000000000000000000000000000000000000000000000000000081526004016126fb9190613d5d565b60405180910390fd5b5f806127108585612935565b915091506127215f8784848761276d565b505050505050565b5f8151111561273b5780518082602001fd5b6040517fd6bda27500000000000000000000000000000000000000000000000000000000815260040160405180910390fd5b61277985858585612965565b5f73ffffffffffffffffffffffffffffffffffffffff168473ffffffffffffffffffffffffffffffffffffffff1614612812575f6127b5610a69565b90506001845103612801575f6127d45f8661213090919063ffffffff16565b90505f6127ea5f8661213090919063ffffffff16565b90506127fa838989858589612977565b5050612810565b61280f818787878787612b26565b5b505b5050505050565b612821611438565b612857576040517f8dfc202b00000000000000000000000000000000000000000000000000000000815260040160405180910390fd5b565b5f8060205f8451602086015f885af180612878576040513d5f823e3d81fd5b3d92505f519150505f82146128915760018114156128ac565b5f8473ffffffffffffffffffffffffffffffffffffffff163b145b156128ee57836040517f5274afe70000000000000000000000000000000000000000000000000000000081526004016128e59190613d5d565b60405180910390fd5b50505050565b6128fc611438565b15612933576040517fd93c066500000000000000000000000000000000000000000000000000000000815260040160405180910390fd5b565b60608060405191506001825283602083015260408201905060018152826020820152604081016040529250929050565b61297184848484612cd5565b50505050565b5f8473ffffffffffffffffffffffffffffffffffffffff163b1115612b1e578373ffffffffffffffffffffffffffffffffffffffff1663f23a6e6187878686866040518663ffffffff1660e01b81526004016129d7959493929190614a0c565b6020604051808303815f875af1925050508015612a1257506040513d601f19601f82011682018060405250810190612a0f9190614a78565b60015b612a93573d805f8114612a40576040519150601f19603f3d011682016040523d82523d5f602084013e612a45565b606091505b505f815103612a8b57846040517f57f447ce000000000000000000000000000000000000000000000000000000008152600401612a829190613d5d565b60405180910390fd5b805181602001fd5b63f23a6e6160e01b7bffffffffffffffffffffffffffffffffffffffffffffffffffffffff1916817bffffffffffffffffffffffffffffffffffffffffffffffffffffffff191614612b1c57846040517f57f447ce000000000000000000000000000000000000000000000000000000008152600401612b139190613d5d565b60405180910390fd5b505b505050505050565b5f8473ffffffffffffffffffffffffffffffffffffffff163b1115612ccd578373ffffffffffffffffffffffffffffffffffffffff1663bc197c8187878686866040518663ffffffff1660e01b8152600401612b86959493929190614aa3565b6020604051808303815f875af1925050508015612bc157506040513d601f19601f82011682018060405250810190612bbe9190614a78565b60015b612c42573d805f8114612bef576040519150601f19603f3d011682016040523d82523d5f602084013e612bf4565b606091505b505f815103612c3a57846040517f57f447ce000000000000000000000000000000000000000000000000000000008152600401612c319190613d5d565b60405180910390fd5b805181602001fd5b63bc197c8160e01b7bffffffffffffffffffffffffffffffffffffffffffffffffffffffff1916817bffffffffffffffffffffffffffffffffffffffffffffffffffffffff191614612ccb57846040517f57f447ce000000000000000000000000000000000000000000000000000000008152600401612cc29190613d5d565b60405180910390fd5b505b505050505050565b612ce184848484612e52565b5f73ffffffffffffffffffffffffffffffffffffffff168473ffffffffffffffffffffffffffffffffffffffff1603612da4575f805b8351811015612d89575f612d34828561213090919063ffffffff16565b90508060045f612d4d858961213090919063ffffffff16565b81526020019081526020015f205f828254612d68919061428c565b925050819055508083612d7b919061428c565b925050806001019050612d17565b508060055f828254612d9b919061428c565b92505081905550505b5f73ffffffffffffffffffffffffffffffffffffffff168373ffffffffffffffffffffffffffffffffffffffff1603612e4c575f805b8351811015612e3a575f612df7828561213090919063ffffffff16565b90508060045f612e10858961213090919063ffffffff16565b81526020019081526020015f205f8282540392505081905550808301925050806001019050612dda565b508060055f8282540392505081905550505b50505050565b612e5a6128f4565b612e6684848484612e6c565b50505050565b8051825114612eb657815181516040517f5b059991000000000000000000000000000000000000000000000000000000008152600401612ead929190614368565b60405180910390fd5b5f612ebf610a69565b90505f5b83518110156130bb575f612ee0828661213090919063ffffffff16565b90505f612ef6838661213090919063ffffffff16565b90505f73ffffffffffffffffffffffffffffffffffffffff168873ffffffffffffffffffffffffffffffffffffffff1614613019575f805f8481526020019081526020015f205f8a73ffffffffffffffffffffffffffffffffffffffff1673ffffffffffffffffffffffffffffffffffffffff1681526020019081526020015f2054905081811015612fc557888183856040517f03dee4c5000000000000000000000000000000000000000000000000000000008152600401612fbc9493929190614b09565b60405180910390fd5b8181035f808581526020019081526020015f205f8b73ffffffffffffffffffffffffffffffffffffffff1673ffffffffffffffffffffffffffffffffffffffff1681526020019081526020015f2081905550505b5f73ffffffffffffffffffffffffffffffffffffffff168773ffffffffffffffffffffffffffffffffffffffff16146130ae57805f808481526020019081526020015f205f8973ffffffffffffffffffffffffffffffffffffffff1673ffffffffffffffffffffffffffffffffffffffff1681526020019081526020015f205f8282546130a6919061428c565b925050819055505b5050806001019050612ec3565b506001835103613176575f6130d95f8561213090919063ffffffff16565b90505f6130ef5f8561213090919063ffffffff16565b90508573ffffffffffffffffffffffffffffffffffffffff168773ffffffffffffffffffffffffffffffffffffffff168473ffffffffffffffffffffffffffffffffffffffff167fc3d58168c5ae7397731d063d5bbf3d657854427343f4c083240f7aacaa2d0f628585604051613167929190614368565b60405180910390a450506131f5565b8373ffffffffffffffffffffffffffffffffffffffff168573ffffffffffffffffffffffffffffffffffffffff168273ffffffffffffffffffffffffffffffffffffffff167f4a39dc06d4c0dbc64b70af90fd698a233a518aa5d07e595d983b8c0526c8f7fb86866040516131ec929190614b4c565b60405180910390a45b5050505050565b5f73ffffffffffffffffffffffffffffffffffffffff82169050919050565b5f613225826131fc565b9050919050565b6132358161321b565b82525050565b5f819050919050565b61324d8161323b565b82525050565b5f6040820190506132665f83018561322c565b6132736020830184613244565b9392505050565b5f604051905090565b5f80fd5b5f80fd5b6132948161321b565b811461329e575f80fd5b50565b5f813590506132af8161328b565b92915050565b6132be8161323b565b81146132c8575f80fd5b50565b5f813590506132d9816132b5565b92915050565b5f80604083850312156132f5576132f4613283565b5b5f613302858286016132a1565b9250506020613313858286016132cb565b9150509250929050565b5f6020820190506133305f830184613244565b92915050565b5f7fffffffff0000000000000000000000000000000000000000000000000000000082169050919050565b61336a81613336565b8114613374575f80fd5b50565b5f8135905061338581613361565b92915050565b5f602082840312156133a05761339f613283565b5b5f6133ad84828501613377565b91505092915050565b5f8115159050919050565b6133ca816133b6565b82525050565b5f6020820190506133e35f8301846133c1565b92915050565b5f80fd5b5f80fd5b5f601f19601f8301169050919050565b7f4e487b71000000000000000000000000000000000000000000000000000000005f52604160045260245ffd5b613437826133f1565b810181811067ffffffffffffffff8211171561345657613455613401565b5b80604052505050565b5f61346861327a565b9050613474828261342e565b919050565b5f67ffffffffffffffff82111561349357613492613401565b5b61349c826133f1565b9050602081019050919050565b828183375f83830152505050565b5f6134c96134c484613479565b61345f565b9050828152602081018484840111156134e5576134e46133ed565b5b6134f08482856134a9565b509392505050565b5f82601f83011261350c5761350b6133e9565b5b813561351c8482602086016134b7565b91505092915050565b5f6020828403121561353a57613539613283565b5b5f82013567ffffffffffffffff81111561355757613556613287565b5b613563848285016134f8565b91505092915050565b5f6020828403121561358157613580613283565b5b5f61358e848285016132cb565b91505092915050565b5f81519050919050565b5f82825260208201905092915050565b8281835e5f83830152505050565b5f6135c982613597565b6135d381856135a1565b93506135e38185602086016135b1565b6135ec816133f1565b840191505092915050565b5f6020820190508181035f83015261360f81846135bf565b905092915050565b5f806040838503121561362d5761362c613283565b5b5f61363a858286016132cb565b925050602061364b858286016132cb565b9150509250929050565b5f61365f826131fc565b9050919050565b61366f81613655565b8114613679575f80fd5b50565b5f8135905061368a81613666565b92915050565b5f602082840312156136a5576136a4613283565b5b5f6136b28482850161367c565b91505092915050565b5f67ffffffffffffffff8211156136d5576136d4613401565b5b602082029050602081019050919050565b5f80fd5b5f6136fc6136f7846136bb565b61345f565b9050808382526020820190506020840283018581111561371f5761371e6136e6565b5b835b81811015613748578061373488826132cb565b845260208401935050602081019050613721565b5050509392505050565b5f82601f830112613766576137656133e9565b5b81356137768482602086016136ea565b91505092915050565b5f67ffffffffffffffff82111561379957613798613401565b5b6137a2826133f1565b9050602081019050919050565b5f6137c16137bc8461377f565b61345f565b9050828152602081018484840111156137dd576137dc6133ed565b5b6137e88482856134a9565b509392505050565b5f82601f830112613804576138036133e9565b5b81356138148482602086016137af565b91505092915050565b5f805f806080858703121561383557613834613283565b5b5f613842878288016132a1565b945050602085013567ffffffffffffffff81111561386357613862613287565b5b61386f87828801613752565b935050604085013567ffffffffffffffff8111156138905761388f613287565b5b61389c87828801613752565b925050606085013567ffffffffffffffff8111156138bd576138bc613287565b5b6138c9878288016137f0565b91505092959194509250565b5f602082840312156138ea576138e9613283565b5b5f6138f7848285016132a1565b91505092915050565b5f805f805f60a0868803121561391957613918613283565b5b5f613926888289016132a1565b9550506020613937888289016132a1565b945050604086013567ffffffffffffffff81111561395857613957613287565b5b61396488828901613752565b935050606086013567ffffffffffffffff81111561398557613984613287565b5b61399188828901613752565b925050608086013567ffffffffffffffff8111156139b2576139b1613287565b5b6139be888289016137f0565b9150509295509295909350565b6139d4816133b6565b81146139de575f80fd5b50565b5f813590506139ef816139cb565b92915050565b5f8060408385031215613a0b57613a0a613283565b5b5f613a18858286016139e1565b9250506020613a29858286016139e1565b9150509250929050565b5f613a3d8261321b565b9050919050565b613a4d81613a33565b8114613a57575f80fd5b50565b5f81359050613a6881613a44565b92915050565b5f8060408385031215613a8457613a83613283565b5b5f613a9185828601613a5a565b9250506020613aa2858286016132a1565b9150509250929050565b5f67ffffffffffffffff821115613ac657613ac5613401565b5b602082029050602081019050919050565b5f613ae9613ae484613aac565b61345f565b90508083825260208201905060208402830185811115613b0c57613b0b6136e6565b5b835b81811015613b355780613b2188826132a1565b845260208401935050602081019050613b0e565b5050509392505050565b5f82601f830112613b5357613b526133e9565b5b8135613b63848260208601613ad7565b91505092915050565b5f8060408385031215613b8257613b81613283565b5b5f83013567ffffffffffffffff811115613b9f57613b9e613287565b5b613bab85828601613b3f565b925050602083013567ffffffffffffffff811115613bcc57613bcb613287565b5b613bd885828601613752565b9150509250929050565b5f81519050919050565b5f82825260208201905092915050565b5f819050602082019050919050565b613c148161323b565b82525050565b5f613c258383613c0b565b60208301905092915050565b5f602082019050919050565b5f613c4782613be2565b613c518185613bec565b9350613c5c83613bfc565b805f5b83811015613c8c578151613c738882613c1a565b9750613c7e83613c31565b925050600181019050613c5f565b5085935050505092915050565b5f6020820190508181035f830152613cb18184613c3d565b905092915050565b5f80fd5b5f8083601f840112613cd257613cd16133e9565b5b8235905067ffffffffffffffff811115613cef57613cee613cb9565b5b602083019150836020820283011115613d0b57613d0a6136e6565b5b9250929050565b5f8060208385031215613d2857613d27613283565b5b5f83013567ffffffffffffffff811115613d4557613d44613287565b5b613d5185828601613cbd565b92509250509250929050565b5f602082019050613d705f83018461322c565b92915050565b5f8060408385031215613d8c57613d8b613283565b5b5f613d99858286016132a1565b9250506020613daa858286016139e1565b9150509250929050565b5f60208284031215613dc957613dc8613283565b5b5f613dd684828501613a5a565b91505092915050565b5f8060408385031215613df557613df4613283565b5b5f613e02858286016132a1565b9250506020613e13858286016132a1565b9150509250929050565b5f805f805f60a08688031215613e3657613e35613283565b5b5f613e43888289016132a1565b9550506020613e54888289016132a1565b9450506040613e65888289016132cb565b9350506060613e76888289016132cb565b925050608086013567ffffffffffffffff811115613e9757613e96613287565b5b613ea3888289016137f0565b9150509295509295909350565b7f555249206e6f74206578697374656e7420746f6b656e000000000000000000005f82015250565b5f613ee46016836135a1565b9150613eef82613eb0565b602082019050919050565b5f6020820190508181035f830152613f1181613ed8565b9050919050565b5f81905092915050565b5f613f2c82613597565b613f368185613f18565b9350613f468185602086016135b1565b80840191505092915050565b7f2e6a736f6e0000000000000000000000000000000000000000000000000000005f82015250565b5f613f86600583613f18565b9150613f9182613f52565b600582019050919050565b5f613fa78285613f22565b9150613fb38284613f22565b9150613fbe82613f7a565b91508190509392505050565b7f416c6c6f77204c697374206d696e7420697320636c6f736564000000000000005f82015250565b5f613ffe6019836135a1565b915061400982613fca565b602082019050919050565b5f6020820190508181035f83015261402b81613ff2565b9050919050565b7f536f7272792120596f7520617265206e6f7420696e20616c6c6f774c697374005f82015250565b5f614066601f836135a1565b915061407182614032565b602082019050919050565b5f6020820190508181035f8301526140938161405a565b9050919050565b7f4e487b71000000000000000000000000000000000000000000000000000000005f52601160045260245ffd5b5f6140d18261323b565b91506140dc8361323b565b92508282026140ea8161323b565b915082820484148315176141015761410061409a565b5b5092915050565b7f57726f6e6721204e6f7420456e6f7567682066756e64730000000000000000005f82015250565b5f61413c6017836135a1565b915061414782614108565b602082019050919050565b5f6020820190508181035f83015261416981614130565b9050919050565b7f5061796d656e7453706c69747465723a206163636f756e7420686173206e6f205f8201527f7368617265730000000000000000000000000000000000000000000000000000602082015250565b5f6141ca6026836135a1565b91506141d582614170565b604082019050919050565b5f6020820190508181035f8301526141f7816141be565b9050919050565b7f5061796d656e7453706c69747465723a206163636f756e74206973206e6f74205f8201527f647565207061796d656e74000000000000000000000000000000000000000000602082015250565b5f614258602b836135a1565b9150614263826141fe565b604082019050919050565b5f6020820190508181035f8301526142858161424c565b9050919050565b5f6142968261323b565b91506142a18361323b565b92508282019050808211156142b9576142b861409a565b5b92915050565b5f819050919050565b5f6142e26142dd6142d8846131fc565b6142bf565b6131fc565b9050919050565b5f6142f3826142c8565b9050919050565b5f614304826142e9565b9050919050565b614314816142fa565b82525050565b5f60408201905061432d5f83018561430b565b61433a6020830184613244565b9392505050565b5f6040820190506143545f83018561322c565b614361602083018461322c565b9392505050565b5f60408201905061437b5f830185613244565b6143886020830184613244565b9392505050565b7f4e487b71000000000000000000000000000000000000000000000000000000005f52603260045260245ffd5b7f5075626c6963204d696e7420436c6f73656400000000000000000000000000005f82015250565b5f6143f06012836135a1565b91506143fb826143bc565b602082019050919050565b5f6020820190508181035f83015261441d816143e4565b9050919050565b7f57726f6e6721204e6f7420456e6f756768204d6f6e65792053656e74000000005f82015250565b5f614458601c836135a1565b915061446382614424565b602082019050919050565b5f6020820190508181035f8301526144858161444c565b9050919050565b5f8151905061449a816132b5565b92915050565b5f602082840312156144b5576144b4613283565b5b5f6144c28482850161448c565b91505092915050565b7f4e487b71000000000000000000000000000000000000000000000000000000005f52602260045260245ffd5b5f600282049050600182168061450f57607f821691505b602082108103614522576145216144cb565b5b50919050565b5f819050815f5260205f209050919050565b5f6020601f8301049050919050565b5f82821b905092915050565b5f600883026145847fffffffffffffffffffffffffffffffffffffffffffffffffffffffffffffffff82614549565b61458e8683614549565b95508019841693508086168417925050509392505050565b5f6145c06145bb6145b68461323b565b6142bf565b61323b565b9050919050565b5f819050919050565b6145d9836145a6565b6145ed6145e5826145c7565b848454614555565b825550505050565b5f90565b6146016145f5565b61460c8184846145d0565b505050565b5b8181101561462f576146245f826145f9565b600181019050614612565b5050565b601f8211156146745761464581614528565b61464e8461453a565b8101602085101561465d578190505b6146716146698561453a565b830182614611565b50505b505050565b5f82821c905092915050565b5f6146945f1984600802614679565b1980831691505092915050565b5f6146ac8383614685565b9150826002028217905092915050565b6146c582613597565b67ffffffffffffffff8111156146de576146dd613401565b5b6146e882546144f8565b6146f3828285614633565b5f60209050601f831160018114614724575f8415614712578287015190505b61471c85826146a1565b865550614783565b601f19841661473286614528565b5f5b8281101561475957848901518255600182019150602085019450602081019050614734565b868310156147765784890151614772601f891682614685565b8355505b6001600288020188555050505b505050505050565b7f4e487b71000000000000000000000000000000000000000000000000000000005f52601260045260245ffd5b7f57616c6c6574204c696d697420526561636865640000000000000000000000005f82015250565b5f6147ec6014836135a1565b91506147f7826147b8565b602082019050919050565b5f6020820190508181035f830152614819816147e0565b9050919050565b7f536f7272792c20796f7520617265206d696e74696e67207468652077726f6e675f8201527f204e465400000000000000000000000000000000000000000000000000000000602082015250565b5f61487a6024836135a1565b915061488582614820565b604082019050919050565b5f6020820190508181035f8301526148a78161486e565b9050919050565b7f536f7272792c20576520617265206d696e746564206f757421000000000000005f82015250565b5f6148e26019836135a1565b91506148ed826148ae565b602082019050919050565b5f6020820190508181035f83015261490f816148d6565b9050919050565b5f81905092915050565b50565b5f61492e5f83614916565b915061493982614920565b5f82019050919050565b5f61494d82614923565b9150819050919050565b5f6149618261323b565b915061496c8361323b565b92508261497c5761497b61478b565b5b828204905092915050565b5f6149918261323b565b915061499c8361323b565b92508282039050818111156149b4576149b361409a565b5b92915050565b5f81519050919050565b5f82825260208201905092915050565b5f6149de826149ba565b6149e881856149c4565b93506149f88185602086016135b1565b614a01816133f1565b840191505092915050565b5f60a082019050614a1f5f83018861322c565b614a2c602083018761322c565b614a396040830186613244565b614a466060830185613244565b8181036080830152614a5881846149d4565b90509695505050505050565b5f81519050614a7281613361565b92915050565b5f60208284031215614a8d57614a8c613283565b5b5f614a9a84828501614a64565b91505092915050565b5f60a082019050614ab65f83018861322c565b614ac3602083018761322c565b8181036040830152614ad58186613c3d565b90508181036060830152614ae98185613c3d565b90508181036080830152614afd81846149d4565b90509695505050505050565b5f608082019050614b1c5f83018761322c565b614b296020830186613244565b614b366040830185613244565b614b436060830184613244565b95945050505050565b5f6040820190508181035f830152614b648185613c3d565b90508181036020830152614b788184613c3d565b9050939250505056fea264697066735822122017ac683897ce506adc491a3bf43e213f94d7a8a4d6e488487e84c150208223ce64736f6c634300081a0033697066733a2f2f626166796265696435766378616a7a6a68636135336d66356b663533347569726671617063636f6a6578696f706e6473796f7334726c33767a75752f",
			"opcodes": "PUSH1 0x80 PUSH1 0x40 MSTORE PUSH7 0x470DE4DF820000 PUSH1 0xD SSTORE PUSH7 0x2386F26FC10000 PUSH1 0xE SSTORE PUSH1 0x14 PUSH1 0xF SSTORE PUSH1 0x3 PUSH1 0x10 SSTORE PUSH1 0x1 PUSH1 0x11 PUSH0 PUSH2 0x100 EXP DUP2 SLOAD DUP2 PUSH1 0xFF MUL NOT AND SWAP1 DUP4 ISZERO ISZERO MUL OR SWAP1 SSTORE POP PUSH1 0x1 PUSH1 0x11 PUSH1 0x1 PUSH2 0x100 EXP DUP2 SLOAD DUP2 PUSH1 0xFF MUL NOT AND SWAP1 DUP4 ISZERO ISZERO MUL OR SWAP1 SSTORE POP CALLVALUE DUP1 ISZERO PUSH2 0x64 JUMPI PUSH0 DUP1 REVERT JUMPDEST POP PUSH1 0x40 MLOAD PUSH2 0x5AB7 CODESIZE SUB DUP1 PUSH2 0x5AB7 DUP4 CODECOPY DUP2 DUP2 ADD PUSH1 0x40 MSTORE DUP2 ADD SWAP1 PUSH2 0x86 SWAP2 SWAP1 PUSH2 0x7E0 JUMP JUMPDEST DUP2 DUP2 DUP5 PUSH1 0x40 MLOAD DUP1 PUSH1 0x80 ADD PUSH1 0x40 MSTORE DUP1 PUSH1 0x43 DUP2 MSTORE PUSH1 0x20 ADD PUSH2 0x5A74 PUSH1 0x43 SWAP2 CODECOPY PUSH2 0xB1 DUP2 PUSH2 0x23A PUSH1 0x20 SHL PUSH1 0x20 SHR JUMP JUMPDEST POP PUSH0 PUSH20 0xFFFFFFFFFFFFFFFFFFFFFFFFFFFFFFFFFFFFFFFF AND DUP2 PUSH20 0xFFFFFFFFFFFFFFFFFFFFFFFFFFFFFFFFFFFFFFFF AND SUB PUSH2 0x122 JUMPI PUSH0 PUSH1 0x40 MLOAD PUSH32 0x1E4FBDF700000000000000000000000000000000000000000000000000000000 DUP2 MSTORE PUSH1 0x4 ADD PUSH2 0x119 SWAP2 SWAP1 PUSH2 0x877 JUMP JUMPDEST PUSH1 0x40 MLOAD DUP1 SWAP2 SUB SWAP1 REVERT JUMPDEST PUSH2 0x131 DUP2 PUSH2 0x24D PUSH1 0x20 SHL PUSH1 0x20 SHR JUMP JUMPDEST POP PUSH0 PUSH1 0x3 PUSH1 0x14 PUSH2 0x100 EXP DUP2 SLOAD DUP2 PUSH1 0xFF MUL NOT AND SWAP1 DUP4 ISZERO ISZERO MUL OR SWAP1 SSTORE POP DUP1 MLOAD DUP3 MLOAD EQ PUSH2 0x190 JUMPI PUSH1 0x40 MLOAD PUSH32 0x8C379A000000000000000000000000000000000000000000000000000000000 DUP2 MSTORE PUSH1 0x4 ADD PUSH2 0x187 SWAP1 PUSH2 0x910 JUMP JUMPDEST PUSH1 0x40 MLOAD DUP1 SWAP2 SUB SWAP1 REVERT JUMPDEST PUSH0 DUP3 MLOAD GT PUSH2 0x1D3 JUMPI PUSH1 0x40 MLOAD PUSH32 0x8C379A000000000000000000000000000000000000000000000000000000000 DUP2 MSTORE PUSH1 0x4 ADD PUSH2 0x1CA SWAP1 PUSH2 0x978 JUMP JUMPDEST PUSH1 0x40 MLOAD DUP1 SWAP2 SUB SWAP1 REVERT JUMPDEST PUSH0 JUMPDEST DUP3 MLOAD DUP2 LT ISZERO PUSH2 0x22F JUMPI PUSH2 0x222 DUP4 DUP3 DUP2 MLOAD DUP2 LT PUSH2 0x1F4 JUMPI PUSH2 0x1F3 PUSH2 0x996 JUMP JUMPDEST JUMPDEST PUSH1 0x20 MUL PUSH1 0x20 ADD ADD MLOAD DUP4 DUP4 DUP2 MLOAD DUP2 LT PUSH2 0x20F JUMPI PUSH2 0x20E PUSH2 0x996 JUMP JUMPDEST JUMPDEST PUSH1 0x20 MUL PUSH1 0x20 ADD ADD MLOAD PUSH2 0x310 PUSH1 0x20 SHL PUSH1 0x20 SHR JUMP JUMPDEST DUP1 DUP1 PUSH1 0x1 ADD SWAP2 POP POP PUSH2 0x1D5 JUMP JUMPDEST POP POP POP POP POP POP PUSH2 0xEB0 JUMP JUMPDEST DUP1 PUSH1 0x2 SWAP1 DUP2 PUSH2 0x249 SWAP2 SWAP1 PUSH2 0xBC7 JUMP JUMPDEST POP POP JUMP JUMPDEST PUSH0 PUSH1 0x3 PUSH0 SWAP1 SLOAD SWAP1 PUSH2 0x100 EXP SWAP1 DIV PUSH20 0xFFFFFFFFFFFFFFFFFFFFFFFFFFFFFFFFFFFFFFFF AND SWAP1 POP DUP2 PUSH1 0x3 PUSH0 PUSH2 0x100 EXP DUP2 SLOAD DUP2 PUSH20 0xFFFFFFFFFFFFFFFFFFFFFFFFFFFFFFFFFFFFFFFF MUL NOT AND SWAP1 DUP4 PUSH20 0xFFFFFFFFFFFFFFFFFFFFFFFFFFFFFFFFFFFFFFFF AND MUL OR SWAP1 SSTORE POP DUP2 PUSH20 0xFFFFFFFFFFFFFFFFFFFFFFFFFFFFFFFFFFFFFFFF AND DUP2 PUSH20 0xFFFFFFFFFFFFFFFFFFFFFFFFFFFFFFFFFFFFFFFF AND PUSH32 0x8BE0079C531659141344CD1FD0A4F28419497F9722A3DAAFE3B4186F6B6457E0 PUSH1 0x40 MLOAD PUSH1 0x40 MLOAD DUP1 SWAP2 SUB SWAP1 LOG3 POP POP JUMP JUMPDEST PUSH0 PUSH20 0xFFFFFFFFFFFFFFFFFFFFFFFFFFFFFFFFFFFFFFFF AND DUP3 PUSH20 0xFFFFFFFFFFFFFFFFFFFFFFFFFFFFFFFFFFFFFFFF AND SUB PUSH2 0x37E JUMPI PUSH1 0x40 MLOAD PUSH32 0x8C379A000000000000000000000000000000000000000000000000000000000 DUP2 MSTORE PUSH1 0x4 ADD PUSH2 0x375 SWAP1 PUSH2 0xD06 JUMP JUMPDEST PUSH1 0x40 MLOAD DUP1 SWAP2 SUB SWAP1 REVERT JUMPDEST PUSH0 DUP2 GT PUSH2 0x3C0 JUMPI PUSH1 0x40 MLOAD PUSH32 0x8C379A000000000000000000000000000000000000000000000000000000000 DUP2 MSTORE PUSH1 0x4 ADD PUSH2 0x3B7 SWAP1 PUSH2 0xD6E JUMP JUMPDEST PUSH1 0x40 MLOAD DUP1 SWAP2 SUB SWAP1 REVERT JUMPDEST PUSH0 PUSH1 0x8 PUSH0 DUP5 PUSH20 0xFFFFFFFFFFFFFFFFFFFFFFFFFFFFFFFFFFFFFFFF AND PUSH20 0xFFFFFFFFFFFFFFFFFFFFFFFFFFFFFFFFFFFFFFFF AND DUP2 MSTORE PUSH1 0x20 ADD SWAP1 DUP2 MSTORE PUSH1 0x20 ADD PUSH0 KECCAK256 SLOAD EQ PUSH2 0x43F JUMPI PUSH1 0x40 MLOAD PUSH32 0x8C379A000000000000000000000000000000000000000000000000000000000 DUP2 MSTORE PUSH1 0x4 ADD PUSH2 0x436 SWAP1 PUSH2 0xDFC JUMP JUMPDEST PUSH1 0x40 MLOAD DUP1 SWAP2 SUB SWAP1 REVERT JUMPDEST PUSH1 0xA DUP3 SWAP1 DUP1 PUSH1 0x1 DUP2 SLOAD ADD DUP1 DUP3 SSTORE DUP1 SWAP2 POP POP PUSH1 0x1 SWAP1 SUB SWAP1 PUSH0 MSTORE PUSH1 0x20 PUSH0 KECCAK256 ADD PUSH0 SWAP1 SWAP2 SWAP1 SWAP2 SWAP1 SWAP2 PUSH2 0x100 EXP DUP2 SLOAD DUP2 PUSH20 0xFFFFFFFFFFFFFFFFFFFFFFFFFFFFFFFFFFFFFFFF MUL NOT AND SWAP1 DUP4 PUSH20 0xFFFFFFFFFFFFFFFFFFFFFFFFFFFFFFFFFFFFFFFF AND MUL OR SWAP1 SSTORE POP DUP1 PUSH1 0x8 PUSH0 DUP5 PUSH20 0xFFFFFFFFFFFFFFFFFFFFFFFFFFFFFFFFFFFFFFFF AND PUSH20 0xFFFFFFFFFFFFFFFFFFFFFFFFFFFFFFFFFFFFFFFF AND DUP2 MSTORE PUSH1 0x20 ADD SWAP1 DUP2 MSTORE PUSH1 0x20 ADD PUSH0 KECCAK256 DUP2 SWAP1 SSTORE POP DUP1 PUSH1 0x6 SLOAD PUSH2 0x4EF SWAP2 SWAP1 PUSH2 0xE47 JUMP JUMPDEST PUSH1 0x6 DUP2 SWAP1 SSTORE POP PUSH32 0x40C340F65E17194D14DDDDB073D3C9F888E3CB52B5AAE0C6C7706B4FBC905FAC DUP3 DUP3 PUSH1 0x40 MLOAD PUSH2 0x526 SWAP3 SWAP2 SWAP1 PUSH2 0xE89 JUMP JUMPDEST PUSH1 0x40 MLOAD DUP1 SWAP2 SUB SWAP1 LOG1 POP POP JUMP JUMPDEST PUSH0 PUSH1 0x40 MLOAD SWAP1 POP SWAP1 JUMP JUMPDEST PUSH0 DUP1 REVERT JUMPDEST PUSH0 DUP1 REVERT JUMPDEST PUSH0 PUSH20 0xFFFFFFFFFFFFFFFFFFFFFFFFFFFFFFFFFFFFFFFF DUP3 AND SWAP1 POP SWAP2 SWAP1 POP JUMP JUMPDEST PUSH0 PUSH2 0x56C DUP3 PUSH2 0x543 JUMP JUMPDEST SWAP1 POP SWAP2 SWAP1 POP JUMP JUMPDEST PUSH2 0x57C DUP2 PUSH2 0x562 JUMP JUMPDEST DUP2 EQ PUSH2 0x586 JUMPI PUSH0 DUP1 REVERT JUMPDEST POP JUMP JUMPDEST PUSH0 DUP2 MLOAD SWAP1 POP PUSH2 0x597 DUP2 PUSH2 0x573 JUMP JUMPDEST SWAP3 SWAP2 POP POP JUMP JUMPDEST PUSH0 DUP1 REVERT JUMPDEST PUSH0 PUSH1 0x1F NOT PUSH1 0x1F DUP4 ADD AND SWAP1 POP SWAP2 SWAP1 POP JUMP JUMPDEST PUSH32 0x4E487B7100000000000000000000000000000000000000000000000000000000 PUSH0 MSTORE PUSH1 0x41 PUSH1 0x4 MSTORE PUSH1 0x24 PUSH0 REVERT JUMPDEST PUSH2 0x5E7 DUP3 PUSH2 0x5A1 JUMP JUMPDEST DUP2 ADD DUP2 DUP2 LT PUSH8 0xFFFFFFFFFFFFFFFF DUP3 GT OR ISZERO PUSH2 0x606 JUMPI PUSH2 0x605 PUSH2 0x5B1 JUMP JUMPDEST JUMPDEST DUP1 PUSH1 0x40 MSTORE POP POP POP JUMP JUMPDEST PUSH0 PUSH2 0x618 PUSH2 0x532 JUMP JUMPDEST SWAP1 POP PUSH2 0x624 DUP3 DUP3 PUSH2 0x5DE JUMP JUMPDEST SWAP2 SWAP1 POP JUMP JUMPDEST PUSH0 PUSH8 0xFFFFFFFFFFFFFFFF DUP3 GT ISZERO PUSH2 0x643 JUMPI PUSH2 0x642 PUSH2 0x5B1 JUMP JUMPDEST JUMPDEST PUSH1 0x20 DUP3 MUL SWAP1 POP PUSH1 0x20 DUP2 ADD SWAP1 POP SWAP2 SWAP1 POP JUMP JUMPDEST PUSH0 DUP1 REVERT JUMPDEST PUSH0 PUSH2 0x66A PUSH2 0x665 DUP5 PUSH2 0x629 JUMP JUMPDEST PUSH2 0x60F JUMP JUMPDEST SWAP1 POP DUP1 DUP4 DUP3 MSTORE PUSH1 0x20 DUP3 ADD SWAP1 POP PUSH1 0x20 DUP5 MUL DUP4 ADD DUP6 DUP2 GT ISZERO PUSH2 0x68D JUMPI PUSH2 0x68C PUSH2 0x654 JUMP JUMPDEST JUMPDEST DUP4 JUMPDEST DUP2 DUP2 LT ISZERO PUSH2 0x6B6 JUMPI DUP1 PUSH2 0x6A2 DUP9 DUP3 PUSH2 0x589 JUMP JUMPDEST DUP5 MSTORE PUSH1 0x20 DUP5 ADD SWAP4 POP POP PUSH1 0x20 DUP2 ADD SWAP1 POP PUSH2 0x68F JUMP JUMPDEST POP POP POP SWAP4 SWAP3 POP POP POP JUMP JUMPDEST PUSH0 DUP3 PUSH1 0x1F DUP4 ADD SLT PUSH2 0x6D4 JUMPI PUSH2 0x6D3 PUSH2 0x59D JUMP JUMPDEST JUMPDEST DUP2 MLOAD PUSH2 0x6E4 DUP5 DUP3 PUSH1 0x20 DUP7 ADD PUSH2 0x658 JUMP JUMPDEST SWAP2 POP POP SWAP3 SWAP2 POP POP JUMP JUMPDEST PUSH0 PUSH8 0xFFFFFFFFFFFFFFFF DUP3 GT ISZERO PUSH2 0x707 JUMPI PUSH2 0x706 PUSH2 0x5B1 JUMP JUMPDEST JUMPDEST PUSH1 0x20 DUP3 MUL SWAP1 POP PUSH1 0x20 DUP2 ADD SWAP1 POP SWAP2 SWAP1 POP JUMP JUMPDEST PUSH0 DUP2 SWAP1 POP SWAP2 SWAP1 POP JUMP JUMPDEST PUSH2 0x72A DUP2 PUSH2 0x718 JUMP JUMPDEST DUP2 EQ PUSH2 0x734 JUMPI PUSH0 DUP1 REVERT JUMPDEST POP JUMP JUMPDEST PUSH0 DUP2 MLOAD SWAP1 POP PUSH2 0x745 DUP2 PUSH2 0x721 JUMP JUMPDEST SWAP3 SWAP2 POP POP JUMP JUMPDEST PUSH0 PUSH2 0x75D PUSH2 0x758 DUP5 PUSH2 0x6ED JUMP JUMPDEST PUSH2 0x60F JUMP JUMPDEST SWAP1 POP DUP1 DUP4 DUP3 MSTORE PUSH1 0x20 DUP3 ADD SWAP1 POP PUSH1 0x20 DUP5 MUL DUP4 ADD DUP6 DUP2 GT ISZERO PUSH2 0x780 JUMPI PUSH2 0x77F PUSH2 0x654 JUMP JUMPDEST JUMPDEST DUP4 JUMPDEST DUP2 DUP2 LT ISZERO PUSH2 0x7A9 JUMPI DUP1 PUSH2 0x795 DUP9 DUP3 PUSH2 0x737 JUMP JUMPDEST DUP5 MSTORE PUSH1 0x20 DUP5 ADD SWAP4 POP POP PUSH1 0x20 DUP2 ADD SWAP1 POP PUSH2 0x782 JUMP JUMPDEST POP POP POP SWAP4 SWAP3 POP POP POP JUMP JUMPDEST PUSH0 DUP3 PUSH1 0x1F DUP4 ADD SLT PUSH2 0x7C7 JUMPI PUSH2 0x7C6 PUSH2 0x59D JUMP JUMPDEST JUMPDEST DUP2 MLOAD PUSH2 0x7D7 DUP5 DUP3 PUSH1 0x20 DUP7 ADD PUSH2 0x74B JUMP JUMPDEST SWAP2 POP POP SWAP3 SWAP2 POP POP JUMP JUMPDEST PUSH0 DUP1 PUSH0 PUSH1 0x60 DUP5 DUP7 SUB SLT ISZERO PUSH2 0x7F7 JUMPI PUSH2 0x7F6 PUSH2 0x53B JUMP JUMPDEST JUMPDEST PUSH0 PUSH2 0x804 DUP7 DUP3 DUP8 ADD PUSH2 0x589 JUMP JUMPDEST SWAP4 POP POP PUSH1 0x20 DUP5 ADD MLOAD PUSH8 0xFFFFFFFFFFFFFFFF DUP2 GT ISZERO PUSH2 0x825 JUMPI PUSH2 0x824 PUSH2 0x53F JUMP JUMPDEST JUMPDEST PUSH2 0x831 DUP7 DUP3 DUP8 ADD PUSH2 0x6C0 JUMP JUMPDEST SWAP3 POP POP PUSH1 0x40 DUP5 ADD MLOAD PUSH8 0xFFFFFFFFFFFFFFFF DUP2 GT ISZERO PUSH2 0x852 JUMPI PUSH2 0x851 PUSH2 0x53F JUMP JUMPDEST JUMPDEST PUSH2 0x85E DUP7 DUP3 DUP8 ADD PUSH2 0x7B3 JUMP JUMPDEST SWAP2 POP POP SWAP3 POP SWAP3 POP SWAP3 JUMP JUMPDEST PUSH2 0x871 DUP2 PUSH2 0x562 JUMP JUMPDEST DUP3 MSTORE POP POP JUMP JUMPDEST PUSH0 PUSH1 0x20 DUP3 ADD SWAP1 POP PUSH2 0x88A PUSH0 DUP4 ADD DUP5 PUSH2 0x868 JUMP JUMPDEST SWAP3 SWAP2 POP POP JUMP JUMPDEST PUSH0 DUP3 DUP3 MSTORE PUSH1 0x20 DUP3 ADD SWAP1 POP SWAP3 SWAP2 POP POP JUMP JUMPDEST PUSH32 0x5061796D656E7453706C69747465723A2070617965657320616E642073686172 PUSH0 DUP3 ADD MSTORE PUSH32 0x6573206C656E677468206D69736D617463680000000000000000000000000000 PUSH1 0x20 DUP3 ADD MSTORE POP JUMP JUMPDEST PUSH0 PUSH2 0x8FA PUSH1 0x32 DUP4 PUSH2 0x890 JUMP JUMPDEST SWAP2 POP PUSH2 0x905 DUP3 PUSH2 0x8A0 JUMP JUMPDEST PUSH1 0x40 DUP3 ADD SWAP1 POP SWAP2 SWAP1 POP JUMP JUMPDEST PUSH0 PUSH1 0x20 DUP3 ADD SWAP1 POP DUP2 DUP2 SUB PUSH0 DUP4 ADD MSTORE PUSH2 0x927 DUP2 PUSH2 0x8EE JUMP JUMPDEST SWAP1 POP SWAP2 SWAP1 POP JUMP JUMPDEST PUSH32 0x5061796D656E7453706C69747465723A206E6F20706179656573000000000000 PUSH0 DUP3 ADD MSTORE POP JUMP JUMPDEST PUSH0 PUSH2 0x962 PUSH1 0x1A DUP4 PUSH2 0x890 JUMP JUMPDEST SWAP2 POP PUSH2 0x96D DUP3 PUSH2 0x92E JUMP JUMPDEST PUSH1 0x20 DUP3 ADD SWAP1 POP SWAP2 SWAP1 POP JUMP JUMPDEST PUSH0 PUSH1 0x20 DUP3 ADD SWAP1 POP DUP2 DUP2 SUB PUSH0 DUP4 ADD MSTORE PUSH2 0x98F DUP2 PUSH2 0x956 JUMP JUMPDEST SWAP1 POP SWAP2 SWAP1 POP JUMP JUMPDEST PUSH32 0x4E487B7100000000000000000000000000000000000000000000000000000000 PUSH0 MSTORE PUSH1 0x32 PUSH1 0x4 MSTORE PUSH1 0x24 PUSH0 REVERT JUMPDEST PUSH0 DUP2 MLOAD SWAP1 POP SWAP2 SWAP1 POP JUMP JUMPDEST PUSH32 0x4E487B7100000000000000000000000000000000000000000000000000000000 PUSH0 MSTORE PUSH1 0x22 PUSH1 0x4 MSTORE PUSH1 0x24 PUSH0 REVERT JUMPDEST PUSH0 PUSH1 0x2 DUP3 DIV SWAP1 POP PUSH1 0x1 DUP3 AND DUP1 PUSH2 0xA11 JUMPI PUSH1 0x7F DUP3 AND SWAP2 POP JUMPDEST PUSH1 0x20 DUP3 LT DUP2 SUB PUSH2 0xA24 JUMPI PUSH2 0xA23 PUSH2 0x9CD JUMP JUMPDEST JUMPDEST POP SWAP2 SWAP1 POP JUMP JUMPDEST PUSH0 DUP2 SWAP1 POP DUP2 PUSH0 MSTORE PUSH1 0x20 PUSH0 KECCAK256 SWAP1 POP SWAP2 SWAP1 POP JUMP JUMPDEST PUSH0 PUSH1 0x20 PUSH1 0x1F DUP4 ADD DIV SWAP1 POP SWAP2 SWAP1 POP JUMP JUMPDEST PUSH0 DUP3 DUP3 SHL SWAP1 POP SWAP3 SWAP2 POP POP JUMP JUMPDEST PUSH0 PUSH1 0x8 DUP4 MUL PUSH2 0xA86 PUSH32 0xFFFFFFFFFFFFFFFFFFFFFFFFFFFFFFFFFFFFFFFFFFFFFFFFFFFFFFFFFFFFFFFF DUP3 PUSH2 0xA4B JUMP JUMPDEST PUSH2 0xA90 DUP7 DUP4 PUSH2 0xA4B JUMP JUMPDEST SWAP6 POP DUP1 NOT DUP5 AND SWAP4 POP DUP1 DUP7 AND DUP5 OR SWAP3 POP POP POP SWAP4 SWAP3 POP POP POP JUMP JUMPDEST PUSH0 DUP2 SWAP1 POP SWAP2 SWAP1 POP JUMP JUMPDEST PUSH0 PUSH2 0xACB PUSH2 0xAC6 PUSH2 0xAC1 DUP5 PUSH2 0x718 JUMP JUMPDEST PUSH2 0xAA8 JUMP JUMPDEST PUSH2 0x718 JUMP JUMPDEST SWAP1 POP SWAP2 SWAP1 POP JUMP JUMPDEST PUSH0 DUP2 SWAP1 POP SWAP2 SWAP1 POP JUMP JUMPDEST PUSH2 0xAE4 DUP4 PUSH2 0xAB1 JUMP JUMPDEST PUSH2 0xAF8 PUSH2 0xAF0 DUP3 PUSH2 0xAD2 JUMP JUMPDEST DUP5 DUP5 SLOAD PUSH2 0xA57 JUMP JUMPDEST DUP3 SSTORE POP POP POP POP JUMP JUMPDEST PUSH0 SWAP1 JUMP JUMPDEST PUSH2 0xB0C PUSH2 0xB00 JUMP JUMPDEST PUSH2 0xB17 DUP2 DUP5 DUP5 PUSH2 0xADB JUMP JUMPDEST POP POP POP JUMP JUMPDEST JUMPDEST DUP2 DUP2 LT ISZERO PUSH2 0xB3A JUMPI PUSH2 0xB2F PUSH0 DUP3 PUSH2 0xB04 JUMP JUMPDEST PUSH1 0x1 DUP2 ADD SWAP1 POP PUSH2 0xB1D JUMP JUMPDEST POP POP JUMP JUMPDEST PUSH1 0x1F DUP3 GT ISZERO PUSH2 0xB7F JUMPI PUSH2 0xB50 DUP2 PUSH2 0xA2A JUMP JUMPDEST PUSH2 0xB59 DUP5 PUSH2 0xA3C JUMP JUMPDEST DUP2 ADD PUSH1 0x20 DUP6 LT ISZERO PUSH2 0xB68 JUMPI DUP2 SWAP1 POP JUMPDEST PUSH2 0xB7C PUSH2 0xB74 DUP6 PUSH2 0xA3C JUMP JUMPDEST DUP4 ADD DUP3 PUSH2 0xB1C JUMP JUMPDEST POP POP JUMPDEST POP POP POP JUMP JUMPDEST PUSH0 DUP3 DUP3 SHR SWAP1 POP SWAP3 SWAP2 POP POP JUMP JUMPDEST PUSH0 PUSH2 0xB9F PUSH0 NOT DUP5 PUSH1 0x8 MUL PUSH2 0xB84 JUMP JUMPDEST NOT DUP1 DUP4 AND SWAP2 POP POP SWAP3 SWAP2 POP POP JUMP JUMPDEST PUSH0 PUSH2 0xBB7 DUP4 DUP4 PUSH2 0xB90 JUMP JUMPDEST SWAP2 POP DUP3 PUSH1 0x2 MUL DUP3 OR SWAP1 POP SWAP3 SWAP2 POP POP JUMP JUMPDEST PUSH2 0xBD0 DUP3 PUSH2 0x9C3 JUMP JUMPDEST PUSH8 0xFFFFFFFFFFFFFFFF DUP2 GT ISZERO PUSH2 0xBE9 JUMPI PUSH2 0xBE8 PUSH2 0x5B1 JUMP JUMPDEST JUMPDEST PUSH2 0xBF3 DUP3 SLOAD PUSH2 0x9FA JUMP JUMPDEST PUSH2 0xBFE DUP3 DUP3 DUP6 PUSH2 0xB3E JUMP JUMPDEST PUSH0 PUSH1 0x20 SWAP1 POP PUSH1 0x1F DUP4 GT PUSH1 0x1 DUP2 EQ PUSH2 0xC2F JUMPI PUSH0 DUP5 ISZERO PUSH2 0xC1D JUMPI DUP3 DUP8 ADD MLOAD SWAP1 POP JUMPDEST PUSH2 0xC27 DUP6 DUP3 PUSH2 0xBAC JUMP JUMPDEST DUP7 SSTORE POP PUSH2 0xC8E JUMP JUMPDEST PUSH1 0x1F NOT DUP5 AND PUSH2 0xC3D DUP7 PUSH2 0xA2A JUMP JUMPDEST PUSH0 JUMPDEST DUP3 DUP2 LT ISZERO PUSH2 0xC64 JUMPI DUP5 DUP10 ADD MLOAD DUP3 SSTORE PUSH1 0x1 DUP3 ADD SWAP2 POP PUSH1 0x20 DUP6 ADD SWAP5 POP PUSH1 0x20 DUP2 ADD SWAP1 POP PUSH2 0xC3F JUMP JUMPDEST DUP7 DUP4 LT ISZERO PUSH2 0xC81 JUMPI DUP5 DUP10 ADD MLOAD PUSH2 0xC7D PUSH1 0x1F DUP10 AND DUP3 PUSH2 0xB90 JUMP JUMPDEST DUP4 SSTORE POP JUMPDEST PUSH1 0x1 PUSH1 0x2 DUP9 MUL ADD DUP9 SSTORE POP POP POP JUMPDEST POP POP POP POP POP POP JUMP JUMPDEST PUSH32 0x5061796D656E7453706C69747465723A206163636F756E742069732074686520 PUSH0 DUP3 ADD MSTORE PUSH32 0x7A65726F20616464726573730000000000000000000000000000000000000000 PUSH1 0x20 DUP3 ADD MSTORE POP JUMP JUMPDEST PUSH0 PUSH2 0xCF0 PUSH1 0x2C DUP4 PUSH2 0x890 JUMP JUMPDEST SWAP2 POP PUSH2 0xCFB DUP3 PUSH2 0xC96 JUMP JUMPDEST PUSH1 0x40 DUP3 ADD SWAP1 POP SWAP2 SWAP1 POP JUMP JUMPDEST PUSH0 PUSH1 0x20 DUP3 ADD SWAP1 POP DUP2 DUP2 SUB PUSH0 DUP4 ADD MSTORE PUSH2 0xD1D DUP2 PUSH2 0xCE4 JUMP JUMPDEST SWAP1 POP SWAP2 SWAP1 POP JUMP JUMPDEST PUSH32 0x5061796D656E7453706C69747465723A20736861726573206172652030000000 PUSH0 DUP3 ADD MSTORE POP JUMP JUMPDEST PUSH0 PUSH2 0xD58 PUSH1 0x1D DUP4 PUSH2 0x890 JUMP JUMPDEST SWAP2 POP PUSH2 0xD63 DUP3 PUSH2 0xD24 JUMP JUMPDEST PUSH1 0x20 DUP3 ADD SWAP1 POP SWAP2 SWAP1 POP JUMP JUMPDEST PUSH0 PUSH1 0x20 DUP3 ADD SWAP1 POP DUP2 DUP2 SUB PUSH0 DUP4 ADD MSTORE PUSH2 0xD85 DUP2 PUSH2 0xD4C JUMP JUMPDEST SWAP1 POP SWAP2 SWAP1 POP JUMP JUMPDEST PUSH32 0x5061796D656E7453706C69747465723A206163636F756E7420616C7265616479 PUSH0 DUP3 ADD MSTORE PUSH32 0x2068617320736861726573000000000000000000000000000000000000000000 PUSH1 0x20 DUP3 ADD MSTORE POP JUMP JUMPDEST PUSH0 PUSH2 0xDE6 PUSH1 0x2B DUP4 PUSH2 0x890 JUMP JUMPDEST SWAP2 POP PUSH2 0xDF1 DUP3 PUSH2 0xD8C JUMP JUMPDEST PUSH1 0x40 DUP3 ADD SWAP1 POP SWAP2 SWAP1 POP JUMP JUMPDEST PUSH0 PUSH1 0x20 DUP3 ADD SWAP1 POP DUP2 DUP2 SUB PUSH0 DUP4 ADD MSTORE PUSH2 0xE13 DUP2 PUSH2 0xDDA JUMP JUMPDEST SWAP1 POP SWAP2 SWAP1 POP JUMP JUMPDEST PUSH32 0x4E487B7100000000000000000000000000000000000000000000000000000000 PUSH0 MSTORE PUSH1 0x11 PUSH1 0x4 MSTORE PUSH1 0x24 PUSH0 REVERT JUMPDEST PUSH0 PUSH2 0xE51 DUP3 PUSH2 0x718 JUMP JUMPDEST SWAP2 POP PUSH2 0xE5C DUP4 PUSH2 0x718 JUMP JUMPDEST SWAP3 POP DUP3 DUP3 ADD SWAP1 POP DUP1 DUP3 GT ISZERO PUSH2 0xE74 JUMPI PUSH2 0xE73 PUSH2 0xE1A JUMP JUMPDEST JUMPDEST SWAP3 SWAP2 POP POP JUMP JUMPDEST PUSH2 0xE83 DUP2 PUSH2 0x718 JUMP JUMPDEST DUP3 MSTORE POP POP JUMP JUMPDEST PUSH0 PUSH1 0x40 DUP3 ADD SWAP1 POP PUSH2 0xE9C PUSH0 DUP4 ADD DUP6 PUSH2 0x868 JUMP JUMPDEST PUSH2 0xEA9 PUSH1 0x20 DUP4 ADD DUP5 PUSH2 0xE7A JUMP JUMPDEST SWAP4 SWAP3 POP POP POP JUMP JUMPDEST PUSH2 0x4BB7 DUP1 PUSH2 0xEBD PUSH0 CODECOPY PUSH0 RETURN INVALID PUSH1 0x80 PUSH1 0x40 MSTORE PUSH1 0x4 CALLDATASIZE LT PUSH2 0x25E JUMPI PUSH0 CALLDATALOAD PUSH1 0xE0 SHR DUP1 PUSH4 0x6447C35D GT PUSH2 0x143 JUMPI DUP1 PUSH4 0xA945BF80 GT PUSH2 0xB5 JUMPI DUP1 PUSH4 0xD5ABEB01 GT PUSH2 0x79 JUMPI DUP1 PUSH4 0xD5ABEB01 EQ PUSH2 0x94D JUMPI DUP1 PUSH4 0xD79779B2 EQ PUSH2 0x977 JUMPI DUP1 PUSH4 0xE33B7DE3 EQ PUSH2 0x9B3 JUMPI DUP1 PUSH4 0xE985E9C5 EQ PUSH2 0x9DD JUMPI DUP1 PUSH4 0xF242432A EQ PUSH2 0xA19 JUMPI DUP1 PUSH4 0xF2FDE38B EQ PUSH2 0xA41 JUMPI PUSH2 0x2A5 JUMP JUMPDEST DUP1 PUSH4 0xA945BF80 EQ PUSH2 0x845 JUMPI DUP1 PUSH4 0xBCC9CA5B EQ PUSH2 0x86F JUMPI DUP1 PUSH4 0xBD85B039 EQ PUSH2 0x899 JUMPI DUP1 PUSH4 0xC45AC050 EQ PUSH2 0x8D5 JUMPI DUP1 PUSH4 0xCE7C2AC2 EQ PUSH2 0x911 JUMPI PUSH2 0x2A5 JUMP JUMPDEST DUP1 PUSH4 0x97959F6D GT PUSH2 0x107 JUMPI DUP1 PUSH4 0x97959F6D EQ PUSH2 0x723 JUMPI DUP1 PUSH4 0x9852595C EQ PUSH2 0x75F JUMPI DUP1 PUSH4 0x98AE99A8 EQ PUSH2 0x79B JUMPI DUP1 PUSH4 0xA22CB465 EQ PUSH2 0x7B7 JUMPI DUP1 PUSH4 0xA24E5153 EQ PUSH2 0x7DF JUMPI DUP1 PUSH4 0xA3F8EACE EQ PUSH2 0x809 JUMPI PUSH2 0x2A5 JUMP JUMPDEST DUP1 PUSH4 0x6447C35D EQ PUSH2 0x669 JUMPI DUP1 PUSH4 0x715018A6 EQ PUSH2 0x691 JUMPI DUP1 PUSH4 0x8456CB59 EQ PUSH2 0x6A7 JUMPI DUP1 PUSH4 0x8B83209B EQ PUSH2 0x6BD JUMPI DUP1 PUSH4 0x8DA5CB5B EQ PUSH2 0x6F9 JUMPI PUSH2 0x2A5 JUMP JUMPDEST DUP1 PUSH4 0x2EB2C2D6 GT PUSH2 0x1DC JUMPI DUP1 PUSH4 0x453C2310 GT PUSH2 0x1A0 JUMPI DUP1 PUSH4 0x453C2310 EQ PUSH2 0x54D JUMPI DUP1 PUSH4 0x48B75044 EQ PUSH2 0x577 JUMPI DUP1 PUSH4 0x4E1273F4 EQ PUSH2 0x59F JUMPI DUP1 PUSH4 0x4F558E79 EQ PUSH2 0x5DB JUMPI DUP1 PUSH4 0x51CFF8D9 EQ PUSH2 0x617 JUMPI DUP1 PUSH4 0x5C975ABB EQ PUSH2 0x63F JUMPI PUSH2 0x2A5 JUMP JUMPDEST DUP1 PUSH4 0x2EB2C2D6 EQ PUSH2 0x481 JUMPI DUP1 PUSH4 0x2F48DE79 EQ PUSH2 0x4A9 JUMPI DUP1 PUSH4 0x3A98EF39 EQ PUSH2 0x4D1 JUMPI DUP1 PUSH4 0x3F4BA83A EQ PUSH2 0x4FB JUMPI DUP1 PUSH4 0x406072A9 EQ PUSH2 0x511 JUMPI PUSH2 0x2A5 JUMP JUMPDEST DUP1 PUSH4 0x128AC91B GT PUSH2 0x223 JUMPI DUP1 PUSH4 0x128AC91B EQ PUSH2 0x3AF JUMPI DUP1 PUSH4 0x18160DDD EQ PUSH2 0x3CB JUMPI DUP1 PUSH4 0x19165587 EQ PUSH2 0x3F5 JUMPI DUP1 PUSH4 0x1F7FDFFA EQ PUSH2 0x41D JUMPI DUP1 PUSH4 0x2848AEAF EQ PUSH2 0x445 JUMPI PUSH2 0x2A5 JUMP JUMPDEST DUP1 PUSH3 0xFDD58E EQ PUSH2 0x2A9 JUMPI DUP1 PUSH4 0x1FFC9A7 EQ PUSH2 0x2E5 JUMPI DUP1 PUSH4 0x2FE5305 EQ PUSH2 0x321 JUMPI DUP1 PUSH4 0x85C9BAC EQ PUSH2 0x349 JUMPI DUP1 PUSH4 0xE89341C EQ PUSH2 0x373 JUMPI PUSH2 0x2A5 JUMP JUMPDEST CALLDATASIZE PUSH2 0x2A5 JUMPI PUSH32 0x6EF95F06320E7A25A04A175CA677B7052BDD97131872C2192525A629F51BE770 PUSH2 0x28C PUSH2 0xA69 JUMP JUMPDEST CALLVALUE PUSH1 0x40 MLOAD PUSH2 0x29B SWAP3 SWAP2 SWAP1 PUSH2 0x3253 JUMP JUMPDEST PUSH1 0x40 MLOAD DUP1 SWAP2 SUB SWAP1 LOG1 STOP JUMPDEST PUSH0 DUP1 REVERT JUMPDEST CALLVALUE DUP1 ISZERO PUSH2 0x2B4 JUMPI PUSH0 DUP1 REVERT JUMPDEST POP PUSH2 0x2CF PUSH1 0x4 DUP1 CALLDATASIZE SUB DUP2 ADD SWAP1 PUSH2 0x2CA SWAP2 SWAP1 PUSH2 0x32DF JUMP JUMPDEST PUSH2 0xA70 JUMP JUMPDEST PUSH1 0x40 MLOAD PUSH2 0x2DC SWAP2 SWAP1 PUSH2 0x331D JUMP JUMPDEST PUSH1 0x40 MLOAD DUP1 SWAP2 SUB SWAP1 RETURN JUMPDEST CALLVALUE DUP1 ISZERO PUSH2 0x2F0 JUMPI PUSH0 DUP1 REVERT JUMPDEST POP PUSH2 0x30B PUSH1 0x4 DUP1 CALLDATASIZE SUB DUP2 ADD SWAP1 PUSH2 0x306 SWAP2 SWAP1 PUSH2 0x338B JUMP JUMPDEST PUSH2 0xAC5 JUMP JUMPDEST PUSH1 0x40 MLOAD PUSH2 0x318 SWAP2 SWAP1 PUSH2 0x33D0 JUMP JUMPDEST PUSH1 0x40 MLOAD DUP1 SWAP2 SUB SWAP1 RETURN JUMPDEST CALLVALUE DUP1 ISZERO PUSH2 0x32C JUMPI PUSH0 DUP1 REVERT JUMPDEST POP PUSH2 0x347 PUSH1 0x4 DUP1 CALLDATASIZE SUB DUP2 ADD SWAP1 PUSH2 0x342 SWAP2 SWAP1 PUSH2 0x3525 JUMP JUMPDEST PUSH2 0xBA6 JUMP JUMPDEST STOP JUMPDEST CALLVALUE DUP1 ISZERO PUSH2 0x354 JUMPI PUSH0 DUP1 REVERT JUMPDEST POP PUSH2 0x35D PUSH2 0xBBA JUMP JUMPDEST PUSH1 0x40 MLOAD PUSH2 0x36A SWAP2 SWAP1 PUSH2 0x33D0 JUMP JUMPDEST PUSH1 0x40 MLOAD DUP1 SWAP2 SUB SWAP1 RETURN JUMPDEST CALLVALUE DUP1 ISZERO PUSH2 0x37E JUMPI PUSH0 DUP1 REVERT JUMPDEST POP PUSH2 0x399 PUSH1 0x4 DUP1 CALLDATASIZE SUB DUP2 ADD SWAP1 PUSH2 0x394 SWAP2 SWAP1 PUSH2 0x356C JUMP JUMPDEST PUSH2 0xBCD JUMP JUMPDEST PUSH1 0x40 MLOAD PUSH2 0x3A6 SWAP2 SWAP1 PUSH2 0x35F7 JUMP JUMPDEST PUSH1 0x40 MLOAD DUP1 SWAP2 SUB SWAP1 RETURN JUMPDEST PUSH2 0x3C9 PUSH1 0x4 DUP1 CALLDATASIZE SUB DUP2 ADD SWAP1 PUSH2 0x3C4 SWAP2 SWAP1 PUSH2 0x3617 JUMP JUMPDEST PUSH2 0xC50 JUMP JUMPDEST STOP JUMPDEST CALLVALUE DUP1 ISZERO PUSH2 0x3D6 JUMPI PUSH0 DUP1 REVERT JUMPDEST POP PUSH2 0x3DF PUSH2 0xD85 JUMP JUMPDEST PUSH1 0x40 MLOAD PUSH2 0x3EC SWAP2 SWAP1 PUSH2 0x331D JUMP JUMPDEST PUSH1 0x40 MLOAD DUP1 SWAP2 SUB SWAP1 RETURN JUMPDEST CALLVALUE DUP1 ISZERO PUSH2 0x400 JUMPI PUSH0 DUP1 REVERT JUMPDEST POP PUSH2 0x41B PUSH1 0x4 DUP1 CALLDATASIZE SUB DUP2 ADD SWAP1 PUSH2 0x416 SWAP2 SWAP1 PUSH2 0x3690 JUMP JUMPDEST PUSH2 0xD8E JUMP JUMPDEST STOP JUMPDEST CALLVALUE DUP1 ISZERO PUSH2 0x428 JUMPI PUSH0 DUP1 REVERT JUMPDEST POP PUSH2 0x443 PUSH1 0x4 DUP1 CALLDATASIZE SUB DUP2 ADD SWAP1 PUSH2 0x43E SWAP2 SWAP1 PUSH2 0x381D JUMP JUMPDEST PUSH2 0xF04 JUMP JUMPDEST STOP JUMPDEST CALLVALUE DUP1 ISZERO PUSH2 0x450 JUMPI PUSH0 DUP1 REVERT JUMPDEST POP PUSH2 0x46B PUSH1 0x4 DUP1 CALLDATASIZE SUB DUP2 ADD SWAP1 PUSH2 0x466 SWAP2 SWAP1 PUSH2 0x38D5 JUMP JUMPDEST PUSH2 0xF1E JUMP JUMPDEST PUSH1 0x40 MLOAD PUSH2 0x478 SWAP2 SWAP1 PUSH2 0x33D0 JUMP JUMPDEST PUSH1 0x40 MLOAD DUP1 SWAP2 SUB SWAP1 RETURN JUMPDEST CALLVALUE DUP1 ISZERO PUSH2 0x48C JUMPI PUSH0 DUP1 REVERT JUMPDEST POP PUSH2 0x4A7 PUSH1 0x4 DUP1 CALLDATASIZE SUB DUP2 ADD SWAP1 PUSH2 0x4A2 SWAP2 SWAP1 PUSH2 0x3900 JUMP JUMPDEST PUSH2 0xF3B JUMP JUMPDEST STOP JUMPDEST CALLVALUE DUP1 ISZERO PUSH2 0x4B4 JUMPI PUSH0 DUP1 REVERT JUMPDEST POP PUSH2 0x4CF PUSH1 0x4 DUP1 CALLDATASIZE SUB DUP2 ADD SWAP1 PUSH2 0x4CA SWAP2 SWAP1 PUSH2 0x39F5 JUMP JUMPDEST PUSH2 0xFE2 JUMP JUMPDEST STOP JUMPDEST CALLVALUE DUP1 ISZERO PUSH2 0x4DC JUMPI PUSH0 DUP1 REVERT JUMPDEST POP PUSH2 0x4E5 PUSH2 0x1021 JUMP JUMPDEST PUSH1 0x40 MLOAD PUSH2 0x4F2 SWAP2 SWAP1 PUSH2 0x331D JUMP JUMPDEST PUSH1 0x40 MLOAD DUP1 SWAP2 SUB SWAP1 RETURN JUMPDEST CALLVALUE DUP1 ISZERO PUSH2 0x506 JUMPI PUSH0 DUP1 REVERT JUMPDEST POP PUSH2 0x50F PUSH2 0x102A JUMP JUMPDEST STOP JUMPDEST CALLVALUE DUP1 ISZERO PUSH2 0x51C JUMPI PUSH0 DUP1 REVERT JUMPDEST POP PUSH2 0x537 PUSH1 0x4 DUP1 CALLDATASIZE SUB DUP2 ADD SWAP1 PUSH2 0x532 SWAP2 SWAP1 PUSH2 0x3A6E JUMP JUMPDEST PUSH2 0x103C JUMP JUMPDEST PUSH1 0x40 MLOAD PUSH2 0x544 SWAP2 SWAP1 PUSH2 0x331D JUMP JUMPDEST PUSH1 0x40 MLOAD DUP1 SWAP2 SUB SWAP1 RETURN JUMPDEST CALLVALUE DUP1 ISZERO PUSH2 0x558 JUMPI PUSH0 DUP1 REVERT JUMPDEST POP PUSH2 0x561 PUSH2 0x10BE JUMP JUMPDEST PUSH1 0x40 MLOAD PUSH2 0x56E SWAP2 SWAP1 PUSH2 0x331D JUMP JUMPDEST PUSH1 0x40 MLOAD DUP1 SWAP2 SUB SWAP1 RETURN JUMPDEST CALLVALUE DUP1 ISZERO PUSH2 0x582 JUMPI PUSH0 DUP1 REVERT JUMPDEST POP PUSH2 0x59D PUSH1 0x4 DUP1 CALLDATASIZE SUB DUP2 ADD SWAP1 PUSH2 0x598 SWAP2 SWAP1 PUSH2 0x3A6E JUMP JUMPDEST PUSH2 0x10C4 JUMP JUMPDEST STOP JUMPDEST CALLVALUE DUP1 ISZERO PUSH2 0x5AA JUMPI PUSH0 DUP1 REVERT JUMPDEST POP PUSH2 0x5C5 PUSH1 0x4 DUP1 CALLDATASIZE SUB DUP2 ADD SWAP1 PUSH2 0x5C0 SWAP2 SWAP1 PUSH2 0x3B6C JUMP JUMPDEST PUSH2 0x12CA JUMP JUMPDEST PUSH1 0x40 MLOAD PUSH2 0x5D2 SWAP2 SWAP1 PUSH2 0x3C99 JUMP JUMPDEST PUSH1 0x40 MLOAD DUP1 SWAP2 SUB SWAP1 RETURN JUMPDEST CALLVALUE DUP1 ISZERO PUSH2 0x5E6 JUMPI PUSH0 DUP1 REVERT JUMPDEST POP PUSH2 0x601 PUSH1 0x4 DUP1 CALLDATASIZE SUB DUP2 ADD SWAP1 PUSH2 0x5FC SWAP2 SWAP1 PUSH2 0x356C JUMP JUMPDEST PUSH2 0x13D1 JUMP JUMPDEST PUSH1 0x40 MLOAD PUSH2 0x60E SWAP2 SWAP1 PUSH2 0x33D0 JUMP JUMPDEST PUSH1 0x40 MLOAD DUP1 SWAP2 SUB SWAP1 RETURN JUMPDEST CALLVALUE DUP1 ISZERO PUSH2 0x622 JUMPI PUSH0 DUP1 REVERT JUMPDEST POP PUSH2 0x63D PUSH1 0x4 DUP1 CALLDATASIZE SUB DUP2 ADD SWAP1 PUSH2 0x638 SWAP2 SWAP1 PUSH2 0x38D5 JUMP JUMPDEST PUSH2 0x13E4 JUMP JUMPDEST STOP JUMPDEST CALLVALUE DUP1 ISZERO PUSH2 0x64A JUMPI PUSH0 DUP1 REVERT JUMPDEST POP PUSH2 0x653 PUSH2 0x1438 JUMP JUMPDEST PUSH1 0x40 MLOAD PUSH2 0x660 SWAP2 SWAP1 PUSH2 0x33D0 JUMP JUMPDEST PUSH1 0x40 MLOAD DUP1 SWAP2 SUB SWAP1 RETURN JUMPDEST CALLVALUE DUP1 ISZERO PUSH2 0x674 JUMPI PUSH0 DUP1 REVERT JUMPDEST POP PUSH2 0x68F PUSH1 0x4 DUP1 CALLDATASIZE SUB DUP2 ADD SWAP1 PUSH2 0x68A SWAP2 SWAP1 PUSH2 0x3D12 JUMP JUMPDEST PUSH2 0x144E JUMP JUMPDEST STOP JUMPDEST CALLVALUE DUP1 ISZERO PUSH2 0x69C JUMPI PUSH0 DUP1 REVERT JUMPDEST POP PUSH2 0x6A5 PUSH2 0x14F1 JUMP JUMPDEST STOP JUMPDEST CALLVALUE DUP1 ISZERO PUSH2 0x6B2 JUMPI PUSH0 DUP1 REVERT JUMPDEST POP PUSH2 0x6BB PUSH2 0x1504 JUMP JUMPDEST STOP JUMPDEST CALLVALUE DUP1 ISZERO PUSH2 0x6C8 JUMPI PUSH0 DUP1 REVERT JUMPDEST POP PUSH2 0x6E3 PUSH1 0x4 DUP1 CALLDATASIZE SUB DUP2 ADD SWAP1 PUSH2 0x6DE SWAP2 SWAP1 PUSH2 0x356C JUMP JUMPDEST PUSH2 0x1516 JUMP JUMPDEST PUSH1 0x40 MLOAD PUSH2 0x6F0 SWAP2 SWAP1 PUSH2 0x3D5D JUMP JUMPDEST PUSH1 0x40 MLOAD DUP1 SWAP2 SUB SWAP1 RETURN JUMPDEST CALLVALUE DUP1 ISZERO PUSH2 0x704 JUMPI PUSH0 DUP1 REVERT JUMPDEST POP PUSH2 0x70D PUSH2 0x155A JUMP JUMPDEST PUSH1 0x40 MLOAD PUSH2 0x71A SWAP2 SWAP1 PUSH2 0x3D5D JUMP JUMPDEST PUSH1 0x40 MLOAD DUP1 SWAP2 SUB SWAP1 RETURN JUMPDEST CALLVALUE DUP1 ISZERO PUSH2 0x72E JUMPI PUSH0 DUP1 REVERT JUMPDEST POP PUSH2 0x749 PUSH1 0x4 DUP1 CALLDATASIZE SUB DUP2 ADD SWAP1 PUSH2 0x744 SWAP2 SWAP1 PUSH2 0x38D5 JUMP JUMPDEST PUSH2 0x1582 JUMP JUMPDEST PUSH1 0x40 MLOAD PUSH2 0x756 SWAP2 SWAP1 PUSH2 0x331D JUMP JUMPDEST PUSH1 0x40 MLOAD DUP1 SWAP2 SUB SWAP1 RETURN JUMPDEST CALLVALUE DUP1 ISZERO PUSH2 0x76A JUMPI PUSH0 DUP1 REVERT JUMPDEST POP PUSH2 0x785 PUSH1 0x4 DUP1 CALLDATASIZE SUB DUP2 ADD SWAP1 PUSH2 0x780 SWAP2 SWAP1 PUSH2 0x38D5 JUMP JUMPDEST PUSH2 0x1597 JUMP JUMPDEST PUSH1 0x40 MLOAD PUSH2 0x792 SWAP2 SWAP1 PUSH2 0x331D JUMP JUMPDEST PUSH1 0x40 MLOAD DUP1 SWAP2 SUB SWAP1 RETURN JUMPDEST PUSH2 0x7B5 PUSH1 0x4 DUP1 CALLDATASIZE SUB DUP2 ADD SWAP1 PUSH2 0x7B0 SWAP2 SWAP1 PUSH2 0x3617 JUMP JUMPDEST PUSH2 0x15DD JUMP JUMPDEST STOP JUMPDEST CALLVALUE DUP1 ISZERO PUSH2 0x7C2 JUMPI PUSH0 DUP1 REVERT JUMPDEST POP PUSH2 0x7DD PUSH1 0x4 DUP1 CALLDATASIZE SUB DUP2 ADD SWAP1 PUSH2 0x7D8 SWAP2 SWAP1 PUSH2 0x3D76 JUMP JUMPDEST PUSH2 0x1688 JUMP JUMPDEST STOP JUMPDEST CALLVALUE DUP1 ISZERO PUSH2 0x7EA JUMPI PUSH0 DUP1 REVERT JUMPDEST POP PUSH2 0x7F3 PUSH2 0x169E JUMP JUMPDEST PUSH1 0x40 MLOAD PUSH2 0x800 SWAP2 SWAP1 PUSH2 0x331D JUMP JUMPDEST PUSH1 0x40 MLOAD DUP1 SWAP2 SUB SWAP1 RETURN JUMPDEST CALLVALUE DUP1 ISZERO PUSH2 0x814 JUMPI PUSH0 DUP1 REVERT JUMPDEST POP PUSH2 0x82F PUSH1 0x4 DUP1 CALLDATASIZE SUB DUP2 ADD SWAP1 PUSH2 0x82A SWAP2 SWAP1 PUSH2 0x38D5 JUMP JUMPDEST PUSH2 0x16A4 JUMP JUMPDEST PUSH1 0x40 MLOAD PUSH2 0x83C SWAP2 SWAP1 PUSH2 0x331D JUMP JUMPDEST PUSH1 0x40 MLOAD DUP1 SWAP2 SUB SWAP1 RETURN JUMPDEST CALLVALUE DUP1 ISZERO PUSH2 0x850 JUMPI PUSH0 DUP1 REVERT JUMPDEST POP PUSH2 0x859 PUSH2 0x16D6 JUMP JUMPDEST PUSH1 0x40 MLOAD PUSH2 0x866 SWAP2 SWAP1 PUSH2 0x331D JUMP JUMPDEST PUSH1 0x40 MLOAD DUP1 SWAP2 SUB SWAP1 RETURN JUMPDEST CALLVALUE DUP1 ISZERO PUSH2 0x87A JUMPI PUSH0 DUP1 REVERT JUMPDEST POP PUSH2 0x883 PUSH2 0x16DC JUMP JUMPDEST PUSH1 0x40 MLOAD PUSH2 0x890 SWAP2 SWAP1 PUSH2 0x33D0 JUMP JUMPDEST PUSH1 0x40 MLOAD DUP1 SWAP2 SUB SWAP1 RETURN JUMPDEST CALLVALUE DUP1 ISZERO PUSH2 0x8A4 JUMPI PUSH0 DUP1 REVERT JUMPDEST POP PUSH2 0x8BF PUSH1 0x4 DUP1 CALLDATASIZE SUB DUP2 ADD SWAP1 PUSH2 0x8BA SWAP2 SWAP1 PUSH2 0x356C JUMP JUMPDEST PUSH2 0x16EE JUMP JUMPDEST PUSH1 0x40 MLOAD PUSH2 0x8CC SWAP2 SWAP1 PUSH2 0x331D JUMP JUMPDEST PUSH1 0x40 MLOAD DUP1 SWAP2 SUB SWAP1 RETURN JUMPDEST CALLVALUE DUP1 ISZERO PUSH2 0x8E0 JUMPI PUSH0 DUP1 REVERT JUMPDEST POP PUSH2 0x8FB PUSH1 0x4 DUP1 CALLDATASIZE SUB DUP2 ADD SWAP1 PUSH2 0x8F6 SWAP2 SWAP1 PUSH2 0x3A6E JUMP JUMPDEST PUSH2 0x1708 JUMP JUMPDEST PUSH1 0x40 MLOAD PUSH2 0x908 SWAP2 SWAP1 PUSH2 0x331D JUMP JUMPDEST PUSH1 0x40 MLOAD DUP1 SWAP2 SUB SWAP1 RETURN JUMPDEST CALLVALUE DUP1 ISZERO PUSH2 0x91C JUMPI PUSH0 DUP1 REVERT JUMPDEST POP PUSH2 0x937 PUSH1 0x4 DUP1 CALLDATASIZE SUB DUP2 ADD SWAP1 PUSH2 0x932 SWAP2 SWAP1 PUSH2 0x38D5 JUMP JUMPDEST PUSH2 0x17B4 JUMP JUMPDEST PUSH1 0x40 MLOAD PUSH2 0x944 SWAP2 SWAP1 PUSH2 0x331D JUMP JUMPDEST PUSH1 0x40 MLOAD DUP1 SWAP2 SUB SWAP1 RETURN JUMPDEST CALLVALUE DUP1 ISZERO PUSH2 0x958 JUMPI PUSH0 DUP1 REVERT JUMPDEST POP PUSH2 0x961 PUSH2 0x17FA JUMP JUMPDEST PUSH1 0x40 MLOAD PUSH2 0x96E SWAP2 SWAP1 PUSH2 0x331D JUMP JUMPDEST PUSH1 0x40 MLOAD DUP1 SWAP2 SUB SWAP1 RETURN JUMPDEST CALLVALUE DUP1 ISZERO PUSH2 0x982 JUMPI PUSH0 DUP1 REVERT JUMPDEST POP PUSH2 0x99D PUSH1 0x4 DUP1 CALLDATASIZE SUB DUP2 ADD SWAP1 PUSH2 0x998 SWAP2 SWAP1 PUSH2 0x3DB4 JUMP JUMPDEST PUSH2 0x1800 JUMP JUMPDEST PUSH1 0x40 MLOAD PUSH2 0x9AA SWAP2 SWAP1 PUSH2 0x331D JUMP JUMPDEST PUSH1 0x40 MLOAD DUP1 SWAP2 SUB SWAP1 RETURN JUMPDEST CALLVALUE DUP1 ISZERO PUSH2 0x9BE JUMPI PUSH0 DUP1 REVERT JUMPDEST POP PUSH2 0x9C7 PUSH2 0x1846 JUMP JUMPDEST PUSH1 0x40 MLOAD PUSH2 0x9D4 SWAP2 SWAP1 PUSH2 0x331D JUMP JUMPDEST PUSH1 0x40 MLOAD DUP1 SWAP2 SUB SWAP1 RETURN JUMPDEST CALLVALUE DUP1 ISZERO PUSH2 0x9E8 JUMPI PUSH0 DUP1 REVERT JUMPDEST POP PUSH2 0xA03 PUSH1 0x4 DUP1 CALLDATASIZE SUB DUP2 ADD SWAP1 PUSH2 0x9FE SWAP2 SWAP1 PUSH2 0x3DDF JUMP JUMPDEST PUSH2 0x184F JUMP JUMPDEST PUSH1 0x40 MLOAD PUSH2 0xA10 SWAP2 SWAP1 PUSH2 0x33D0 JUMP JUMPDEST PUSH1 0x40 MLOAD DUP1 SWAP2 SUB SWAP1 RETURN JUMPDEST CALLVALUE DUP1 ISZERO PUSH2 0xA24 JUMPI PUSH0 DUP1 REVERT JUMPDEST POP PUSH2 0xA3F PUSH1 0x4 DUP1 CALLDATASIZE SUB DUP2 ADD SWAP1 PUSH2 0xA3A SWAP2 SWAP1 PUSH2 0x3E1D JUMP JUMPDEST PUSH2 0x18DD JUMP JUMPDEST STOP JUMPDEST CALLVALUE DUP1 ISZERO PUSH2 0xA4C JUMPI PUSH0 DUP1 REVERT JUMPDEST POP PUSH2 0xA67 PUSH1 0x4 DUP1 CALLDATASIZE SUB DUP2 ADD SWAP1 PUSH2 0xA62 SWAP2 SWAP1 PUSH2 0x38D5 JUMP JUMPDEST PUSH2 0x1984 JUMP JUMPDEST STOP JUMPDEST PUSH0 CALLER SWAP1 POP SWAP1 JUMP JUMPDEST PUSH0 DUP1 PUSH0 DUP4 DUP2 MSTORE PUSH1 0x20 ADD SWAP1 DUP2 MSTORE PUSH1 0x20 ADD PUSH0 KECCAK256 PUSH0 DUP5 PUSH20 0xFFFFFFFFFFFFFFFFFFFFFFFFFFFFFFFFFFFFFFFF AND PUSH20 0xFFFFFFFFFFFFFFFFFFFFFFFFFFFFFFFFFFFFFFFF AND DUP2 MSTORE PUSH1 0x20 ADD SWAP1 DUP2 MSTORE PUSH1 0x20 ADD PUSH0 KECCAK256 SLOAD SWAP1 POP SWAP3 SWAP2 POP POP JUMP JUMPDEST PUSH0 PUSH32 0xD9B67A2600000000000000000000000000000000000000000000000000000000 PUSH28 0xFFFFFFFFFFFFFFFFFFFFFFFFFFFFFFFFFFFFFFFFFFFFFFFFFFFFFFFF NOT AND DUP3 PUSH28 0xFFFFFFFFFFFFFFFFFFFFFFFFFFFFFFFFFFFFFFFFFFFFFFFFFFFFFFFF NOT AND EQ DUP1 PUSH2 0xB8F JUMPI POP PUSH32 0xE89341C00000000000000000000000000000000000000000000000000000000 PUSH28 0xFFFFFFFFFFFFFFFFFFFFFFFFFFFFFFFFFFFFFFFFFFFFFFFFFFFFFFFF NOT AND DUP3 PUSH28 0xFFFFFFFFFFFFFFFFFFFFFFFFFFFFFFFFFFFFFFFFFFFFFFFFFFFFFFFF NOT AND EQ JUMPDEST DUP1 PUSH2 0xB9F JUMPI POP PUSH2 0xB9E DUP3 PUSH2 0x1A08 JUMP JUMPDEST JUMPDEST SWAP1 POP SWAP2 SWAP1 POP JUMP JUMPDEST PUSH2 0xBAE PUSH2 0x1A71 JUMP JUMPDEST PUSH2 0xBB7 DUP2 PUSH2 0x1AF8 JUMP JUMPDEST POP JUMP JUMPDEST PUSH1 0x11 PUSH1 0x1 SWAP1 SLOAD SWAP1 PUSH2 0x100 EXP SWAP1 DIV PUSH1 0xFF AND DUP2 JUMP JUMPDEST PUSH1 0x60 PUSH2 0xBD8 DUP3 PUSH2 0x13D1 JUMP JUMPDEST PUSH2 0xC17 JUMPI PUSH1 0x40 MLOAD PUSH32 0x8C379A000000000000000000000000000000000000000000000000000000000 DUP2 MSTORE PUSH1 0x4 ADD PUSH2 0xC0E SWAP1 PUSH2 0x3EFA JUMP JUMPDEST PUSH1 0x40 MLOAD DUP1 SWAP2 SUB SWAP1 REVERT JUMPDEST PUSH2 0xC20 DUP3 PUSH2 0x1B0B JUMP JUMPDEST PUSH2 0xC29 DUP4 PUSH2 0x1B9D JUMP JUMPDEST PUSH1 0x40 MLOAD PUSH1 0x20 ADD PUSH2 0xC3A SWAP3 SWAP2 SWAP1 PUSH2 0x3F9C JUMP JUMPDEST PUSH1 0x40 MLOAD PUSH1 0x20 DUP2 DUP4 SUB SUB DUP2 MSTORE SWAP1 PUSH1 0x40 MSTORE SWAP1 POP SWAP2 SWAP1 POP JUMP JUMPDEST PUSH1 0x11 PUSH1 0x1 SWAP1 SLOAD SWAP1 PUSH2 0x100 EXP SWAP1 DIV PUSH1 0xFF AND PUSH2 0xC9F JUMPI PUSH1 0x40 MLOAD PUSH32 0x8C379A000000000000000000000000000000000000000000000000000000000 DUP2 MSTORE PUSH1 0x4 ADD PUSH2 0xC96 SWAP1 PUSH2 0x4014 JUMP JUMPDEST PUSH1 0x40 MLOAD DUP1 SWAP2 SUB SWAP1 REVERT JUMPDEST PUSH1 0x12 PUSH0 CALLER PUSH20 0xFFFFFFFFFFFFFFFFFFFFFFFFFFFFFFFFFFFFFFFF AND PUSH20 0xFFFFFFFFFFFFFFFFFFFFFFFFFFFFFFFFFFFFFFFF AND DUP2 MSTORE PUSH1 0x20 ADD SWAP1 DUP2 MSTORE PUSH1 0x20 ADD PUSH0 KECCAK256 PUSH0 SWAP1 SLOAD SWAP1 PUSH2 0x100 EXP SWAP1 DIV PUSH1 0xFF AND PUSH2 0xD28 JUMPI PUSH1 0x40 MLOAD PUSH32 0x8C379A000000000000000000000000000000000000000000000000000000000 DUP2 MSTORE PUSH1 0x4 ADD PUSH2 0xD1F SWAP1 PUSH2 0x407C JUMP JUMPDEST PUSH1 0x40 MLOAD DUP1 SWAP2 SUB SWAP1 REVERT JUMPDEST DUP1 PUSH1 0xE SLOAD PUSH2 0xD36 SWAP2 SWAP1 PUSH2 0x40C7 JUMP JUMPDEST CALLVALUE EQ PUSH2 0xD77 JUMPI PUSH1 0x40 MLOAD PUSH32 0x8C379A000000000000000000000000000000000000000000000000000000000 DUP2 MSTORE PUSH1 0x4 ADD PUSH2 0xD6E SWAP1 PUSH2 0x4152 JUMP JUMPDEST PUSH1 0x40 MLOAD DUP1 SWAP2 SUB SWAP1 REVERT JUMPDEST PUSH2 0xD81 DUP3 DUP3 PUSH2 0x1C67 JUMP JUMPDEST POP POP JUMP JUMPDEST PUSH0 PUSH1 0x5 SLOAD SWAP1 POP SWAP1 JUMP JUMPDEST PUSH0 PUSH1 0x8 PUSH0 DUP4 PUSH20 0xFFFFFFFFFFFFFFFFFFFFFFFFFFFFFFFFFFFFFFFF AND PUSH20 0xFFFFFFFFFFFFFFFFFFFFFFFFFFFFFFFFFFFFFFFF AND DUP2 MSTORE PUSH1 0x20 ADD SWAP1 DUP2 MSTORE PUSH1 0x20 ADD PUSH0 KECCAK256 SLOAD GT PUSH2 0xE0D JUMPI PUSH1 0x40 MLOAD PUSH32 0x8C379A000000000000000000000000000000000000000000000000000000000 DUP2 MSTORE PUSH1 0x4 ADD PUSH2 0xE04 SWAP1 PUSH2 0x41E0 JUMP JUMPDEST PUSH1 0x40 MLOAD DUP1 SWAP2 SUB SWAP1 REVERT JUMPDEST PUSH0 PUSH2 0xE17 DUP3 PUSH2 0x16A4 JUMP JUMPDEST SWAP1 POP PUSH0 DUP2 SUB PUSH2 0xE5B JUMPI PUSH1 0x40 MLOAD PUSH32 0x8C379A000000000000000000000000000000000000000000000000000000000 DUP2 MSTORE PUSH1 0x4 ADD PUSH2 0xE52 SWAP1 PUSH2 0x426E JUMP JUMPDEST PUSH1 0x40 MLOAD DUP1 SWAP2 SUB SWAP1 REVERT JUMPDEST DUP1 PUSH1 0x7 PUSH0 DUP3 DUP3 SLOAD PUSH2 0xE6C SWAP2 SWAP1 PUSH2 0x428C JUMP JUMPDEST SWAP3 POP POP DUP2 SWAP1 SSTORE POP DUP1 PUSH1 0x9 PUSH0 DUP5 PUSH20 0xFFFFFFFFFFFFFFFFFFFFFFFFFFFFFFFFFFFFFFFF AND PUSH20 0xFFFFFFFFFFFFFFFFFFFFFFFFFFFFFFFFFFFFFFFF AND DUP2 MSTORE PUSH1 0x20 ADD SWAP1 DUP2 MSTORE PUSH1 0x20 ADD PUSH0 KECCAK256 PUSH0 DUP3 DUP3 SLOAD ADD SWAP3 POP POP DUP2 SWAP1 SSTORE POP PUSH2 0xEC7 DUP3 DUP3 PUSH2 0x1DFF JUMP JUMPDEST PUSH32 0xDF20FD1E76BC69D672E4814FAFB2C449BBA3A5369D8359ADF9E05E6FDE87B056 DUP3 DUP3 PUSH1 0x40 MLOAD PUSH2 0xEF8 SWAP3 SWAP2 SWAP1 PUSH2 0x431A JUMP JUMPDEST PUSH1 0x40 MLOAD DUP1 SWAP2 SUB SWAP1 LOG1 POP POP JUMP JUMPDEST PUSH2 0xF0C PUSH2 0x1A71 JUMP JUMPDEST PUSH2 0xF18 DUP5 DUP5 DUP5 DUP5 PUSH2 0x1EC5 JUMP JUMPDEST POP POP POP POP JUMP JUMPDEST PUSH1 0x12 PUSH1 0x20 MSTORE DUP1 PUSH0 MSTORE PUSH1 0x40 PUSH0 KECCAK256 PUSH0 SWAP2 POP SLOAD SWAP1 PUSH2 0x100 EXP SWAP1 DIV PUSH1 0xFF AND DUP2 JUMP JUMPDEST PUSH0 PUSH2 0xF44 PUSH2 0xA69 JUMP JUMPDEST SWAP1 POP DUP1 PUSH20 0xFFFFFFFFFFFFFFFFFFFFFFFFFFFFFFFFFFFFFFFF AND DUP7 PUSH20 0xFFFFFFFFFFFFFFFFFFFFFFFFFFFFFFFFFFFFFFFF AND EQ ISZERO DUP1 ISZERO PUSH2 0xF89 JUMPI POP PUSH2 0xF87 DUP7 DUP3 PUSH2 0x184F JUMP JUMPDEST ISZERO JUMPDEST ISZERO PUSH2 0xFCD JUMPI DUP1 DUP7 PUSH1 0x40 MLOAD PUSH32 0xE237D92200000000000000000000000000000000000000000000000000000000 DUP2 MSTORE PUSH1 0x4 ADD PUSH2 0xFC4 SWAP3 SWAP2 SWAP1 PUSH2 0x4341 JUMP JUMPDEST PUSH1 0x40 MLOAD DUP1 SWAP2 SUB SWAP1 REVERT JUMPDEST PUSH2 0xFDA DUP7 DUP7 DUP7 DUP7 DUP7 PUSH2 0x1F48 JUMP JUMPDEST POP POP POP POP POP POP JUMP JUMPDEST PUSH2 0xFEA PUSH2 0x1A71 JUMP JUMPDEST DUP2 PUSH1 0x11 PUSH0 PUSH2 0x100 EXP DUP2 SLOAD DUP2 PUSH1 0xFF MUL NOT AND SWAP1 DUP4 ISZERO ISZERO MUL OR SWAP1 SSTORE POP DUP1 PUSH1 0x11 PUSH1 0x1 PUSH2 0x100 EXP DUP2 SLOAD DUP2 PUSH1 0xFF MUL NOT AND SWAP1 DUP4 ISZERO ISZERO MUL OR SWAP1 SSTORE POP POP POP JUMP JUMPDEST PUSH0 PUSH1 0x6 SLOAD SWAP1 POP SWAP1 JUMP JUMPDEST PUSH2 0x1032 PUSH2 0x1A71 JUMP JUMPDEST PUSH2 0x103A PUSH2 0x203C JUMP JUMPDEST JUMP JUMPDEST PUSH0 PUSH1 0xC PUSH0 DUP5 PUSH20 0xFFFFFFFFFFFFFFFFFFFFFFFFFFFFFFFFFFFFFFFF AND PUSH20 0xFFFFFFFFFFFFFFFFFFFFFFFFFFFFFFFFFFFFFFFF AND DUP2 MSTORE PUSH1 0x20 ADD SWAP1 DUP2 MSTORE PUSH1 0x20 ADD PUSH0 KECCAK256 PUSH0 DUP4 PUSH20 0xFFFFFFFFFFFFFFFFFFFFFFFFFFFFFFFFFFFFFFFF AND PUSH20 0xFFFFFFFFFFFFFFFFFFFFFFFFFFFFFFFFFFFFFFFF AND DUP2 MSTORE PUSH1 0x20 ADD SWAP1 DUP2 MSTORE PUSH1 0x20 ADD PUSH0 KECCAK256 SLOAD SWAP1 POP SWAP3 SWAP2 POP POP JUMP JUMPDEST PUSH1 0x10 SLOAD DUP2 JUMP JUMPDEST PUSH0 PUSH1 0x8 PUSH0 DUP4 PUSH20 0xFFFFFFFFFFFFFFFFFFFFFFFFFFFFFFFFFFFFFFFF AND PUSH20 0xFFFFFFFFFFFFFFFFFFFFFFFFFFFFFFFFFFFFFFFF AND DUP2 MSTORE PUSH1 0x20 ADD SWAP1 DUP2 MSTORE PUSH1 0x20 ADD PUSH0 KECCAK256 SLOAD GT PUSH2 0x1143 JUMPI PUSH1 0x40 MLOAD PUSH32 0x8C379A000000000000000000000000000000000000000000000000000000000 DUP2 MSTORE PUSH1 0x4 ADD PUSH2 0x113A SWAP1 PUSH2 0x41E0 JUMP JUMPDEST PUSH1 0x40 MLOAD DUP1 SWAP2 SUB SWAP1 REVERT JUMPDEST PUSH0 PUSH2 0x114E DUP4 DUP4 PUSH2 0x1708 JUMP JUMPDEST SWAP1 POP PUSH0 DUP2 SUB PUSH2 0x1192 JUMPI PUSH1 0x40 MLOAD PUSH32 0x8C379A000000000000000000000000000000000000000000000000000000000 DUP2 MSTORE PUSH1 0x4 ADD PUSH2 0x1189 SWAP1 PUSH2 0x426E JUMP JUMPDEST PUSH1 0x40 MLOAD DUP1 SWAP2 SUB SWAP1 REVERT JUMPDEST DUP1 PUSH1 0xB PUSH0 DUP6 PUSH20 0xFFFFFFFFFFFFFFFFFFFFFFFFFFFFFFFFFFFFFFFF AND PUSH20 0xFFFFFFFFFFFFFFFFFFFFFFFFFFFFFFFFFFFFFFFF AND DUP2 MSTORE PUSH1 0x20 ADD SWAP1 DUP2 MSTORE PUSH1 0x20 ADD PUSH0 KECCAK256 PUSH0 DUP3 DUP3 SLOAD PUSH2 0x11DE SWAP2 SWAP1 PUSH2 0x428C JUMP JUMPDEST SWAP3 POP POP DUP2 SWAP1 SSTORE POP DUP1 PUSH1 0xC PUSH0 DUP6 PUSH20 0xFFFFFFFFFFFFFFFFFFFFFFFFFFFFFFFFFFFFFFFF AND PUSH20 0xFFFFFFFFFFFFFFFFFFFFFFFFFFFFFFFFFFFFFFFF AND DUP2 MSTORE PUSH1 0x20 ADD SWAP1 DUP2 MSTORE PUSH1 0x20 ADD PUSH0 KECCAK256 PUSH0 DUP5 PUSH20 0xFFFFFFFFFFFFFFFFFFFFFFFFFFFFFFFFFFFFFFFF AND PUSH20 0xFFFFFFFFFFFFFFFFFFFFFFFFFFFFFFFFFFFFFFFF AND DUP2 MSTORE PUSH1 0x20 ADD SWAP1 DUP2 MSTORE PUSH1 0x20 ADD PUSH0 KECCAK256 PUSH0 DUP3 DUP3 SLOAD ADD SWAP3 POP POP DUP2 SWAP1 SSTORE POP PUSH2 0x1275 DUP4 DUP4 DUP4 PUSH2 0x209E JUMP JUMPDEST DUP3 PUSH20 0xFFFFFFFFFFFFFFFFFFFFFFFFFFFFFFFFFFFFFFFF AND PUSH32 0x3BE5B7A71E84ED12875D241991C70855AC5817D847039E17A9D895C1CEB0F18A DUP4 DUP4 PUSH1 0x40 MLOAD PUSH2 0x12BD SWAP3 SWAP2 SWAP1 PUSH2 0x3253 JUMP JUMPDEST PUSH1 0x40 MLOAD DUP1 SWAP2 SUB SWAP1 LOG2 POP POP POP JUMP JUMPDEST PUSH1 0x60 DUP2 MLOAD DUP4 MLOAD EQ PUSH2 0x1316 JUMPI DUP2 MLOAD DUP4 MLOAD PUSH1 0x40 MLOAD PUSH32 0x5B05999100000000000000000000000000000000000000000000000000000000 DUP2 MSTORE PUSH1 0x4 ADD PUSH2 0x130D SWAP3 SWAP2 SWAP1 PUSH2 0x4368 JUMP JUMPDEST PUSH1 0x40 MLOAD DUP1 SWAP2 SUB SWAP1 REVERT JUMPDEST PUSH0 DUP4 MLOAD PUSH8 0xFFFFFFFFFFFFFFFF DUP2 GT ISZERO PUSH2 0x1332 JUMPI PUSH2 0x1331 PUSH2 0x3401 JUMP JUMPDEST JUMPDEST PUSH1 0x40 MLOAD SWAP1 DUP1 DUP3 MSTORE DUP1 PUSH1 0x20 MUL PUSH1 0x20 ADD DUP3 ADD PUSH1 0x40 MSTORE DUP1 ISZERO PUSH2 0x1360 JUMPI DUP2 PUSH1 0x20 ADD PUSH1 0x20 DUP3 MUL DUP1 CALLDATASIZE DUP4 CALLDATACOPY DUP1 DUP3 ADD SWAP2 POP POP SWAP1 POP JUMPDEST POP SWAP1 POP PUSH0 JUMPDEST DUP5 MLOAD DUP2 LT ISZERO PUSH2 0x13C6 JUMPI PUSH2 0x139C PUSH2 0x1384 DUP3 DUP8 PUSH2 0x211D SWAP1 SWAP2 SWAP1 PUSH4 0xFFFFFFFF AND JUMP JUMPDEST PUSH2 0x1397 DUP4 DUP8 PUSH2 0x2130 SWAP1 SWAP2 SWAP1 PUSH4 0xFFFFFFFF AND JUMP JUMPDEST PUSH2 0xA70 JUMP JUMPDEST DUP3 DUP3 DUP2 MLOAD DUP2 LT PUSH2 0x13AF JUMPI PUSH2 0x13AE PUSH2 0x438F JUMP JUMPDEST JUMPDEST PUSH1 0x20 MUL PUSH1 0x20 ADD ADD DUP2 DUP2 MSTORE POP POP DUP1 PUSH1 0x1 ADD SWAP1 POP PUSH2 0x1365 JUMP JUMPDEST POP DUP1 SWAP2 POP POP SWAP3 SWAP2 POP POP JUMP JUMPDEST PUSH0 DUP1 PUSH2 0x13DC DUP4 PUSH2 0x16EE JUMP JUMPDEST GT SWAP1 POP SWAP2 SWAP1 POP JUMP JUMPDEST PUSH2 0x13EC PUSH2 0x1A71 JUMP JUMPDEST PUSH0 SELFBALANCE SWAP1 POP DUP2 PUSH20 0xFFFFFFFFFFFFFFFFFFFFFFFFFFFFFFFFFFFFFFFF AND PUSH2 0x8FC DUP3 SWAP1 DUP2 ISZERO MUL SWAP1 PUSH1 0x40 MLOAD PUSH0 PUSH1 0x40 MLOAD DUP1 DUP4 SUB DUP2 DUP6 DUP9 DUP9 CALL SWAP4 POP POP POP POP ISZERO DUP1 ISZERO PUSH2 0x1433 JUMPI RETURNDATASIZE PUSH0 DUP1 RETURNDATACOPY RETURNDATASIZE PUSH0 REVERT JUMPDEST POP POP POP JUMP JUMPDEST PUSH0 PUSH1 0x3 PUSH1 0x14 SWAP1 SLOAD SWAP1 PUSH2 0x100 EXP SWAP1 DIV PUSH1 0xFF AND SWAP1 POP SWAP1 JUMP JUMPDEST PUSH2 0x1456 PUSH2 0x1A71 JUMP JUMPDEST PUSH0 JUMPDEST DUP3 DUP3 SWAP1 POP DUP2 LT ISZERO PUSH2 0x14EC JUMPI PUSH1 0x1 PUSH1 0x12 PUSH0 DUP6 DUP6 DUP6 DUP2 DUP2 LT PUSH2 0x147B JUMPI PUSH2 0x147A PUSH2 0x438F JUMP JUMPDEST JUMPDEST SWAP1 POP PUSH1 0x20 MUL ADD PUSH1 0x20 DUP2 ADD SWAP1 PUSH2 0x1490 SWAP2 SWAP1 PUSH2 0x38D5 JUMP JUMPDEST PUSH20 0xFFFFFFFFFFFFFFFFFFFFFFFFFFFFFFFFFFFFFFFF AND PUSH20 0xFFFFFFFFFFFFFFFFFFFFFFFFFFFFFFFFFFFFFFFF AND DUP2 MSTORE PUSH1 0x20 ADD SWAP1 DUP2 MSTORE PUSH1 0x20 ADD PUSH0 KECCAK256 PUSH0 PUSH2 0x100 EXP DUP2 SLOAD DUP2 PUSH1 0xFF MUL NOT AND SWAP1 DUP4 ISZERO ISZERO MUL OR SWAP1 SSTORE POP DUP1 DUP1 PUSH1 0x1 ADD SWAP2 POP POP PUSH2 0x1458 JUMP JUMPDEST POP POP POP JUMP JUMPDEST PUSH2 0x14F9 PUSH2 0x1A71 JUMP JUMPDEST PUSH2 0x1502 PUSH0 PUSH2 0x2143 JUMP JUMPDEST JUMP JUMPDEST PUSH2 0x150C PUSH2 0x1A71 JUMP JUMPDEST PUSH2 0x1514 PUSH2 0x2206 JUMP JUMPDEST JUMP JUMPDEST PUSH0 PUSH1 0xA DUP3 DUP2 SLOAD DUP2 LT PUSH2 0x152B JUMPI PUSH2 0x152A PUSH2 0x438F JUMP JUMPDEST JUMPDEST SWAP1 PUSH0 MSTORE PUSH1 0x20 PUSH0 KECCAK256 ADD PUSH0 SWAP1 SLOAD SWAP1 PUSH2 0x100 EXP SWAP1 DIV PUSH20 0xFFFFFFFFFFFFFFFFFFFFFFFFFFFFFFFFFFFFFFFF AND SWAP1 POP SWAP2 SWAP1 POP JUMP JUMPDEST PUSH0 PUSH1 0x3 PUSH0 SWAP1 SLOAD SWAP1 PUSH2 0x100 EXP SWAP1 DIV PUSH20 0xFFFFFFFFFFFFFFFFFFFFFFFFFFFFFFFFFFFFFFFF AND SWAP1 POP SWAP1 JUMP JUMPDEST PUSH1 0x13 PUSH1 0x20 MSTORE DUP1 PUSH0 MSTORE PUSH1 0x40 PUSH0 KECCAK256 PUSH0 SWAP2 POP SWAP1 POP SLOAD DUP2 JUMP JUMPDEST PUSH0 PUSH1 0x9 PUSH0 DUP4 PUSH20 0xFFFFFFFFFFFFFFFFFFFFFFFFFFFFFFFFFFFFFFFF AND PUSH20 0xFFFFFFFFFFFFFFFFFFFFFFFFFFFFFFFFFFFFFFFF AND DUP2 MSTORE PUSH1 0x20 ADD SWAP1 DUP2 MSTORE PUSH1 0x20 ADD PUSH0 KECCAK256 SLOAD SWAP1 POP SWAP2 SWAP1 POP JUMP JUMPDEST PUSH1 0x11 PUSH0 SWAP1 SLOAD SWAP1 PUSH2 0x100 EXP SWAP1 DIV PUSH1 0xFF AND PUSH2 0x162B JUMPI PUSH1 0x40 MLOAD PUSH32 0x8C379A000000000000000000000000000000000000000000000000000000000 DUP2 MSTORE PUSH1 0x4 ADD PUSH2 0x1622 SWAP1 PUSH2 0x4406 JUMP JUMPDEST PUSH1 0x40 MLOAD DUP1 SWAP2 SUB SWAP1 REVERT JUMPDEST DUP1 PUSH1 0xD SLOAD PUSH2 0x1639 SWAP2 SWAP1 PUSH2 0x40C7 JUMP JUMPDEST CALLVALUE EQ PUSH2 0x167A JUMPI PUSH1 0x40 MLOAD PUSH32 0x8C379A000000000000000000000000000000000000000000000000000000000 DUP2 MSTORE PUSH1 0x4 ADD PUSH2 0x1671 SWAP1 PUSH2 0x446E JUMP JUMPDEST PUSH1 0x40 MLOAD DUP1 SWAP2 SUB SWAP1 REVERT JUMPDEST PUSH2 0x1684 DUP3 DUP3 PUSH2 0x1C67 JUMP JUMPDEST POP POP JUMP JUMPDEST PUSH2 0x169A PUSH2 0x1693 PUSH2 0xA69 JUMP JUMPDEST DUP4 DUP4 PUSH2 0x2269 JUMP JUMPDEST POP POP JUMP JUMPDEST PUSH1 0xE SLOAD DUP2 JUMP JUMPDEST PUSH0 DUP1 PUSH2 0x16AE PUSH2 0x1846 JUMP JUMPDEST SELFBALANCE PUSH2 0x16B9 SWAP2 SWAP1 PUSH2 0x428C JUMP JUMPDEST SWAP1 POP PUSH2 0x16CE DUP4 DUP3 PUSH2 0x16C9 DUP7 PUSH2 0x1597 JUMP JUMPDEST PUSH2 0x23D2 JUMP JUMPDEST SWAP2 POP POP SWAP2 SWAP1 POP JUMP JUMPDEST PUSH1 0xD SLOAD DUP2 JUMP JUMPDEST PUSH1 0x11 PUSH0 SWAP1 SLOAD SWAP1 PUSH2 0x100 EXP SWAP1 DIV PUSH1 0xFF AND DUP2 JUMP JUMPDEST PUSH0 PUSH1 0x4 PUSH0 DUP4 DUP2 MSTORE PUSH1 0x20 ADD SWAP1 DUP2 MSTORE PUSH1 0x20 ADD PUSH0 KECCAK256 SLOAD SWAP1 POP SWAP2 SWAP1 POP JUMP JUMPDEST PUSH0 DUP1 PUSH2 0x1713 DUP5 PUSH2 0x1800 JUMP JUMPDEST DUP5 PUSH20 0xFFFFFFFFFFFFFFFFFFFFFFFFFFFFFFFFFFFFFFFF AND PUSH4 0x70A08231 ADDRESS PUSH1 0x40 MLOAD DUP3 PUSH4 0xFFFFFFFF AND PUSH1 0xE0 SHL DUP2 MSTORE PUSH1 0x4 ADD PUSH2 0x174C SWAP2 SWAP1 PUSH2 0x3D5D JUMP JUMPDEST PUSH1 0x20 PUSH1 0x40 MLOAD DUP1 DUP4 SUB DUP2 DUP7 GAS STATICCALL ISZERO DUP1 ISZERO PUSH2 0x1767 JUMPI RETURNDATASIZE PUSH0 DUP1 RETURNDATACOPY RETURNDATASIZE PUSH0 REVERT JUMPDEST POP POP POP POP PUSH1 0x40 MLOAD RETURNDATASIZE PUSH1 0x1F NOT PUSH1 0x1F DUP3 ADD AND DUP3 ADD DUP1 PUSH1 0x40 MSTORE POP DUP2 ADD SWAP1 PUSH2 0x178B SWAP2 SWAP1 PUSH2 0x44A0 JUMP JUMPDEST PUSH2 0x1795 SWAP2 SWAP1 PUSH2 0x428C JUMP JUMPDEST SWAP1 POP PUSH2 0x17AB DUP4 DUP3 PUSH2 0x17A6 DUP8 DUP8 PUSH2 0x103C JUMP JUMPDEST PUSH2 0x23D2 JUMP JUMPDEST SWAP2 POP POP SWAP3 SWAP2 POP POP JUMP JUMPDEST PUSH0 PUSH1 0x8 PUSH0 DUP4 PUSH20 0xFFFFFFFFFFFFFFFFFFFFFFFFFFFFFFFFFFFFFFFF AND PUSH20 0xFFFFFFFFFFFFFFFFFFFFFFFFFFFFFFFFFFFFFFFF AND DUP2 MSTORE PUSH1 0x20 ADD SWAP1 DUP2 MSTORE PUSH1 0x20 ADD PUSH0 KECCAK256 SLOAD SWAP1 POP SWAP2 SWAP1 POP JUMP JUMPDEST PUSH1 0xF SLOAD DUP2 JUMP JUMPDEST PUSH0 PUSH1 0xB PUSH0 DUP4 PUSH20 0xFFFFFFFFFFFFFFFFFFFFFFFFFFFFFFFFFFFFFFFF AND PUSH20 0xFFFFFFFFFFFFFFFFFFFFFFFFFFFFFFFFFFFFFFFF AND DUP2 MSTORE PUSH1 0x20 ADD SWAP1 DUP2 MSTORE PUSH1 0x20 ADD PUSH0 KECCAK256 SLOAD SWAP1 POP SWAP2 SWAP1 POP JUMP JUMPDEST PUSH0 PUSH1 0x7 SLOAD SWAP1 POP SWAP1 JUMP JUMPDEST PUSH0 PUSH1 0x1 PUSH0 DUP5 PUSH20 0xFFFFFFFFFFFFFFFFFFFFFFFFFFFFFFFFFFFFFFFF AND PUSH20 0xFFFFFFFFFFFFFFFFFFFFFFFFFFFFFFFFFFFFFFFF AND DUP2 MSTORE PUSH1 0x20 ADD SWAP1 DUP2 MSTORE PUSH1 0x20 ADD PUSH0 KECCAK256 PUSH0 DUP4 PUSH20 0xFFFFFFFFFFFFFFFFFFFFFFFFFFFFFFFFFFFFFFFF AND PUSH20 0xFFFFFFFFFFFFFFFFFFFFFFFFFFFFFFFFFFFFFFFF AND DUP2 MSTORE PUSH1 0x20 ADD SWAP1 DUP2 MSTORE PUSH1 0x20 ADD PUSH0 KECCAK256 PUSH0 SWAP1 SLOAD SWAP1 PUSH2 0x100 EXP SWAP1 DIV PUSH1 0xFF AND SWAP1 POP SWAP3 SWAP2 POP POP JUMP JUMPDEST PUSH0 PUSH2 0x18E6 PUSH2 0xA69 JUMP JUMPDEST SWAP1 POP DUP1 PUSH20 0xFFFFFFFFFFFFFFFFFFFFFFFFFFFFFFFFFFFFFFFF AND DUP7 PUSH20 0xFFFFFFFFFFFFFFFFFFFFFFFFFFFFFFFFFFFFFFFF AND EQ ISZERO DUP1 ISZERO PUSH2 0x192B JUMPI POP PUSH2 0x1929 DUP7 DUP3 PUSH2 0x184F JUMP JUMPDEST ISZERO JUMPDEST ISZERO PUSH2 0x196F JUMPI DUP1 DUP7 PUSH1 0x40 MLOAD PUSH32 0xE237D92200000000000000000000000000000000000000000000000000000000 DUP2 MSTORE PUSH1 0x4 ADD PUSH2 0x1966 SWAP3 SWAP2 SWAP1 PUSH2 0x4341 JUMP JUMPDEST PUSH1 0x40 MLOAD DUP1 SWAP2 SUB SWAP1 REVERT JUMPDEST PUSH2 0x197C DUP7 DUP7 DUP7 DUP7 DUP7 PUSH2 0x243D JUMP JUMPDEST POP POP POP POP POP POP JUMP JUMPDEST PUSH2 0x198C PUSH2 0x1A71 JUMP JUMPDEST PUSH0 PUSH20 0xFFFFFFFFFFFFFFFFFFFFFFFFFFFFFFFFFFFFFFFF AND DUP2 PUSH20 0xFFFFFFFFFFFFFFFFFFFFFFFFFFFFFFFFFFFFFFFF AND SUB PUSH2 0x19FC JUMPI PUSH0 PUSH1 0x40 MLOAD PUSH32 0x1E4FBDF700000000000000000000000000000000000000000000000000000000 DUP2 MSTORE PUSH1 0x4 ADD PUSH2 0x19F3 SWAP2 SWAP1 PUSH2 0x3D5D JUMP JUMPDEST PUSH1 0x40 MLOAD DUP1 SWAP2 SUB SWAP1 REVERT JUMPDEST PUSH2 0x1A05 DUP2 PUSH2 0x2143 JUMP JUMPDEST POP JUMP JUMPDEST PUSH0 PUSH32 0x1FFC9A700000000000000000000000000000000000000000000000000000000 PUSH28 0xFFFFFFFFFFFFFFFFFFFFFFFFFFFFFFFFFFFFFFFFFFFFFFFFFFFFFFFF NOT AND DUP3 PUSH28 0xFFFFFFFFFFFFFFFFFFFFFFFFFFFFFFFFFFFFFFFFFFFFFFFFFFFFFFFF NOT AND EQ SWAP1 POP SWAP2 SWAP1 POP JUMP JUMPDEST PUSH2 0x1A79 PUSH2 0xA69 JUMP JUMPDEST PUSH20 0xFFFFFFFFFFFFFFFFFFFFFFFFFFFFFFFFFFFFFFFF AND PUSH2 0x1A97 PUSH2 0x155A JUMP JUMPDEST PUSH20 0xFFFFFFFFFFFFFFFFFFFFFFFFFFFFFFFFFFFFFFFF AND EQ PUSH2 0x1AF6 JUMPI PUSH2 0x1ABA PUSH2 0xA69 JUMP JUMPDEST PUSH1 0x40 MLOAD PUSH32 0x118CDAA700000000000000000000000000000000000000000000000000000000 DUP2 MSTORE PUSH1 0x4 ADD PUSH2 0x1AED SWAP2 SWAP1 PUSH2 0x3D5D JUMP JUMPDEST PUSH1 0x40 MLOAD DUP1 SWAP2 SUB SWAP1 REVERT JUMPDEST JUMP JUMPDEST DUP1 PUSH1 0x2 SWAP1 DUP2 PUSH2 0x1B07 SWAP2 SWAP1 PUSH2 0x46BC JUMP JUMPDEST POP POP JUMP JUMPDEST PUSH1 0x60 PUSH1 0x2 DUP1 SLOAD PUSH2 0x1B1A SWAP1 PUSH2 0x44F8 JUMP JUMPDEST DUP1 PUSH1 0x1F ADD PUSH1 0x20 DUP1 SWAP2 DIV MUL PUSH1 0x20 ADD PUSH1 0x40 MLOAD SWAP1 DUP2 ADD PUSH1 0x40 MSTORE DUP1 SWAP3 SWAP2 SWAP1 DUP2 DUP2 MSTORE PUSH1 0x20 ADD DUP3 DUP1 SLOAD PUSH2 0x1B46 SWAP1 PUSH2 0x44F8 JUMP JUMPDEST DUP1 ISZERO PUSH2 0x1B91 JUMPI DUP1 PUSH1 0x1F LT PUSH2 0x1B68 JUMPI PUSH2 0x100 DUP1 DUP4 SLOAD DIV MUL DUP4 MSTORE SWAP2 PUSH1 0x20 ADD SWAP2 PUSH2 0x1B91 JUMP JUMPDEST DUP3 ADD SWAP2 SWAP1 PUSH0 MSTORE PUSH1 0x20 PUSH0 KECCAK256 SWAP1 JUMPDEST DUP2 SLOAD DUP2 MSTORE SWAP1 PUSH1 0x1 ADD SWAP1 PUSH1 0x20 ADD DUP1 DUP4 GT PUSH2 0x1B74 JUMPI DUP3 SWAP1 SUB PUSH1 0x1F AND DUP3 ADD SWAP2 JUMPDEST POP POP POP POP POP SWAP1 POP SWAP2 SWAP1 POP JUMP JUMPDEST PUSH1 0x60 PUSH0 PUSH1 0x1 PUSH2 0x1BAB DUP5 PUSH2 0x2543 JUMP JUMPDEST ADD SWAP1 POP PUSH0 DUP2 PUSH8 0xFFFFFFFFFFFFFFFF DUP2 GT ISZERO PUSH2 0x1BC9 JUMPI PUSH2 0x1BC8 PUSH2 0x3401 JUMP JUMPDEST JUMPDEST PUSH1 0x40 MLOAD SWAP1 DUP1 DUP3 MSTORE DUP1 PUSH1 0x1F ADD PUSH1 0x1F NOT AND PUSH1 0x20 ADD DUP3 ADD PUSH1 0x40 MSTORE DUP1 ISZERO PUSH2 0x1BFB JUMPI DUP2 PUSH1 0x20 ADD PUSH1 0x1 DUP3 MUL DUP1 CALLDATASIZE DUP4 CALLDATACOPY DUP1 DUP3 ADD SWAP2 POP POP SWAP1 POP JUMPDEST POP SWAP1 POP PUSH0 DUP3 PUSH1 0x20 ADD DUP3 ADD SWAP1 POP JUMPDEST PUSH1 0x1 ISZERO PUSH2 0x1C5C JUMPI DUP1 DUP1 PUSH1 0x1 SWAP1 SUB SWAP2 POP POP PUSH32 0x3031323334353637383961626364656600000000000000000000000000000000 PUSH1 0xA DUP7 MOD BYTE DUP2 MSTORE8 PUSH1 0xA DUP6 DUP2 PUSH2 0x1C51 JUMPI PUSH2 0x1C50 PUSH2 0x478B JUMP JUMPDEST JUMPDEST DIV SWAP5 POP PUSH0 DUP6 SUB PUSH2 0x1C08 JUMPI JUMPDEST DUP2 SWAP4 POP POP POP POP SWAP2 SWAP1 POP JUMP JUMPDEST PUSH1 0x10 SLOAD DUP2 PUSH1 0x13 PUSH0 CALLER PUSH20 0xFFFFFFFFFFFFFFFFFFFFFFFFFFFFFFFFFFFFFFFF AND PUSH20 0xFFFFFFFFFFFFFFFFFFFFFFFFFFFFFFFFFFFFFFFF AND DUP2 MSTORE PUSH1 0x20 ADD SWAP1 DUP2 MSTORE PUSH1 0x20 ADD PUSH0 KECCAK256 SLOAD PUSH2 0x1CB3 SWAP2 SWAP1 PUSH2 0x428C JUMP JUMPDEST GT ISZERO PUSH2 0x1CF4 JUMPI PUSH1 0x40 MLOAD PUSH32 0x8C379A000000000000000000000000000000000000000000000000000000000 DUP2 MSTORE PUSH1 0x4 ADD PUSH2 0x1CEB SWAP1 PUSH2 0x4802 JUMP JUMPDEST PUSH1 0x40 MLOAD DUP1 SWAP2 SUB SWAP1 REVERT JUMPDEST PUSH1 0x2 DUP3 LT PUSH2 0x1D37 JUMPI PUSH1 0x40 MLOAD PUSH32 0x8C379A000000000000000000000000000000000000000000000000000000000 DUP2 MSTORE PUSH1 0x4 ADD PUSH2 0x1D2E SWAP1 PUSH2 0x4890 JUMP JUMPDEST PUSH1 0x40 MLOAD DUP1 SWAP2 SUB SWAP1 REVERT JUMPDEST PUSH1 0xF SLOAD DUP2 PUSH2 0x1D43 PUSH2 0xD85 JUMP JUMPDEST PUSH2 0x1D4D SWAP2 SWAP1 PUSH2 0x428C JUMP JUMPDEST GT ISZERO PUSH2 0x1D8E JUMPI PUSH1 0x40 MLOAD PUSH32 0x8C379A000000000000000000000000000000000000000000000000000000000 DUP2 MSTORE PUSH1 0x4 ADD PUSH2 0x1D85 SWAP1 PUSH2 0x48F8 JUMP JUMPDEST PUSH1 0x40 MLOAD DUP1 SWAP2 SUB SWAP1 REVERT JUMPDEST PUSH2 0x1DA8 CALLER DUP4 DUP4 PUSH1 0x40 MLOAD DUP1 PUSH1 0x20 ADD PUSH1 0x40 MSTORE DUP1 PUSH0 DUP2 MSTORE POP PUSH2 0x2694 JUMP JUMPDEST DUP1 PUSH1 0x13 PUSH0 CALLER PUSH20 0xFFFFFFFFFFFFFFFFFFFFFFFFFFFFFFFFFFFFFFFF AND PUSH20 0xFFFFFFFFFFFFFFFFFFFFFFFFFFFFFFFFFFFFFFFF AND DUP2 MSTORE PUSH1 0x20 ADD SWAP1 DUP2 MSTORE PUSH1 0x20 ADD PUSH0 KECCAK256 PUSH0 DUP3 DUP3 SLOAD PUSH2 0x1DF4 SWAP2 SWAP1 PUSH2 0x428C JUMP JUMPDEST SWAP3 POP POP DUP2 SWAP1 SSTORE POP POP POP JUMP JUMPDEST DUP1 SELFBALANCE LT ISZERO PUSH2 0x1E46 JUMPI SELFBALANCE DUP2 PUSH1 0x40 MLOAD PUSH32 0xCF47918100000000000000000000000000000000000000000000000000000000 DUP2 MSTORE PUSH1 0x4 ADD PUSH2 0x1E3D SWAP3 SWAP2 SWAP1 PUSH2 0x4368 JUMP JUMPDEST PUSH1 0x40 MLOAD DUP1 SWAP2 SUB SWAP1 REVERT JUMPDEST PUSH0 DUP1 DUP4 PUSH20 0xFFFFFFFFFFFFFFFFFFFFFFFFFFFFFFFFFFFFFFFF AND DUP4 PUSH1 0x40 MLOAD PUSH2 0x1E6C SWAP1 PUSH2 0x4943 JUMP JUMPDEST PUSH0 PUSH1 0x40 MLOAD DUP1 DUP4 SUB DUP2 DUP6 DUP8 GAS CALL SWAP3 POP POP POP RETURNDATASIZE DUP1 PUSH0 DUP2 EQ PUSH2 0x1EA6 JUMPI PUSH1 0x40 MLOAD SWAP2 POP PUSH1 0x1F NOT PUSH1 0x3F RETURNDATASIZE ADD AND DUP3 ADD PUSH1 0x40 MSTORE RETURNDATASIZE DUP3 MSTORE RETURNDATASIZE PUSH0 PUSH1 0x20 DUP5 ADD RETURNDATACOPY PUSH2 0x1EAB JUMP JUMPDEST PUSH1 0x60 SWAP2 POP JUMPDEST POP SWAP2 POP SWAP2 POP DUP2 PUSH2 0x1EBF JUMPI PUSH2 0x1EBE DUP2 PUSH2 0x2729 JUMP JUMPDEST JUMPDEST POP POP POP POP JUMP JUMPDEST PUSH0 PUSH20 0xFFFFFFFFFFFFFFFFFFFFFFFFFFFFFFFFFFFFFFFF AND DUP5 PUSH20 0xFFFFFFFFFFFFFFFFFFFFFFFFFFFFFFFFFFFFFFFF AND SUB PUSH2 0x1F35 JUMPI PUSH0 PUSH1 0x40 MLOAD PUSH32 0x57F447CE00000000000000000000000000000000000000000000000000000000 DUP2 MSTORE PUSH1 0x4 ADD PUSH2 0x1F2C SWAP2 SWAP1 PUSH2 0x3D5D JUMP JUMPDEST PUSH1 0x40 MLOAD DUP1 SWAP2 SUB SWAP1 REVERT JUMPDEST PUSH2 0x1F42 PUSH0 DUP6 DUP6 DUP6 DUP6 PUSH2 0x276D JUMP JUMPDEST POP POP POP POP JUMP JUMPDEST PUSH0 PUSH20 0xFFFFFFFFFFFFFFFFFFFFFFFFFFFFFFFFFFFFFFFF AND DUP5 PUSH20 0xFFFFFFFFFFFFFFFFFFFFFFFFFFFFFFFFFFFFFFFF AND SUB PUSH2 0x1FB8 JUMPI PUSH0 PUSH1 0x40 MLOAD PUSH32 0x57F447CE00000000000000000000000000000000000000000000000000000000 DUP2 MSTORE PUSH1 0x4 ADD PUSH2 0x1FAF SWAP2 SWAP1 PUSH2 0x3D5D JUMP JUMPDEST PUSH1 0x40 MLOAD DUP1 SWAP2 SUB SWAP1 REVERT JUMPDEST PUSH0 PUSH20 0xFFFFFFFFFFFFFFFFFFFFFFFFFFFFFFFFFFFFFFFF AND DUP6 PUSH20 0xFFFFFFFFFFFFFFFFFFFFFFFFFFFFFFFFFFFFFFFF AND SUB PUSH2 0x2028 JUMPI PUSH0 PUSH1 0x40 MLOAD PUSH32 0x1A8351400000000000000000000000000000000000000000000000000000000 DUP2 MSTORE PUSH1 0x4 ADD PUSH2 0x201F SWAP2 SWAP1 PUSH2 0x3D5D JUMP JUMPDEST PUSH1 0x40 MLOAD DUP1 SWAP2 SUB SWAP1 REVERT JUMPDEST PUSH2 0x2035 DUP6 DUP6 DUP6 DUP6 DUP6 PUSH2 0x276D JUMP JUMPDEST POP POP POP POP POP JUMP JUMPDEST PUSH2 0x2044 PUSH2 0x2819 JUMP JUMPDEST PUSH0 PUSH1 0x3 PUSH1 0x14 PUSH2 0x100 EXP DUP2 SLOAD DUP2 PUSH1 0xFF MUL NOT AND SWAP1 DUP4 ISZERO ISZERO MUL OR SWAP1 SSTORE POP PUSH32 0x5DB9EE0A495BF2E6FF9C91A7834C1BA4FDD244A5E8AA4E537BD38AEAE4B073AA PUSH2 0x2087 PUSH2 0xA69 JUMP JUMPDEST PUSH1 0x40 MLOAD PUSH2 0x2094 SWAP2 SWAP1 PUSH2 0x3D5D JUMP JUMPDEST PUSH1 0x40 MLOAD DUP1 SWAP2 SUB SWAP1 LOG1 JUMP JUMPDEST PUSH2 0x2118 DUP4 DUP5 PUSH20 0xFFFFFFFFFFFFFFFFFFFFFFFFFFFFFFFFFFFFFFFF AND PUSH4 0xA9059CBB DUP6 DUP6 PUSH1 0x40 MLOAD PUSH1 0x24 ADD PUSH2 0x20D1 SWAP3 SWAP2 SWAP1 PUSH2 0x3253 JUMP JUMPDEST PUSH1 0x40 MLOAD PUSH1 0x20 DUP2 DUP4 SUB SUB DUP2 MSTORE SWAP1 PUSH1 0x40 MSTORE SWAP2 POP PUSH1 0xE0 SHL PUSH1 0x20 DUP3 ADD DUP1 MLOAD PUSH28 0xFFFFFFFFFFFFFFFFFFFFFFFFFFFFFFFFFFFFFFFFFFFFFFFFFFFFFFFF DUP4 DUP2 DUP4 AND OR DUP4 MSTORE POP POP POP POP PUSH2 0x2859 JUMP JUMPDEST POP POP POP JUMP JUMPDEST PUSH0 PUSH1 0x20 DUP3 MUL PUSH1 0x20 DUP5 ADD ADD MLOAD SWAP1 POP SWAP3 SWAP2 POP POP JUMP JUMPDEST PUSH0 PUSH1 0x20 DUP3 MUL PUSH1 0x20 DUP5 ADD ADD MLOAD SWAP1 POP SWAP3 SWAP2 POP POP JUMP JUMPDEST PUSH0 PUSH1 0x3 PUSH0 SWAP1 SLOAD SWAP1 PUSH2 0x100 EXP SWAP1 DIV PUSH20 0xFFFFFFFFFFFFFFFFFFFFFFFFFFFFFFFFFFFFFFFF AND SWAP1 POP DUP2 PUSH1 0x3 PUSH0 PUSH2 0x100 EXP DUP2 SLOAD DUP2 PUSH20 0xFFFFFFFFFFFFFFFFFFFFFFFFFFFFFFFFFFFFFFFF MUL NOT AND SWAP1 DUP4 PUSH20 0xFFFFFFFFFFFFFFFFFFFFFFFFFFFFFFFFFFFFFFFF AND MUL OR SWAP1 SSTORE POP DUP2 PUSH20 0xFFFFFFFFFFFFFFFFFFFFFFFFFFFFFFFFFFFFFFFF AND DUP2 PUSH20 0xFFFFFFFFFFFFFFFFFFFFFFFFFFFFFFFFFFFFFFFF AND PUSH32 0x8BE0079C531659141344CD1FD0A4F28419497F9722A3DAAFE3B4186F6B6457E0 PUSH1 0x40 MLOAD PUSH1 0x40 MLOAD DUP1 SWAP2 SUB SWAP1 LOG3 POP POP JUMP JUMPDEST PUSH2 0x220E PUSH2 0x28F4 JUMP JUMPDEST PUSH1 0x1 PUSH1 0x3 PUSH1 0x14 PUSH2 0x100 EXP DUP2 SLOAD DUP2 PUSH1 0xFF MUL NOT AND SWAP1 DUP4 ISZERO ISZERO MUL OR SWAP1 SSTORE POP PUSH32 0x62E78CEA01BEE320CD4E420270B5EA74000D11B0C9F74754EBDBFC544B05A258 PUSH2 0x2252 PUSH2 0xA69 JUMP JUMPDEST PUSH1 0x40 MLOAD PUSH2 0x225F SWAP2 SWAP1 PUSH2 0x3D5D JUMP JUMPDEST PUSH1 0x40 MLOAD DUP1 SWAP2 SUB SWAP1 LOG1 JUMP JUMPDEST PUSH0 PUSH20 0xFFFFFFFFFFFFFFFFFFFFFFFFFFFFFFFFFFFFFFFF AND DUP3 PUSH20 0xFFFFFFFFFFFFFFFFFFFFFFFFFFFFFFFFFFFFFFFF AND SUB PUSH2 0x22D9 JUMPI PUSH0 PUSH1 0x40 MLOAD PUSH32 0xCED3E10000000000000000000000000000000000000000000000000000000000 DUP2 MSTORE PUSH1 0x4 ADD PUSH2 0x22D0 SWAP2 SWAP1 PUSH2 0x3D5D JUMP JUMPDEST PUSH1 0x40 MLOAD DUP1 SWAP2 SUB SWAP1 REVERT JUMPDEST DUP1 PUSH1 0x1 PUSH0 DUP6 PUSH20 0xFFFFFFFFFFFFFFFFFFFFFFFFFFFFFFFFFFFFFFFF AND PUSH20 0xFFFFFFFFFFFFFFFFFFFFFFFFFFFFFFFFFFFFFFFF AND DUP2 MSTORE PUSH1 0x20 ADD SWAP1 DUP2 MSTORE PUSH1 0x20 ADD PUSH0 KECCAK256 PUSH0 DUP5 PUSH20 0xFFFFFFFFFFFFFFFFFFFFFFFFFFFFFFFFFFFFFFFF AND PUSH20 0xFFFFFFFFFFFFFFFFFFFFFFFFFFFFFFFFFFFFFFFF AND DUP2 MSTORE PUSH1 0x20 ADD SWAP1 DUP2 MSTORE PUSH1 0x20 ADD PUSH0 KECCAK256 PUSH0 PUSH2 0x100 EXP DUP2 SLOAD DUP2 PUSH1 0xFF MUL NOT AND SWAP1 DUP4 ISZERO ISZERO MUL OR SWAP1 SSTORE POP DUP2 PUSH20 0xFFFFFFFFFFFFFFFFFFFFFFFFFFFFFFFFFFFFFFFF AND DUP4 PUSH20 0xFFFFFFFFFFFFFFFFFFFFFFFFFFFFFFFFFFFFFFFF AND PUSH32 0x17307EAB39AB6107E8899845AD3D59BD9653F200F220920489CA2B5937696C31 DUP4 PUSH1 0x40 MLOAD PUSH2 0x23C5 SWAP2 SWAP1 PUSH2 0x33D0 JUMP JUMPDEST PUSH1 0x40 MLOAD DUP1 SWAP2 SUB SWAP1 LOG3 POP POP POP JUMP JUMPDEST PUSH0 DUP2 PUSH1 0x6 SLOAD PUSH1 0x8 PUSH0 DUP8 PUSH20 0xFFFFFFFFFFFFFFFFFFFFFFFFFFFFFFFFFFFFFFFF AND PUSH20 0xFFFFFFFFFFFFFFFFFFFFFFFFFFFFFFFFFFFFFFFF AND DUP2 MSTORE PUSH1 0x20 ADD SWAP1 DUP2 MSTORE PUSH1 0x20 ADD PUSH0 KECCAK256 SLOAD DUP6 PUSH2 0x2420 SWAP2 SWAP1 PUSH2 0x40C7 JUMP JUMPDEST PUSH2 0x242A SWAP2 SWAP1 PUSH2 0x4957 JUMP JUMPDEST PUSH2 0x2434 SWAP2 SWAP1 PUSH2 0x4987 JUMP JUMPDEST SWAP1 POP SWAP4 SWAP3 POP POP POP JUMP JUMPDEST PUSH0 PUSH20 0xFFFFFFFFFFFFFFFFFFFFFFFFFFFFFFFFFFFFFFFF AND DUP5 PUSH20 0xFFFFFFFFFFFFFFFFFFFFFFFFFFFFFFFFFFFFFFFF AND SUB PUSH2 0x24AD JUMPI PUSH0 PUSH1 0x40 MLOAD PUSH32 0x57F447CE00000000000000000000000000000000000000000000000000000000 DUP2 MSTORE PUSH1 0x4 ADD PUSH2 0x24A4 SWAP2 SWAP1 PUSH2 0x3D5D JUMP JUMPDEST PUSH1 0x40 MLOAD DUP1 SWAP2 SUB SWAP1 REVERT JUMPDEST PUSH0 PUSH20 0xFFFFFFFFFFFFFFFFFFFFFFFFFFFFFFFFFFFFFFFF AND DUP6 PUSH20 0xFFFFFFFFFFFFFFFFFFFFFFFFFFFFFFFFFFFFFFFF AND SUB PUSH2 0x251D JUMPI PUSH0 PUSH1 0x40 MLOAD PUSH32 0x1A8351400000000000000000000000000000000000000000000000000000000 DUP2 MSTORE PUSH1 0x4 ADD PUSH2 0x2514 SWAP2 SWAP1 PUSH2 0x3D5D JUMP JUMPDEST PUSH1 0x40 MLOAD DUP1 SWAP2 SUB SWAP1 REVERT JUMPDEST PUSH0 DUP1 PUSH2 0x2529 DUP6 DUP6 PUSH2 0x2935 JUMP JUMPDEST SWAP2 POP SWAP2 POP PUSH2 0x253A DUP8 DUP8 DUP5 DUP5 DUP8 PUSH2 0x276D JUMP JUMPDEST POP POP POP POP POP POP POP JUMP JUMPDEST PUSH0 DUP1 PUSH0 SWAP1 POP PUSH27 0x184F03E93FF9F4DAA797ED6E38ED64BF6A1F010000000000000000 DUP4 LT PUSH2 0x259F JUMPI PUSH27 0x184F03E93FF9F4DAA797ED6E38ED64BF6A1F010000000000000000 DUP4 DUP2 PUSH2 0x2595 JUMPI PUSH2 0x2594 PUSH2 0x478B JUMP JUMPDEST JUMPDEST DIV SWAP3 POP PUSH1 0x40 DUP2 ADD SWAP1 POP JUMPDEST PUSH14 0x4EE2D6D415B85ACEF8100000000 DUP4 LT PUSH2 0x25DC JUMPI PUSH14 0x4EE2D6D415B85ACEF8100000000 DUP4 DUP2 PUSH2 0x25D2 JUMPI PUSH2 0x25D1 PUSH2 0x478B JUMP JUMPDEST JUMPDEST DIV SWAP3 POP PUSH1 0x20 DUP2 ADD SWAP1 POP JUMPDEST PUSH7 0x2386F26FC10000 DUP4 LT PUSH2 0x260B JUMPI PUSH7 0x2386F26FC10000 DUP4 DUP2 PUSH2 0x2601 JUMPI PUSH2 0x2600 PUSH2 0x478B JUMP JUMPDEST JUMPDEST DIV SWAP3 POP PUSH1 0x10 DUP2 ADD SWAP1 POP JUMPDEST PUSH4 0x5F5E100 DUP4 LT PUSH2 0x2634 JUMPI PUSH4 0x5F5E100 DUP4 DUP2 PUSH2 0x262A JUMPI PUSH2 0x2629 PUSH2 0x478B JUMP JUMPDEST JUMPDEST DIV SWAP3 POP PUSH1 0x8 DUP2 ADD SWAP1 POP JUMPDEST PUSH2 0x2710 DUP4 LT PUSH2 0x2659 JUMPI PUSH2 0x2710 DUP4 DUP2 PUSH2 0x264F JUMPI PUSH2 0x264E PUSH2 0x478B JUMP JUMPDEST JUMPDEST DIV SWAP3 POP PUSH1 0x4 DUP2 ADD SWAP1 POP JUMPDEST PUSH1 0x64 DUP4 LT PUSH2 0x267C JUMPI PUSH1 0x64 DUP4 DUP2 PUSH2 0x2672 JUMPI PUSH2 0x2671 PUSH2 0x478B JUMP JUMPDEST JUMPDEST DIV SWAP3 POP PUSH1 0x2 DUP2 ADD SWAP1 POP JUMPDEST PUSH1 0xA DUP4 LT PUSH2 0x268B JUMPI PUSH1 0x1 DUP2 ADD SWAP1 POP JUMPDEST DUP1 SWAP2 POP POP SWAP2 SWAP1 POP JUMP JUMPDEST PUSH0 PUSH20 0xFFFFFFFFFFFFFFFFFFFFFFFFFFFFFFFFFFFFFFFF AND DUP5 PUSH20 0xFFFFFFFFFFFFFFFFFFFFFFFFFFFFFFFFFFFFFFFF AND SUB PUSH2 0x2704 JUMPI PUSH0 PUSH1 0x40 MLOAD PUSH32 0x57F447CE00000000000000000000000000000000000000000000000000000000 DUP2 MSTORE PUSH1 0x4 ADD PUSH2 0x26FB SWAP2 SWAP1 PUSH2 0x3D5D JUMP JUMPDEST PUSH1 0x40 MLOAD DUP1 SWAP2 SUB SWAP1 REVERT JUMPDEST PUSH0 DUP1 PUSH2 0x2710 DUP6 DUP6 PUSH2 0x2935 JUMP JUMPDEST SWAP2 POP SWAP2 POP PUSH2 0x2721 PUSH0 DUP8 DUP5 DUP5 DUP8 PUSH2 0x276D JUMP JUMPDEST POP POP POP POP POP POP JUMP JUMPDEST PUSH0 DUP2 MLOAD GT ISZERO PUSH2 0x273B JUMPI DUP1 MLOAD DUP1 DUP3 PUSH1 0x20 ADD REVERT JUMPDEST PUSH1 0x40 MLOAD PUSH32 0xD6BDA27500000000000000000000000000000000000000000000000000000000 DUP2 MSTORE PUSH1 0x4 ADD PUSH1 0x40 MLOAD DUP1 SWAP2 SUB SWAP1 REVERT JUMPDEST PUSH2 0x2779 DUP6 DUP6 DUP6 DUP6 PUSH2 0x2965 JUMP JUMPDEST PUSH0 PUSH20 0xFFFFFFFFFFFFFFFFFFFFFFFFFFFFFFFFFFFFFFFF AND DUP5 PUSH20 0xFFFFFFFFFFFFFFFFFFFFFFFFFFFFFFFFFFFFFFFF AND EQ PUSH2 0x2812 JUMPI PUSH0 PUSH2 0x27B5 PUSH2 0xA69 JUMP JUMPDEST SWAP1 POP PUSH1 0x1 DUP5 MLOAD SUB PUSH2 0x2801 JUMPI PUSH0 PUSH2 0x27D4 PUSH0 DUP7 PUSH2 0x2130 SWAP1 SWAP2 SWAP1 PUSH4 0xFFFFFFFF AND JUMP JUMPDEST SWAP1 POP PUSH0 PUSH2 0x27EA PUSH0 DUP7 PUSH2 0x2130 SWAP1 SWAP2 SWAP1 PUSH4 0xFFFFFFFF AND JUMP JUMPDEST SWAP1 POP PUSH2 0x27FA DUP4 DUP10 DUP10 DUP6 DUP6 DUP10 PUSH2 0x2977 JUMP JUMPDEST POP POP PUSH2 0x2810 JUMP JUMPDEST PUSH2 0x280F DUP2 DUP8 DUP8 DUP8 DUP8 DUP8 PUSH2 0x2B26 JUMP JUMPDEST JUMPDEST POP JUMPDEST POP POP POP POP POP JUMP JUMPDEST PUSH2 0x2821 PUSH2 0x1438 JUMP JUMPDEST PUSH2 0x2857 JUMPI PUSH1 0x40 MLOAD PUSH32 0x8DFC202B00000000000000000000000000000000000000000000000000000000 DUP2 MSTORE PUSH1 0x4 ADD PUSH1 0x40 MLOAD DUP1 SWAP2 SUB SWAP1 REVERT JUMPDEST JUMP JUMPDEST PUSH0 DUP1 PUSH1 0x20 PUSH0 DUP5 MLOAD PUSH1 0x20 DUP7 ADD PUSH0 DUP9 GAS CALL DUP1 PUSH2 0x2878 JUMPI PUSH1 0x40 MLOAD RETURNDATASIZE PUSH0 DUP3 RETURNDATACOPY RETURNDATASIZE DUP2 REVERT JUMPDEST RETURNDATASIZE SWAP3 POP PUSH0 MLOAD SWAP2 POP POP PUSH0 DUP3 EQ PUSH2 0x2891 JUMPI PUSH1 0x1 DUP2 EQ ISZERO PUSH2 0x28AC JUMP JUMPDEST PUSH0 DUP5 PUSH20 0xFFFFFFFFFFFFFFFFFFFFFFFFFFFFFFFFFFFFFFFF AND EXTCODESIZE EQ JUMPDEST ISZERO PUSH2 0x28EE JUMPI DUP4 PUSH1 0x40 MLOAD PUSH32 0x5274AFE700000000000000000000000000000000000000000000000000000000 DUP2 MSTORE PUSH1 0x4 ADD PUSH2 0x28E5 SWAP2 SWAP1 PUSH2 0x3D5D JUMP JUMPDEST PUSH1 0x40 MLOAD DUP1 SWAP2 SUB SWAP1 REVERT JUMPDEST POP POP POP POP JUMP JUMPDEST PUSH2 0x28FC PUSH2 0x1438 JUMP JUMPDEST ISZERO PUSH2 0x2933 JUMPI PUSH1 0x40 MLOAD PUSH32 0xD93C066500000000000000000000000000000000000000000000000000000000 DUP2 MSTORE PUSH1 0x4 ADD PUSH1 0x40 MLOAD DUP1 SWAP2 SUB SWAP1 REVERT JUMPDEST JUMP JUMPDEST PUSH1 0x60 DUP1 PUSH1 0x40 MLOAD SWAP2 POP PUSH1 0x1 DUP3 MSTORE DUP4 PUSH1 0x20 DUP4 ADD MSTORE PUSH1 0x40 DUP3 ADD SWAP1 POP PUSH1 0x1 DUP2 MSTORE DUP3 PUSH1 0x20 DUP3 ADD MSTORE PUSH1 0x40 DUP2 ADD PUSH1 0x40 MSTORE SWAP3 POP SWAP3 SWAP1 POP JUMP JUMPDEST PUSH2 0x2971 DUP5 DUP5 DUP5 DUP5 PUSH2 0x2CD5 JUMP JUMPDEST POP POP POP POP JUMP JUMPDEST PUSH0 DUP5 PUSH20 0xFFFFFFFFFFFFFFFFFFFFFFFFFFFFFFFFFFFFFFFF AND EXTCODESIZE GT ISZERO PUSH2 0x2B1E JUMPI DUP4 PUSH20 0xFFFFFFFFFFFFFFFFFFFFFFFFFFFFFFFFFFFFFFFF AND PUSH4 0xF23A6E61 DUP8 DUP8 DUP7 DUP7 DUP7 PUSH1 0x40 MLOAD DUP7 PUSH4 0xFFFFFFFF AND PUSH1 0xE0 SHL DUP2 MSTORE PUSH1 0x4 ADD PUSH2 0x29D7 SWAP6 SWAP5 SWAP4 SWAP3 SWAP2 SWAP1 PUSH2 0x4A0C JUMP JUMPDEST PUSH1 0x20 PUSH1 0x40 MLOAD DUP1 DUP4 SUB DUP2 PUSH0 DUP8 GAS CALL SWAP3 POP POP POP DUP1 ISZERO PUSH2 0x2A12 JUMPI POP PUSH1 0x40 MLOAD RETURNDATASIZE PUSH1 0x1F NOT PUSH1 0x1F DUP3 ADD AND DUP3 ADD DUP1 PUSH1 0x40 MSTORE POP DUP2 ADD SWAP1 PUSH2 0x2A0F SWAP2 SWAP1 PUSH2 0x4A78 JUMP JUMPDEST PUSH1 0x1 JUMPDEST PUSH2 0x2A93 JUMPI RETURNDATASIZE DUP1 PUSH0 DUP2 EQ PUSH2 0x2A40 JUMPI PUSH1 0x40 MLOAD SWAP2 POP PUSH1 0x1F NOT PUSH1 0x3F RETURNDATASIZE ADD AND DUP3 ADD PUSH1 0x40 MSTORE RETURNDATASIZE DUP3 MSTORE RETURNDATASIZE PUSH0 PUSH1 0x20 DUP5 ADD RETURNDATACOPY PUSH2 0x2A45 JUMP JUMPDEST PUSH1 0x60 SWAP2 POP JUMPDEST POP PUSH0 DUP2 MLOAD SUB PUSH2 0x2A8B JUMPI DUP5 PUSH1 0x40 MLOAD PUSH32 0x57F447CE00000000000000000000000000000000000000000000000000000000 DUP2 MSTORE PUSH1 0x4 ADD PUSH2 0x2A82 SWAP2 SWAP1 PUSH2 0x3D5D JUMP JUMPDEST PUSH1 0x40 MLOAD DUP1 SWAP2 SUB SWAP1 REVERT JUMPDEST DUP1 MLOAD DUP2 PUSH1 0x20 ADD REVERT JUMPDEST PUSH4 0xF23A6E61 PUSH1 0xE0 SHL PUSH28 0xFFFFFFFFFFFFFFFFFFFFFFFFFFFFFFFFFFFFFFFFFFFFFFFFFFFFFFFF NOT AND DUP2 PUSH28 0xFFFFFFFFFFFFFFFFFFFFFFFFFFFFFFFFFFFFFFFFFFFFFFFFFFFFFFFF NOT AND EQ PUSH2 0x2B1C JUMPI DUP5 PUSH1 0x40 MLOAD PUSH32 0x57F447CE00000000000000000000000000000000000000000000000000000000 DUP2 MSTORE PUSH1 0x4 ADD PUSH2 0x2B13 SWAP2 SWAP1 PUSH2 0x3D5D JUMP JUMPDEST PUSH1 0x40 MLOAD DUP1 SWAP2 SUB SWAP1 REVERT JUMPDEST POP JUMPDEST POP POP POP POP POP POP JUMP JUMPDEST PUSH0 DUP5 PUSH20 0xFFFFFFFFFFFFFFFFFFFFFFFFFFFFFFFFFFFFFFFF AND EXTCODESIZE GT ISZERO PUSH2 0x2CCD JUMPI DUP4 PUSH20 0xFFFFFFFFFFFFFFFFFFFFFFFFFFFFFFFFFFFFFFFF AND PUSH4 0xBC197C81 DUP8 DUP8 DUP7 DUP7 DUP7 PUSH1 0x40 MLOAD DUP7 PUSH4 0xFFFFFFFF AND PUSH1 0xE0 SHL DUP2 MSTORE PUSH1 0x4 ADD PUSH2 0x2B86 SWAP6 SWAP5 SWAP4 SWAP3 SWAP2 SWAP1 PUSH2 0x4AA3 JUMP JUMPDEST PUSH1 0x20 PUSH1 0x40 MLOAD DUP1 DUP4 SUB DUP2 PUSH0 DUP8 GAS CALL SWAP3 POP POP POP DUP1 ISZERO PUSH2 0x2BC1 JUMPI POP PUSH1 0x40 MLOAD RETURNDATASIZE PUSH1 0x1F NOT PUSH1 0x1F DUP3 ADD AND DUP3 ADD DUP1 PUSH1 0x40 MSTORE POP DUP2 ADD SWAP1 PUSH2 0x2BBE SWAP2 SWAP1 PUSH2 0x4A78 JUMP JUMPDEST PUSH1 0x1 JUMPDEST PUSH2 0x2C42 JUMPI RETURNDATASIZE DUP1 PUSH0 DUP2 EQ PUSH2 0x2BEF JUMPI PUSH1 0x40 MLOAD SWAP2 POP PUSH1 0x1F NOT PUSH1 0x3F RETURNDATASIZE ADD AND DUP3 ADD PUSH1 0x40 MSTORE RETURNDATASIZE DUP3 MSTORE RETURNDATASIZE PUSH0 PUSH1 0x20 DUP5 ADD RETURNDATACOPY PUSH2 0x2BF4 JUMP JUMPDEST PUSH1 0x60 SWAP2 POP JUMPDEST POP PUSH0 DUP2 MLOAD SUB PUSH2 0x2C3A JUMPI DUP5 PUSH1 0x40 MLOAD PUSH32 0x57F447CE00000000000000000000000000000000000000000000000000000000 DUP2 MSTORE PUSH1 0x4 ADD PUSH2 0x2C31 SWAP2 SWAP1 PUSH2 0x3D5D JUMP JUMPDEST PUSH1 0x40 MLOAD DUP1 SWAP2 SUB SWAP1 REVERT JUMPDEST DUP1 MLOAD DUP2 PUSH1 0x20 ADD REVERT JUMPDEST PUSH4 0xBC197C81 PUSH1 0xE0 SHL PUSH28 0xFFFFFFFFFFFFFFFFFFFFFFFFFFFFFFFFFFFFFFFFFFFFFFFFFFFFFFFF NOT AND DUP2 PUSH28 0xFFFFFFFFFFFFFFFFFFFFFFFFFFFFFFFFFFFFFFFFFFFFFFFFFFFFFFFF NOT AND EQ PUSH2 0x2CCB JUMPI DUP5 PUSH1 0x40 MLOAD PUSH32 0x57F447CE00000000000000000000000000000000000000000000000000000000 DUP2 MSTORE PUSH1 0x4 ADD PUSH2 0x2CC2 SWAP2 SWAP1 PUSH2 0x3D5D JUMP JUMPDEST PUSH1 0x40 MLOAD DUP1 SWAP2 SUB SWAP1 REVERT JUMPDEST POP JUMPDEST POP POP POP POP POP POP JUMP JUMPDEST PUSH2 0x2CE1 DUP5 DUP5 DUP5 DUP5 PUSH2 0x2E52 JUMP JUMPDEST PUSH0 PUSH20 0xFFFFFFFFFFFFFFFFFFFFFFFFFFFFFFFFFFFFFFFF AND DUP5 PUSH20 0xFFFFFFFFFFFFFFFFFFFFFFFFFFFFFFFFFFFFFFFF AND SUB PUSH2 0x2DA4 JUMPI PUSH0 DUP1 JUMPDEST DUP4 MLOAD DUP2 LT ISZERO PUSH2 0x2D89 JUMPI PUSH0 PUSH2 0x2D34 DUP3 DUP6 PUSH2 0x2130 SWAP1 SWAP2 SWAP1 PUSH4 0xFFFFFFFF AND JUMP JUMPDEST SWAP1 POP DUP1 PUSH1 0x4 PUSH0 PUSH2 0x2D4D DUP6 DUP10 PUSH2 0x2130 SWAP1 SWAP2 SWAP1 PUSH4 0xFFFFFFFF AND JUMP JUMPDEST DUP2 MSTORE PUSH1 0x20 ADD SWAP1 DUP2 MSTORE PUSH1 0x20 ADD PUSH0 KECCAK256 PUSH0 DUP3 DUP3 SLOAD PUSH2 0x2D68 SWAP2 SWAP1 PUSH2 0x428C JUMP JUMPDEST SWAP3 POP POP DUP2 SWAP1 SSTORE POP DUP1 DUP4 PUSH2 0x2D7B SWAP2 SWAP1 PUSH2 0x428C JUMP JUMPDEST SWAP3 POP POP DUP1 PUSH1 0x1 ADD SWAP1 POP PUSH2 0x2D17 JUMP JUMPDEST POP DUP1 PUSH1 0x5 PUSH0 DUP3 DUP3 SLOAD PUSH2 0x2D9B SWAP2 SWAP1 PUSH2 0x428C JUMP JUMPDEST SWAP3 POP POP DUP2 SWAP1 SSTORE POP POP JUMPDEST PUSH0 PUSH20 0xFFFFFFFFFFFFFFFFFFFFFFFFFFFFFFFFFFFFFFFF AND DUP4 PUSH20 0xFFFFFFFFFFFFFFFFFFFFFFFFFFFFFFFFFFFFFFFF AND SUB PUSH2 0x2E4C JUMPI PUSH0 DUP1 JUMPDEST DUP4 MLOAD DUP2 LT ISZERO PUSH2 0x2E3A JUMPI PUSH0 PUSH2 0x2DF7 DUP3 DUP6 PUSH2 0x2130 SWAP1 SWAP2 SWAP1 PUSH4 0xFFFFFFFF AND JUMP JUMPDEST SWAP1 POP DUP1 PUSH1 0x4 PUSH0 PUSH2 0x2E10 DUP6 DUP10 PUSH2 0x2130 SWAP1 SWAP2 SWAP1 PUSH4 0xFFFFFFFF AND JUMP JUMPDEST DUP2 MSTORE PUSH1 0x20 ADD SWAP1 DUP2 MSTORE PUSH1 0x20 ADD PUSH0 KECCAK256 PUSH0 DUP3 DUP3 SLOAD SUB SWAP3 POP POP DUP2 SWAP1 SSTORE POP DUP1 DUP4 ADD SWAP3 POP POP DUP1 PUSH1 0x1 ADD SWAP1 POP PUSH2 0x2DDA JUMP JUMPDEST POP DUP1 PUSH1 0x5 PUSH0 DUP3 DUP3 SLOAD SUB SWAP3 POP POP DUP2 SWAP1 SSTORE POP POP JUMPDEST POP POP POP POP JUMP JUMPDEST PUSH2 0x2E5A PUSH2 0x28F4 JUMP JUMPDEST PUSH2 0x2E66 DUP5 DUP5 DUP5 DUP5 PUSH2 0x2E6C JUMP JUMPDEST POP POP POP POP JUMP JUMPDEST DUP1 MLOAD DUP3 MLOAD EQ PUSH2 0x2EB6 JUMPI DUP2 MLOAD DUP2 MLOAD PUSH1 0x40 MLOAD PUSH32 0x5B05999100000000000000000000000000000000000000000000000000000000 DUP2 MSTORE PUSH1 0x4 ADD PUSH2 0x2EAD SWAP3 SWAP2 SWAP1 PUSH2 0x4368 JUMP JUMPDEST PUSH1 0x40 MLOAD DUP1 SWAP2 SUB SWAP1 REVERT JUMPDEST PUSH0 PUSH2 0x2EBF PUSH2 0xA69 JUMP JUMPDEST SWAP1 POP PUSH0 JUMPDEST DUP4 MLOAD DUP2 LT ISZERO PUSH2 0x30BB JUMPI PUSH0 PUSH2 0x2EE0 DUP3 DUP7 PUSH2 0x2130 SWAP1 SWAP2 SWAP1 PUSH4 0xFFFFFFFF AND JUMP JUMPDEST SWAP1 POP PUSH0 PUSH2 0x2EF6 DUP4 DUP7 PUSH2 0x2130 SWAP1 SWAP2 SWAP1 PUSH4 0xFFFFFFFF AND JUMP JUMPDEST SWAP1 POP PUSH0 PUSH20 0xFFFFFFFFFFFFFFFFFFFFFFFFFFFFFFFFFFFFFFFF AND DUP9 PUSH20 0xFFFFFFFFFFFFFFFFFFFFFFFFFFFFFFFFFFFFFFFF AND EQ PUSH2 0x3019 JUMPI PUSH0 DUP1 PUSH0 DUP5 DUP2 MSTORE PUSH1 0x20 ADD SWAP1 DUP2 MSTORE PUSH1 0x20 ADD PUSH0 KECCAK256 PUSH0 DUP11 PUSH20 0xFFFFFFFFFFFFFFFFFFFFFFFFFFFFFFFFFFFFFFFF AND PUSH20 0xFFFFFFFFFFFFFFFFFFFFFFFFFFFFFFFFFFFFFFFF AND DUP2 MSTORE PUSH1 0x20 ADD SWAP1 DUP2 MSTORE PUSH1 0x20 ADD PUSH0 KECCAK256 SLOAD SWAP1 POP DUP2 DUP2 LT ISZERO PUSH2 0x2FC5 JUMPI DUP9 DUP2 DUP4 DUP6 PUSH1 0x40 MLOAD PUSH32 0x3DEE4C500000000000000000000000000000000000000000000000000000000 DUP2 MSTORE PUSH1 0x4 ADD PUSH2 0x2FBC SWAP5 SWAP4 SWAP3 SWAP2 SWAP1 PUSH2 0x4B09 JUMP JUMPDEST PUSH1 0x40 MLOAD DUP1 SWAP2 SUB SWAP1 REVERT JUMPDEST DUP2 DUP2 SUB PUSH0 DUP1 DUP6 DUP2 MSTORE PUSH1 0x20 ADD SWAP1 DUP2 MSTORE PUSH1 0x20 ADD PUSH0 KECCAK256 PUSH0 DUP12 PUSH20 0xFFFFFFFFFFFFFFFFFFFFFFFFFFFFFFFFFFFFFFFF AND PUSH20 0xFFFFFFFFFFFFFFFFFFFFFFFFFFFFFFFFFFFFFFFF AND DUP2 MSTORE PUSH1 0x20 ADD SWAP1 DUP2 MSTORE PUSH1 0x20 ADD PUSH0 KECCAK256 DUP2 SWAP1 SSTORE POP POP JUMPDEST PUSH0 PUSH20 0xFFFFFFFFFFFFFFFFFFFFFFFFFFFFFFFFFFFFFFFF AND DUP8 PUSH20 0xFFFFFFFFFFFFFFFFFFFFFFFFFFFFFFFFFFFFFFFF AND EQ PUSH2 0x30AE JUMPI DUP1 PUSH0 DUP1 DUP5 DUP2 MSTORE PUSH1 0x20 ADD SWAP1 DUP2 MSTORE PUSH1 0x20 ADD PUSH0 KECCAK256 PUSH0 DUP10 PUSH20 0xFFFFFFFFFFFFFFFFFFFFFFFFFFFFFFFFFFFFFFFF AND PUSH20 0xFFFFFFFFFFFFFFFFFFFFFFFFFFFFFFFFFFFFFFFF AND DUP2 MSTORE PUSH1 0x20 ADD SWAP1 DUP2 MSTORE PUSH1 0x20 ADD PUSH0 KECCAK256 PUSH0 DUP3 DUP3 SLOAD PUSH2 0x30A6 SWAP2 SWAP1 PUSH2 0x428C JUMP JUMPDEST SWAP3 POP POP DUP2 SWAP1 SSTORE POP JUMPDEST POP POP DUP1 PUSH1 0x1 ADD SWAP1 POP PUSH2 0x2EC3 JUMP JUMPDEST POP PUSH1 0x1 DUP4 MLOAD SUB PUSH2 0x3176 JUMPI PUSH0 PUSH2 0x30D9 PUSH0 DUP6 PUSH2 0x2130 SWAP1 SWAP2 SWAP1 PUSH4 0xFFFFFFFF AND JUMP JUMPDEST SWAP1 POP PUSH0 PUSH2 0x30EF PUSH0 DUP6 PUSH2 0x2130 SWAP1 SWAP2 SWAP1 PUSH4 0xFFFFFFFF AND JUMP JUMPDEST SWAP1 POP DUP6 PUSH20 0xFFFFFFFFFFFFFFFFFFFFFFFFFFFFFFFFFFFFFFFF AND DUP8 PUSH20 0xFFFFFFFFFFFFFFFFFFFFFFFFFFFFFFFFFFFFFFFF AND DUP5 PUSH20 0xFFFFFFFFFFFFFFFFFFFFFFFFFFFFFFFFFFFFFFFF AND PUSH32 0xC3D58168C5AE7397731D063D5BBF3D657854427343F4C083240F7AACAA2D0F62 DUP6 DUP6 PUSH1 0x40 MLOAD PUSH2 0x3167 SWAP3 SWAP2 SWAP1 PUSH2 0x4368 JUMP JUMPDEST PUSH1 0x40 MLOAD DUP1 SWAP2 SUB SWAP1 LOG4 POP POP PUSH2 0x31F5 JUMP JUMPDEST DUP4 PUSH20 0xFFFFFFFFFFFFFFFFFFFFFFFFFFFFFFFFFFFFFFFF AND DUP6 PUSH20 0xFFFFFFFFFFFFFFFFFFFFFFFFFFFFFFFFFFFFFFFF AND DUP3 PUSH20 0xFFFFFFFFFFFFFFFFFFFFFFFFFFFFFFFFFFFFFFFF AND PUSH32 0x4A39DC06D4C0DBC64B70AF90FD698A233A518AA5D07E595D983B8C0526C8F7FB DUP7 DUP7 PUSH1 0x40 MLOAD PUSH2 0x31EC SWAP3 SWAP2 SWAP1 PUSH2 0x4B4C JUMP JUMPDEST PUSH1 0x40 MLOAD DUP1 SWAP2 SUB SWAP1 LOG4 JUMPDEST POP POP POP POP POP JUMP JUMPDEST PUSH0 PUSH20 0xFFFFFFFFFFFFFFFFFFFFFFFFFFFFFFFFFFFFFFFF DUP3 AND SWAP1 POP SWAP2 SWAP1 POP JUMP JUMPDEST PUSH0 PUSH2 0x3225 DUP3 PUSH2 0x31FC JUMP JUMPDEST SWAP1 POP SWAP2 SWAP1 POP JUMP JUMPDEST PUSH2 0x3235 DUP2 PUSH2 0x321B JUMP JUMPDEST DUP3 MSTORE POP POP JUMP JUMPDEST PUSH0 DUP2 SWAP1 POP SWAP2 SWAP1 POP JUMP JUMPDEST PUSH2 0x324D DUP2 PUSH2 0x323B JUMP JUMPDEST DUP3 MSTORE POP POP JUMP JUMPDEST PUSH0 PUSH1 0x40 DUP3 ADD SWAP1 POP PUSH2 0x3266 PUSH0 DUP4 ADD DUP6 PUSH2 0x322C JUMP JUMPDEST PUSH2 0x3273 PUSH1 0x20 DUP4 ADD DUP5 PUSH2 0x3244 JUMP JUMPDEST SWAP4 SWAP3 POP POP POP JUMP JUMPDEST PUSH0 PUSH1 0x40 MLOAD SWAP1 POP SWAP1 JUMP JUMPDEST PUSH0 DUP1 REVERT JUMPDEST PUSH0 DUP1 REVERT JUMPDEST PUSH2 0x3294 DUP2 PUSH2 0x321B JUMP JUMPDEST DUP2 EQ PUSH2 0x329E JUMPI PUSH0 DUP1 REVERT JUMPDEST POP JUMP JUMPDEST PUSH0 DUP2 CALLDATALOAD SWAP1 POP PUSH2 0x32AF DUP2 PUSH2 0x328B JUMP JUMPDEST SWAP3 SWAP2 POP POP JUMP JUMPDEST PUSH2 0x32BE DUP2 PUSH2 0x323B JUMP JUMPDEST DUP2 EQ PUSH2 0x32C8 JUMPI PUSH0 DUP1 REVERT JUMPDEST POP JUMP JUMPDEST PUSH0 DUP2 CALLDATALOAD SWAP1 POP PUSH2 0x32D9 DUP2 PUSH2 0x32B5 JUMP JUMPDEST SWAP3 SWAP2 POP POP JUMP JUMPDEST PUSH0 DUP1 PUSH1 0x40 DUP4 DUP6 SUB SLT ISZERO PUSH2 0x32F5 JUMPI PUSH2 0x32F4 PUSH2 0x3283 JUMP JUMPDEST JUMPDEST PUSH0 PUSH2 0x3302 DUP6 DUP3 DUP7 ADD PUSH2 0x32A1 JUMP JUMPDEST SWAP3 POP POP PUSH1 0x20 PUSH2 0x3313 DUP6 DUP3 DUP7 ADD PUSH2 0x32CB JUMP JUMPDEST SWAP2 POP POP SWAP3 POP SWAP3 SWAP1 POP JUMP JUMPDEST PUSH0 PUSH1 0x20 DUP3 ADD SWAP1 POP PUSH2 0x3330 PUSH0 DUP4 ADD DUP5 PUSH2 0x3244 JUMP JUMPDEST SWAP3 SWAP2 POP POP JUMP JUMPDEST PUSH0 PUSH32 0xFFFFFFFF00000000000000000000000000000000000000000000000000000000 DUP3 AND SWAP1 POP SWAP2 SWAP1 POP JUMP JUMPDEST PUSH2 0x336A DUP2 PUSH2 0x3336 JUMP JUMPDEST DUP2 EQ PUSH2 0x3374 JUMPI PUSH0 DUP1 REVERT JUMPDEST POP JUMP JUMPDEST PUSH0 DUP2 CALLDATALOAD SWAP1 POP PUSH2 0x3385 DUP2 PUSH2 0x3361 JUMP JUMPDEST SWAP3 SWAP2 POP POP JUMP JUMPDEST PUSH0 PUSH1 0x20 DUP3 DUP5 SUB SLT ISZERO PUSH2 0x33A0 JUMPI PUSH2 0x339F PUSH2 0x3283 JUMP JUMPDEST JUMPDEST PUSH0 PUSH2 0x33AD DUP5 DUP3 DUP6 ADD PUSH2 0x3377 JUMP JUMPDEST SWAP2 POP POP SWAP3 SWAP2 POP POP JUMP JUMPDEST PUSH0 DUP2 ISZERO ISZERO SWAP1 POP SWAP2 SWAP1 POP JUMP JUMPDEST PUSH2 0x33CA DUP2 PUSH2 0x33B6 JUMP JUMPDEST DUP3 MSTORE POP POP JUMP JUMPDEST PUSH0 PUSH1 0x20 DUP3 ADD SWAP1 POP PUSH2 0x33E3 PUSH0 DUP4 ADD DUP5 PUSH2 0x33C1 JUMP JUMPDEST SWAP3 SWAP2 POP POP JUMP JUMPDEST PUSH0 DUP1 REVERT JUMPDEST PUSH0 DUP1 REVERT JUMPDEST PUSH0 PUSH1 0x1F NOT PUSH1 0x1F DUP4 ADD AND SWAP1 POP SWAP2 SWAP1 POP JUMP JUMPDEST PUSH32 0x4E487B7100000000000000000000000000000000000000000000000000000000 PUSH0 MSTORE PUSH1 0x41 PUSH1 0x4 MSTORE PUSH1 0x24 PUSH0 REVERT JUMPDEST PUSH2 0x3437 DUP3 PUSH2 0x33F1 JUMP JUMPDEST DUP2 ADD DUP2 DUP2 LT PUSH8 0xFFFFFFFFFFFFFFFF DUP3 GT OR ISZERO PUSH2 0x3456 JUMPI PUSH2 0x3455 PUSH2 0x3401 JUMP JUMPDEST JUMPDEST DUP1 PUSH1 0x40 MSTORE POP POP POP JUMP JUMPDEST PUSH0 PUSH2 0x3468 PUSH2 0x327A JUMP JUMPDEST SWAP1 POP PUSH2 0x3474 DUP3 DUP3 PUSH2 0x342E JUMP JUMPDEST SWAP2 SWAP1 POP JUMP JUMPDEST PUSH0 PUSH8 0xFFFFFFFFFFFFFFFF DUP3 GT ISZERO PUSH2 0x3493 JUMPI PUSH2 0x3492 PUSH2 0x3401 JUMP JUMPDEST JUMPDEST PUSH2 0x349C DUP3 PUSH2 0x33F1 JUMP JUMPDEST SWAP1 POP PUSH1 0x20 DUP2 ADD SWAP1 POP SWAP2 SWAP1 POP JUMP JUMPDEST DUP3 DUP2 DUP4 CALLDATACOPY PUSH0 DUP4 DUP4 ADD MSTORE POP POP POP JUMP JUMPDEST PUSH0 PUSH2 0x34C9 PUSH2 0x34C4 DUP5 PUSH2 0x3479 JUMP JUMPDEST PUSH2 0x345F JUMP JUMPDEST SWAP1 POP DUP3 DUP2 MSTORE PUSH1 0x20 DUP2 ADD DUP5 DUP5 DUP5 ADD GT ISZERO PUSH2 0x34E5 JUMPI PUSH2 0x34E4 PUSH2 0x33ED JUMP JUMPDEST JUMPDEST PUSH2 0x34F0 DUP5 DUP3 DUP6 PUSH2 0x34A9 JUMP JUMPDEST POP SWAP4 SWAP3 POP POP POP JUMP JUMPDEST PUSH0 DUP3 PUSH1 0x1F DUP4 ADD SLT PUSH2 0x350C JUMPI PUSH2 0x350B PUSH2 0x33E9 JUMP JUMPDEST JUMPDEST DUP2 CALLDATALOAD PUSH2 0x351C DUP5 DUP3 PUSH1 0x20 DUP7 ADD PUSH2 0x34B7 JUMP JUMPDEST SWAP2 POP POP SWAP3 SWAP2 POP POP JUMP JUMPDEST PUSH0 PUSH1 0x20 DUP3 DUP5 SUB SLT ISZERO PUSH2 0x353A JUMPI PUSH2 0x3539 PUSH2 0x3283 JUMP JUMPDEST JUMPDEST PUSH0 DUP3 ADD CALLDATALOAD PUSH8 0xFFFFFFFFFFFFFFFF DUP2 GT ISZERO PUSH2 0x3557 JUMPI PUSH2 0x3556 PUSH2 0x3287 JUMP JUMPDEST JUMPDEST PUSH2 0x3563 DUP5 DUP3 DUP6 ADD PUSH2 0x34F8 JUMP JUMPDEST SWAP2 POP POP SWAP3 SWAP2 POP POP JUMP JUMPDEST PUSH0 PUSH1 0x20 DUP3 DUP5 SUB SLT ISZERO PUSH2 0x3581 JUMPI PUSH2 0x3580 PUSH2 0x3283 JUMP JUMPDEST JUMPDEST PUSH0 PUSH2 0x358E DUP5 DUP3 DUP6 ADD PUSH2 0x32CB JUMP JUMPDEST SWAP2 POP POP SWAP3 SWAP2 POP POP JUMP JUMPDEST PUSH0 DUP2 MLOAD SWAP1 POP SWAP2 SWAP1 POP JUMP JUMPDEST PUSH0 DUP3 DUP3 MSTORE PUSH1 0x20 DUP3 ADD SWAP1 POP SWAP3 SWAP2 POP POP JUMP JUMPDEST DUP3 DUP2 DUP4 MCOPY PUSH0 DUP4 DUP4 ADD MSTORE POP POP POP JUMP JUMPDEST PUSH0 PUSH2 0x35C9 DUP3 PUSH2 0x3597 JUMP JUMPDEST PUSH2 0x35D3 DUP2 DUP6 PUSH2 0x35A1 JUMP JUMPDEST SWAP4 POP PUSH2 0x35E3 DUP2 DUP6 PUSH1 0x20 DUP7 ADD PUSH2 0x35B1 JUMP JUMPDEST PUSH2 0x35EC DUP2 PUSH2 0x33F1 JUMP JUMPDEST DUP5 ADD SWAP2 POP POP SWAP3 SWAP2 POP POP JUMP JUMPDEST PUSH0 PUSH1 0x20 DUP3 ADD SWAP1 POP DUP2 DUP2 SUB PUSH0 DUP4 ADD MSTORE PUSH2 0x360F DUP2 DUP5 PUSH2 0x35BF JUMP JUMPDEST SWAP1 POP SWAP3 SWAP2 POP POP JUMP JUMPDEST PUSH0 DUP1 PUSH1 0x40 DUP4 DUP6 SUB SLT ISZERO PUSH2 0x362D JUMPI PUSH2 0x362C PUSH2 0x3283 JUMP JUMPDEST JUMPDEST PUSH0 PUSH2 0x363A DUP6 DUP3 DUP7 ADD PUSH2 0x32CB JUMP JUMPDEST SWAP3 POP POP PUSH1 0x20 PUSH2 0x364B DUP6 DUP3 DUP7 ADD PUSH2 0x32CB JUMP JUMPDEST SWAP2 POP POP SWAP3 POP SWAP3 SWAP1 POP JUMP JUMPDEST PUSH0 PUSH2 0x365F DUP3 PUSH2 0x31FC JUMP JUMPDEST SWAP1 POP SWAP2 SWAP1 POP JUMP JUMPDEST PUSH2 0x366F DUP2 PUSH2 0x3655 JUMP JUMPDEST DUP2 EQ PUSH2 0x3679 JUMPI PUSH0 DUP1 REVERT JUMPDEST POP JUMP JUMPDEST PUSH0 DUP2 CALLDATALOAD SWAP1 POP PUSH2 0x368A DUP2 PUSH2 0x3666 JUMP JUMPDEST SWAP3 SWAP2 POP POP JUMP JUMPDEST PUSH0 PUSH1 0x20 DUP3 DUP5 SUB SLT ISZERO PUSH2 0x36A5 JUMPI PUSH2 0x36A4 PUSH2 0x3283 JUMP JUMPDEST JUMPDEST PUSH0 PUSH2 0x36B2 DUP5 DUP3 DUP6 ADD PUSH2 0x367C JUMP JUMPDEST SWAP2 POP POP SWAP3 SWAP2 POP POP JUMP JUMPDEST PUSH0 PUSH8 0xFFFFFFFFFFFFFFFF DUP3 GT ISZERO PUSH2 0x36D5 JUMPI PUSH2 0x36D4 PUSH2 0x3401 JUMP JUMPDEST JUMPDEST PUSH1 0x20 DUP3 MUL SWAP1 POP PUSH1 0x20 DUP2 ADD SWAP1 POP SWAP2 SWAP1 POP JUMP JUMPDEST PUSH0 DUP1 REVERT JUMPDEST PUSH0 PUSH2 0x36FC PUSH2 0x36F7 DUP5 PUSH2 0x36BB JUMP JUMPDEST PUSH2 0x345F JUMP JUMPDEST SWAP1 POP DUP1 DUP4 DUP3 MSTORE PUSH1 0x20 DUP3 ADD SWAP1 POP PUSH1 0x20 DUP5 MUL DUP4 ADD DUP6 DUP2 GT ISZERO PUSH2 0x371F JUMPI PUSH2 0x371E PUSH2 0x36E6 JUMP JUMPDEST JUMPDEST DUP4 JUMPDEST DUP2 DUP2 LT ISZERO PUSH2 0x3748 JUMPI DUP1 PUSH2 0x3734 DUP9 DUP3 PUSH2 0x32CB JUMP JUMPDEST DUP5 MSTORE PUSH1 0x20 DUP5 ADD SWAP4 POP POP PUSH1 0x20 DUP2 ADD SWAP1 POP PUSH2 0x3721 JUMP JUMPDEST POP POP POP SWAP4 SWAP3 POP POP POP JUMP JUMPDEST PUSH0 DUP3 PUSH1 0x1F DUP4 ADD SLT PUSH2 0x3766 JUMPI PUSH2 0x3765 PUSH2 0x33E9 JUMP JUMPDEST JUMPDEST DUP2 CALLDATALOAD PUSH2 0x3776 DUP5 DUP3 PUSH1 0x20 DUP7 ADD PUSH2 0x36EA JUMP JUMPDEST SWAP2 POP POP SWAP3 SWAP2 POP POP JUMP JUMPDEST PUSH0 PUSH8 0xFFFFFFFFFFFFFFFF DUP3 GT ISZERO PUSH2 0x3799 JUMPI PUSH2 0x3798 PUSH2 0x3401 JUMP JUMPDEST JUMPDEST PUSH2 0x37A2 DUP3 PUSH2 0x33F1 JUMP JUMPDEST SWAP1 POP PUSH1 0x20 DUP2 ADD SWAP1 POP SWAP2 SWAP1 POP JUMP JUMPDEST PUSH0 PUSH2 0x37C1 PUSH2 0x37BC DUP5 PUSH2 0x377F JUMP JUMPDEST PUSH2 0x345F JUMP JUMPDEST SWAP1 POP DUP3 DUP2 MSTORE PUSH1 0x20 DUP2 ADD DUP5 DUP5 DUP5 ADD GT ISZERO PUSH2 0x37DD JUMPI PUSH2 0x37DC PUSH2 0x33ED JUMP JUMPDEST JUMPDEST PUSH2 0x37E8 DUP5 DUP3 DUP6 PUSH2 0x34A9 JUMP JUMPDEST POP SWAP4 SWAP3 POP POP POP JUMP JUMPDEST PUSH0 DUP3 PUSH1 0x1F DUP4 ADD SLT PUSH2 0x3804 JUMPI PUSH2 0x3803 PUSH2 0x33E9 JUMP JUMPDEST JUMPDEST DUP2 CALLDATALOAD PUSH2 0x3814 DUP5 DUP3 PUSH1 0x20 DUP7 ADD PUSH2 0x37AF JUMP JUMPDEST SWAP2 POP POP SWAP3 SWAP2 POP POP JUMP JUMPDEST PUSH0 DUP1 PUSH0 DUP1 PUSH1 0x80 DUP6 DUP8 SUB SLT ISZERO PUSH2 0x3835 JUMPI PUSH2 0x3834 PUSH2 0x3283 JUMP JUMPDEST JUMPDEST PUSH0 PUSH2 0x3842 DUP8 DUP3 DUP9 ADD PUSH2 0x32A1 JUMP JUMPDEST SWAP5 POP POP PUSH1 0x20 DUP6 ADD CALLDATALOAD PUSH8 0xFFFFFFFFFFFFFFFF DUP2 GT ISZERO PUSH2 0x3863 JUMPI PUSH2 0x3862 PUSH2 0x3287 JUMP JUMPDEST JUMPDEST PUSH2 0x386F DUP8 DUP3 DUP9 ADD PUSH2 0x3752 JUMP JUMPDEST SWAP4 POP POP PUSH1 0x40 DUP6 ADD CALLDATALOAD PUSH8 0xFFFFFFFFFFFFFFFF DUP2 GT ISZERO PUSH2 0x3890 JUMPI PUSH2 0x388F PUSH2 0x3287 JUMP JUMPDEST JUMPDEST PUSH2 0x389C DUP8 DUP3 DUP9 ADD PUSH2 0x3752 JUMP JUMPDEST SWAP3 POP POP PUSH1 0x60 DUP6 ADD CALLDATALOAD PUSH8 0xFFFFFFFFFFFFFFFF DUP2 GT ISZERO PUSH2 0x38BD JUMPI PUSH2 0x38BC PUSH2 0x3287 JUMP JUMPDEST JUMPDEST PUSH2 0x38C9 DUP8 DUP3 DUP9 ADD PUSH2 0x37F0 JUMP JUMPDEST SWAP2 POP POP SWAP3 SWAP6 SWAP2 SWAP5 POP SWAP3 POP JUMP JUMPDEST PUSH0 PUSH1 0x20 DUP3 DUP5 SUB SLT ISZERO PUSH2 0x38EA JUMPI PUSH2 0x38E9 PUSH2 0x3283 JUMP JUMPDEST JUMPDEST PUSH0 PUSH2 0x38F7 DUP5 DUP3 DUP6 ADD PUSH2 0x32A1 JUMP JUMPDEST SWAP2 POP POP SWAP3 SWAP2 POP POP JUMP JUMPDEST PUSH0 DUP1 PUSH0 DUP1 PUSH0 PUSH1 0xA0 DUP7 DUP9 SUB SLT ISZERO PUSH2 0x3919 JUMPI PUSH2 0x3918 PUSH2 0x3283 JUMP JUMPDEST JUMPDEST PUSH0 PUSH2 0x3926 DUP9 DUP3 DUP10 ADD PUSH2 0x32A1 JUMP JUMPDEST SWAP6 POP POP PUSH1 0x20 PUSH2 0x3937 DUP9 DUP3 DUP10 ADD PUSH2 0x32A1 JUMP JUMPDEST SWAP5 POP POP PUSH1 0x40 DUP7 ADD CALLDATALOAD PUSH8 0xFFFFFFFFFFFFFFFF DUP2 GT ISZERO PUSH2 0x3958 JUMPI PUSH2 0x3957 PUSH2 0x3287 JUMP JUMPDEST JUMPDEST PUSH2 0x3964 DUP9 DUP3 DUP10 ADD PUSH2 0x3752 JUMP JUMPDEST SWAP4 POP POP PUSH1 0x60 DUP7 ADD CALLDATALOAD PUSH8 0xFFFFFFFFFFFFFFFF DUP2 GT ISZERO PUSH2 0x3985 JUMPI PUSH2 0x3984 PUSH2 0x3287 JUMP JUMPDEST JUMPDEST PUSH2 0x3991 DUP9 DUP3 DUP10 ADD PUSH2 0x3752 JUMP JUMPDEST SWAP3 POP POP PUSH1 0x80 DUP7 ADD CALLDATALOAD PUSH8 0xFFFFFFFFFFFFFFFF DUP2 GT ISZERO PUSH2 0x39B2 JUMPI PUSH2 0x39B1 PUSH2 0x3287 JUMP JUMPDEST JUMPDEST PUSH2 0x39BE DUP9 DUP3 DUP10 ADD PUSH2 0x37F0 JUMP JUMPDEST SWAP2 POP POP SWAP3 SWAP6 POP SWAP3 SWAP6 SWAP1 SWAP4 POP JUMP JUMPDEST PUSH2 0x39D4 DUP2 PUSH2 0x33B6 JUMP JUMPDEST DUP2 EQ PUSH2 0x39DE JUMPI PUSH0 DUP1 REVERT JUMPDEST POP JUMP JUMPDEST PUSH0 DUP2 CALLDATALOAD SWAP1 POP PUSH2 0x39EF DUP2 PUSH2 0x39CB JUMP JUMPDEST SWAP3 SWAP2 POP POP JUMP JUMPDEST PUSH0 DUP1 PUSH1 0x40 DUP4 DUP6 SUB SLT ISZERO PUSH2 0x3A0B JUMPI PUSH2 0x3A0A PUSH2 0x3283 JUMP JUMPDEST JUMPDEST PUSH0 PUSH2 0x3A18 DUP6 DUP3 DUP7 ADD PUSH2 0x39E1 JUMP JUMPDEST SWAP3 POP POP PUSH1 0x20 PUSH2 0x3A29 DUP6 DUP3 DUP7 ADD PUSH2 0x39E1 JUMP JUMPDEST SWAP2 POP POP SWAP3 POP SWAP3 SWAP1 POP JUMP JUMPDEST PUSH0 PUSH2 0x3A3D DUP3 PUSH2 0x321B JUMP JUMPDEST SWAP1 POP SWAP2 SWAP1 POP JUMP JUMPDEST PUSH2 0x3A4D DUP2 PUSH2 0x3A33 JUMP JUMPDEST DUP2 EQ PUSH2 0x3A57 JUMPI PUSH0 DUP1 REVERT JUMPDEST POP JUMP JUMPDEST PUSH0 DUP2 CALLDATALOAD SWAP1 POP PUSH2 0x3A68 DUP2 PUSH2 0x3A44 JUMP JUMPDEST SWAP3 SWAP2 POP POP JUMP JUMPDEST PUSH0 DUP1 PUSH1 0x40 DUP4 DUP6 SUB SLT ISZERO PUSH2 0x3A84 JUMPI PUSH2 0x3A83 PUSH2 0x3283 JUMP JUMPDEST JUMPDEST PUSH0 PUSH2 0x3A91 DUP6 DUP3 DUP7 ADD PUSH2 0x3A5A JUMP JUMPDEST SWAP3 POP POP PUSH1 0x20 PUSH2 0x3AA2 DUP6 DUP3 DUP7 ADD PUSH2 0x32A1 JUMP JUMPDEST SWAP2 POP POP SWAP3 POP SWAP3 SWAP1 POP JUMP JUMPDEST PUSH0 PUSH8 0xFFFFFFFFFFFFFFFF DUP3 GT ISZERO PUSH2 0x3AC6 JUMPI PUSH2 0x3AC5 PUSH2 0x3401 JUMP JUMPDEST JUMPDEST PUSH1 0x20 DUP3 MUL SWAP1 POP PUSH1 0x20 DUP2 ADD SWAP1 POP SWAP2 SWAP1 POP JUMP JUMPDEST PUSH0 PUSH2 0x3AE9 PUSH2 0x3AE4 DUP5 PUSH2 0x3AAC JUMP JUMPDEST PUSH2 0x345F JUMP JUMPDEST SWAP1 POP DUP1 DUP4 DUP3 MSTORE PUSH1 0x20 DUP3 ADD SWAP1 POP PUSH1 0x20 DUP5 MUL DUP4 ADD DUP6 DUP2 GT ISZERO PUSH2 0x3B0C JUMPI PUSH2 0x3B0B PUSH2 0x36E6 JUMP JUMPDEST JUMPDEST DUP4 JUMPDEST DUP2 DUP2 LT ISZERO PUSH2 0x3B35 JUMPI DUP1 PUSH2 0x3B21 DUP9 DUP3 PUSH2 0x32A1 JUMP JUMPDEST DUP5 MSTORE PUSH1 0x20 DUP5 ADD SWAP4 POP POP PUSH1 0x20 DUP2 ADD SWAP1 POP PUSH2 0x3B0E JUMP JUMPDEST POP POP POP SWAP4 SWAP3 POP POP POP JUMP JUMPDEST PUSH0 DUP3 PUSH1 0x1F DUP4 ADD SLT PUSH2 0x3B53 JUMPI PUSH2 0x3B52 PUSH2 0x33E9 JUMP JUMPDEST JUMPDEST DUP2 CALLDATALOAD PUSH2 0x3B63 DUP5 DUP3 PUSH1 0x20 DUP7 ADD PUSH2 0x3AD7 JUMP JUMPDEST SWAP2 POP POP SWAP3 SWAP2 POP POP JUMP JUMPDEST PUSH0 DUP1 PUSH1 0x40 DUP4 DUP6 SUB SLT ISZERO PUSH2 0x3B82 JUMPI PUSH2 0x3B81 PUSH2 0x3283 JUMP JUMPDEST JUMPDEST PUSH0 DUP4 ADD CALLDATALOAD PUSH8 0xFFFFFFFFFFFFFFFF DUP2 GT ISZERO PUSH2 0x3B9F JUMPI PUSH2 0x3B9E PUSH2 0x3287 JUMP JUMPDEST JUMPDEST PUSH2 0x3BAB DUP6 DUP3 DUP7 ADD PUSH2 0x3B3F JUMP JUMPDEST SWAP3 POP POP PUSH1 0x20 DUP4 ADD CALLDATALOAD PUSH8 0xFFFFFFFFFFFFFFFF DUP2 GT ISZERO PUSH2 0x3BCC JUMPI PUSH2 0x3BCB PUSH2 0x3287 JUMP JUMPDEST JUMPDEST PUSH2 0x3BD8 DUP6 DUP3 DUP7 ADD PUSH2 0x3752 JUMP JUMPDEST SWAP2 POP POP SWAP3 POP SWAP3 SWAP1 POP JUMP JUMPDEST PUSH0 DUP2 MLOAD SWAP1 POP SWAP2 SWAP1 POP JUMP JUMPDEST PUSH0 DUP3 DUP3 MSTORE PUSH1 0x20 DUP3 ADD SWAP1 POP SWAP3 SWAP2 POP POP JUMP JUMPDEST PUSH0 DUP2 SWAP1 POP PUSH1 0x20 DUP3 ADD SWAP1 POP SWAP2 SWAP1 POP JUMP JUMPDEST PUSH2 0x3C14 DUP2 PUSH2 0x323B JUMP JUMPDEST DUP3 MSTORE POP POP JUMP JUMPDEST PUSH0 PUSH2 0x3C25 DUP4 DUP4 PUSH2 0x3C0B JUMP JUMPDEST PUSH1 0x20 DUP4 ADD SWAP1 POP SWAP3 SWAP2 POP POP JUMP JUMPDEST PUSH0 PUSH1 0x20 DUP3 ADD SWAP1 POP SWAP2 SWAP1 POP JUMP JUMPDEST PUSH0 PUSH2 0x3C47 DUP3 PUSH2 0x3BE2 JUMP JUMPDEST PUSH2 0x3C51 DUP2 DUP6 PUSH2 0x3BEC JUMP JUMPDEST SWAP4 POP PUSH2 0x3C5C DUP4 PUSH2 0x3BFC JUMP JUMPDEST DUP1 PUSH0 JUMPDEST DUP4 DUP2 LT ISZERO PUSH2 0x3C8C JUMPI DUP2 MLOAD PUSH2 0x3C73 DUP9 DUP3 PUSH2 0x3C1A JUMP JUMPDEST SWAP8 POP PUSH2 0x3C7E DUP4 PUSH2 0x3C31 JUMP JUMPDEST SWAP3 POP POP PUSH1 0x1 DUP2 ADD SWAP1 POP PUSH2 0x3C5F JUMP JUMPDEST POP DUP6 SWAP4 POP POP POP POP SWAP3 SWAP2 POP POP JUMP JUMPDEST PUSH0 PUSH1 0x20 DUP3 ADD SWAP1 POP DUP2 DUP2 SUB PUSH0 DUP4 ADD MSTORE PUSH2 0x3CB1 DUP2 DUP5 PUSH2 0x3C3D JUMP JUMPDEST SWAP1 POP SWAP3 SWAP2 POP POP JUMP JUMPDEST PUSH0 DUP1 REVERT JUMPDEST PUSH0 DUP1 DUP4 PUSH1 0x1F DUP5 ADD SLT PUSH2 0x3CD2 JUMPI PUSH2 0x3CD1 PUSH2 0x33E9 JUMP JUMPDEST JUMPDEST DUP3 CALLDATALOAD SWAP1 POP PUSH8 0xFFFFFFFFFFFFFFFF DUP2 GT ISZERO PUSH2 0x3CEF JUMPI PUSH2 0x3CEE PUSH2 0x3CB9 JUMP JUMPDEST JUMPDEST PUSH1 0x20 DUP4 ADD SWAP2 POP DUP4 PUSH1 0x20 DUP3 MUL DUP4 ADD GT ISZERO PUSH2 0x3D0B JUMPI PUSH2 0x3D0A PUSH2 0x36E6 JUMP JUMPDEST JUMPDEST SWAP3 POP SWAP3 SWAP1 POP JUMP JUMPDEST PUSH0 DUP1 PUSH1 0x20 DUP4 DUP6 SUB SLT ISZERO PUSH2 0x3D28 JUMPI PUSH2 0x3D27 PUSH2 0x3283 JUMP JUMPDEST JUMPDEST PUSH0 DUP4 ADD CALLDATALOAD PUSH8 0xFFFFFFFFFFFFFFFF DUP2 GT ISZERO PUSH2 0x3D45 JUMPI PUSH2 0x3D44 PUSH2 0x3287 JUMP JUMPDEST JUMPDEST PUSH2 0x3D51 DUP6 DUP3 DUP7 ADD PUSH2 0x3CBD JUMP JUMPDEST SWAP3 POP SWAP3 POP POP SWAP3 POP SWAP3 SWAP1 POP JUMP JUMPDEST PUSH0 PUSH1 0x20 DUP3 ADD SWAP1 POP PUSH2 0x3D70 PUSH0 DUP4 ADD DUP5 PUSH2 0x322C JUMP JUMPDEST SWAP3 SWAP2 POP POP JUMP JUMPDEST PUSH0 DUP1 PUSH1 0x40 DUP4 DUP6 SUB SLT ISZERO PUSH2 0x3D8C JUMPI PUSH2 0x3D8B PUSH2 0x3283 JUMP JUMPDEST JUMPDEST PUSH0 PUSH2 0x3D99 DUP6 DUP3 DUP7 ADD PUSH2 0x32A1 JUMP JUMPDEST SWAP3 POP POP PUSH1 0x20 PUSH2 0x3DAA DUP6 DUP3 DUP7 ADD PUSH2 0x39E1 JUMP JUMPDEST SWAP2 POP POP SWAP3 POP SWAP3 SWAP1 POP JUMP JUMPDEST PUSH0 PUSH1 0x20 DUP3 DUP5 SUB SLT ISZERO PUSH2 0x3DC9 JUMPI PUSH2 0x3DC8 PUSH2 0x3283 JUMP JUMPDEST JUMPDEST PUSH0 PUSH2 0x3DD6 DUP5 DUP3 DUP6 ADD PUSH2 0x3A5A JUMP JUMPDEST SWAP2 POP POP SWAP3 SWAP2 POP POP JUMP JUMPDEST PUSH0 DUP1 PUSH1 0x40 DUP4 DUP6 SUB SLT ISZERO PUSH2 0x3DF5 JUMPI PUSH2 0x3DF4 PUSH2 0x3283 JUMP JUMPDEST JUMPDEST PUSH0 PUSH2 0x3E02 DUP6 DUP3 DUP7 ADD PUSH2 0x32A1 JUMP JUMPDEST SWAP3 POP POP PUSH1 0x20 PUSH2 0x3E13 DUP6 DUP3 DUP7 ADD PUSH2 0x32A1 JUMP JUMPDEST SWAP2 POP POP SWAP3 POP SWAP3 SWAP1 POP JUMP JUMPDEST PUSH0 DUP1 PUSH0 DUP1 PUSH0 PUSH1 0xA0 DUP7 DUP9 SUB SLT ISZERO PUSH2 0x3E36 JUMPI PUSH2 0x3E35 PUSH2 0x3283 JUMP JUMPDEST JUMPDEST PUSH0 PUSH2 0x3E43 DUP9 DUP3 DUP10 ADD PUSH2 0x32A1 JUMP JUMPDEST SWAP6 POP POP PUSH1 0x20 PUSH2 0x3E54 DUP9 DUP3 DUP10 ADD PUSH2 0x32A1 JUMP JUMPDEST SWAP5 POP POP PUSH1 0x40 PUSH2 0x3E65 DUP9 DUP3 DUP10 ADD PUSH2 0x32CB JUMP JUMPDEST SWAP4 POP POP PUSH1 0x60 PUSH2 0x3E76 DUP9 DUP3 DUP10 ADD PUSH2 0x32CB JUMP JUMPDEST SWAP3 POP POP PUSH1 0x80 DUP7 ADD CALLDATALOAD PUSH8 0xFFFFFFFFFFFFFFFF DUP2 GT ISZERO PUSH2 0x3E97 JUMPI PUSH2 0x3E96 PUSH2 0x3287 JUMP JUMPDEST JUMPDEST PUSH2 0x3EA3 DUP9 DUP3 DUP10 ADD PUSH2 0x37F0 JUMP JUMPDEST SWAP2 POP POP SWAP3 SWAP6 POP SWAP3 SWAP6 SWAP1 SWAP4 POP JUMP JUMPDEST PUSH32 0x555249206E6F74206578697374656E7420746F6B656E00000000000000000000 PUSH0 DUP3 ADD MSTORE POP JUMP JUMPDEST PUSH0 PUSH2 0x3EE4 PUSH1 0x16 DUP4 PUSH2 0x35A1 JUMP JUMPDEST SWAP2 POP PUSH2 0x3EEF DUP3 PUSH2 0x3EB0 JUMP JUMPDEST PUSH1 0x20 DUP3 ADD SWAP1 POP SWAP2 SWAP1 POP JUMP JUMPDEST PUSH0 PUSH1 0x20 DUP3 ADD SWAP1 POP DUP2 DUP2 SUB PUSH0 DUP4 ADD MSTORE PUSH2 0x3F11 DUP2 PUSH2 0x3ED8 JUMP JUMPDEST SWAP1 POP SWAP2 SWAP1 POP JUMP JUMPDEST PUSH0 DUP2 SWAP1 POP SWAP3 SWAP2 POP POP JUMP JUMPDEST PUSH0 PUSH2 0x3F2C DUP3 PUSH2 0x3597 JUMP JUMPDEST PUSH2 0x3F36 DUP2 DUP6 PUSH2 0x3F18 JUMP JUMPDEST SWAP4 POP PUSH2 0x3F46 DUP2 DUP6 PUSH1 0x20 DUP7 ADD PUSH2 0x35B1 JUMP JUMPDEST DUP1 DUP5 ADD SWAP2 POP POP SWAP3 SWAP2 POP POP JUMP JUMPDEST PUSH32 0x2E6A736F6E000000000000000000000000000000000000000000000000000000 PUSH0 DUP3 ADD MSTORE POP JUMP JUMPDEST PUSH0 PUSH2 0x3F86 PUSH1 0x5 DUP4 PUSH2 0x3F18 JUMP JUMPDEST SWAP2 POP PUSH2 0x3F91 DUP3 PUSH2 0x3F52 JUMP JUMPDEST PUSH1 0x5 DUP3 ADD SWAP1 POP SWAP2 SWAP1 POP JUMP JUMPDEST PUSH0 PUSH2 0x3FA7 DUP3 DUP6 PUSH2 0x3F22 JUMP JUMPDEST SWAP2 POP PUSH2 0x3FB3 DUP3 DUP5 PUSH2 0x3F22 JUMP JUMPDEST SWAP2 POP PUSH2 0x3FBE DUP3 PUSH2 0x3F7A JUMP JUMPDEST SWAP2 POP DUP2 SWAP1 POP SWAP4 SWAP3 POP POP POP JUMP JUMPDEST PUSH32 0x416C6C6F77204C697374206D696E7420697320636C6F73656400000000000000 PUSH0 DUP3 ADD MSTORE POP JUMP JUMPDEST PUSH0 PUSH2 0x3FFE PUSH1 0x19 DUP4 PUSH2 0x35A1 JUMP JUMPDEST SWAP2 POP PUSH2 0x4009 DUP3 PUSH2 0x3FCA JUMP JUMPDEST PUSH1 0x20 DUP3 ADD SWAP1 POP SWAP2 SWAP1 POP JUMP JUMPDEST PUSH0 PUSH1 0x20 DUP3 ADD SWAP1 POP DUP2 DUP2 SUB PUSH0 DUP4 ADD MSTORE PUSH2 0x402B DUP2 PUSH2 0x3FF2 JUMP JUMPDEST SWAP1 POP SWAP2 SWAP1 POP JUMP JUMPDEST PUSH32 0x536F7272792120596F7520617265206E6F7420696E20616C6C6F774C69737400 PUSH0 DUP3 ADD MSTORE POP JUMP JUMPDEST PUSH0 PUSH2 0x4066 PUSH1 0x1F DUP4 PUSH2 0x35A1 JUMP JUMPDEST SWAP2 POP PUSH2 0x4071 DUP3 PUSH2 0x4032 JUMP JUMPDEST PUSH1 0x20 DUP3 ADD SWAP1 POP SWAP2 SWAP1 POP JUMP JUMPDEST PUSH0 PUSH1 0x20 DUP3 ADD SWAP1 POP DUP2 DUP2 SUB PUSH0 DUP4 ADD MSTORE PUSH2 0x4093 DUP2 PUSH2 0x405A JUMP JUMPDEST SWAP1 POP SWAP2 SWAP1 POP JUMP JUMPDEST PUSH32 0x4E487B7100000000000000000000000000000000000000000000000000000000 PUSH0 MSTORE PUSH1 0x11 PUSH1 0x4 MSTORE PUSH1 0x24 PUSH0 REVERT JUMPDEST PUSH0 PUSH2 0x40D1 DUP3 PUSH2 0x323B JUMP JUMPDEST SWAP2 POP PUSH2 0x40DC DUP4 PUSH2 0x323B JUMP JUMPDEST SWAP3 POP DUP3 DUP3 MUL PUSH2 0x40EA DUP2 PUSH2 0x323B JUMP JUMPDEST SWAP2 POP DUP3 DUP3 DIV DUP5 EQ DUP4 ISZERO OR PUSH2 0x4101 JUMPI PUSH2 0x4100 PUSH2 0x409A JUMP JUMPDEST JUMPDEST POP SWAP3 SWAP2 POP POP JUMP JUMPDEST PUSH32 0x57726F6E6721204E6F7420456E6F7567682066756E6473000000000000000000 PUSH0 DUP3 ADD MSTORE POP JUMP JUMPDEST PUSH0 PUSH2 0x413C PUSH1 0x17 DUP4 PUSH2 0x35A1 JUMP JUMPDEST SWAP2 POP PUSH2 0x4147 DUP3 PUSH2 0x4108 JUMP JUMPDEST PUSH1 0x20 DUP3 ADD SWAP1 POP SWAP2 SWAP1 POP JUMP JUMPDEST PUSH0 PUSH1 0x20 DUP3 ADD SWAP1 POP DUP2 DUP2 SUB PUSH0 DUP4 ADD MSTORE PUSH2 0x4169 DUP2 PUSH2 0x4130 JUMP JUMPDEST SWAP1 POP SWAP2 SWAP1 POP JUMP JUMPDEST PUSH32 0x5061796D656E7453706C69747465723A206163636F756E7420686173206E6F20 PUSH0 DUP3 ADD MSTORE PUSH32 0x7368617265730000000000000000000000000000000000000000000000000000 PUSH1 0x20 DUP3 ADD MSTORE POP JUMP JUMPDEST PUSH0 PUSH2 0x41CA PUSH1 0x26 DUP4 PUSH2 0x35A1 JUMP JUMPDEST SWAP2 POP PUSH2 0x41D5 DUP3 PUSH2 0x4170 JUMP JUMPDEST PUSH1 0x40 DUP3 ADD SWAP1 POP SWAP2 SWAP1 POP JUMP JUMPDEST PUSH0 PUSH1 0x20 DUP3 ADD SWAP1 POP DUP2 DUP2 SUB PUSH0 DUP4 ADD MSTORE PUSH2 0x41F7 DUP2 PUSH2 0x41BE JUMP JUMPDEST SWAP1 POP SWAP2 SWAP1 POP JUMP JUMPDEST PUSH32 0x5061796D656E7453706C69747465723A206163636F756E74206973206E6F7420 PUSH0 DUP3 ADD MSTORE PUSH32 0x647565207061796D656E74000000000000000000000000000000000000000000 PUSH1 0x20 DUP3 ADD MSTORE POP JUMP JUMPDEST PUSH0 PUSH2 0x4258 PUSH1 0x2B DUP4 PUSH2 0x35A1 JUMP JUMPDEST SWAP2 POP PUSH2 0x4263 DUP3 PUSH2 0x41FE JUMP JUMPDEST PUSH1 0x40 DUP3 ADD SWAP1 POP SWAP2 SWAP1 POP JUMP JUMPDEST PUSH0 PUSH1 0x20 DUP3 ADD SWAP1 POP DUP2 DUP2 SUB PUSH0 DUP4 ADD MSTORE PUSH2 0x4285 DUP2 PUSH2 0x424C JUMP JUMPDEST SWAP1 POP SWAP2 SWAP1 POP JUMP JUMPDEST PUSH0 PUSH2 0x4296 DUP3 PUSH2 0x323B JUMP JUMPDEST SWAP2 POP PUSH2 0x42A1 DUP4 PUSH2 0x323B JUMP JUMPDEST SWAP3 POP DUP3 DUP3 ADD SWAP1 POP DUP1 DUP3 GT ISZERO PUSH2 0x42B9 JUMPI PUSH2 0x42B8 PUSH2 0x409A JUMP JUMPDEST JUMPDEST SWAP3 SWAP2 POP POP JUMP JUMPDEST PUSH0 DUP2 SWAP1 POP SWAP2 SWAP1 POP JUMP JUMPDEST PUSH0 PUSH2 0x42E2 PUSH2 0x42DD PUSH2 0x42D8 DUP5 PUSH2 0x31FC JUMP JUMPDEST PUSH2 0x42BF JUMP JUMPDEST PUSH2 0x31FC JUMP JUMPDEST SWAP1 POP SWAP2 SWAP1 POP JUMP JUMPDEST PUSH0 PUSH2 0x42F3 DUP3 PUSH2 0x42C8 JUMP JUMPDEST SWAP1 POP SWAP2 SWAP1 POP JUMP JUMPDEST PUSH0 PUSH2 0x4304 DUP3 PUSH2 0x42E9 JUMP JUMPDEST SWAP1 POP SWAP2 SWAP1 POP JUMP JUMPDEST PUSH2 0x4314 DUP2 PUSH2 0x42FA JUMP JUMPDEST DUP3 MSTORE POP POP JUMP JUMPDEST PUSH0 PUSH1 0x40 DUP3 ADD SWAP1 POP PUSH2 0x432D PUSH0 DUP4 ADD DUP6 PUSH2 0x430B JUMP JUMPDEST PUSH2 0x433A PUSH1 0x20 DUP4 ADD DUP5 PUSH2 0x3244 JUMP JUMPDEST SWAP4 SWAP3 POP POP POP JUMP JUMPDEST PUSH0 PUSH1 0x40 DUP3 ADD SWAP1 POP PUSH2 0x4354 PUSH0 DUP4 ADD DUP6 PUSH2 0x322C JUMP JUMPDEST PUSH2 0x4361 PUSH1 0x20 DUP4 ADD DUP5 PUSH2 0x322C JUMP JUMPDEST SWAP4 SWAP3 POP POP POP JUMP JUMPDEST PUSH0 PUSH1 0x40 DUP3 ADD SWAP1 POP PUSH2 0x437B PUSH0 DUP4 ADD DUP6 PUSH2 0x3244 JUMP JUMPDEST PUSH2 0x4388 PUSH1 0x20 DUP4 ADD DUP5 PUSH2 0x3244 JUMP JUMPDEST SWAP4 SWAP3 POP POP POP JUMP JUMPDEST PUSH32 0x4E487B7100000000000000000000000000000000000000000000000000000000 PUSH0 MSTORE PUSH1 0x32 PUSH1 0x4 MSTORE PUSH1 0x24 PUSH0 REVERT JUMPDEST PUSH32 0x5075626C6963204D696E7420436C6F7365640000000000000000000000000000 PUSH0 DUP3 ADD MSTORE POP JUMP JUMPDEST PUSH0 PUSH2 0x43F0 PUSH1 0x12 DUP4 PUSH2 0x35A1 JUMP JUMPDEST SWAP2 POP PUSH2 0x43FB DUP3 PUSH2 0x43BC JUMP JUMPDEST PUSH1 0x20 DUP3 ADD SWAP1 POP SWAP2 SWAP1 POP JUMP JUMPDEST PUSH0 PUSH1 0x20 DUP3 ADD SWAP1 POP DUP2 DUP2 SUB PUSH0 DUP4 ADD MSTORE PUSH2 0x441D DUP2 PUSH2 0x43E4 JUMP JUMPDEST SWAP1 POP SWAP2 SWAP1 POP JUMP JUMPDEST PUSH32 0x57726F6E6721204E6F7420456E6F756768204D6F6E65792053656E7400000000 PUSH0 DUP3 ADD MSTORE POP JUMP JUMPDEST PUSH0 PUSH2 0x4458 PUSH1 0x1C DUP4 PUSH2 0x35A1 JUMP JUMPDEST SWAP2 POP PUSH2 0x4463 DUP3 PUSH2 0x4424 JUMP JUMPDEST PUSH1 0x20 DUP3 ADD SWAP1 POP SWAP2 SWAP1 POP JUMP JUMPDEST PUSH0 PUSH1 0x20 DUP3 ADD SWAP1 POP DUP2 DUP2 SUB PUSH0 DUP4 ADD MSTORE PUSH2 0x4485 DUP2 PUSH2 0x444C JUMP JUMPDEST SWAP1 POP SWAP2 SWAP1 POP JUMP JUMPDEST PUSH0 DUP2 MLOAD SWAP1 POP PUSH2 0x449A DUP2 PUSH2 0x32B5 JUMP JUMPDEST SWAP3 SWAP2 POP POP JUMP JUMPDEST PUSH0 PUSH1 0x20 DUP3 DUP5 SUB SLT ISZERO PUSH2 0x44B5 JUMPI PUSH2 0x44B4 PUSH2 0x3283 JUMP JUMPDEST JUMPDEST PUSH0 PUSH2 0x44C2 DUP5 DUP3 DUP6 ADD PUSH2 0x448C JUMP JUMPDEST SWAP2 POP POP SWAP3 SWAP2 POP POP JUMP JUMPDEST PUSH32 0x4E487B7100000000000000000000000000000000000000000000000000000000 PUSH0 MSTORE PUSH1 0x22 PUSH1 0x4 MSTORE PUSH1 0x24 PUSH0 REVERT JUMPDEST PUSH0 PUSH1 0x2 DUP3 DIV SWAP1 POP PUSH1 0x1 DUP3 AND DUP1 PUSH2 0x450F JUMPI PUSH1 0x7F DUP3 AND SWAP2 POP JUMPDEST PUSH1 0x20 DUP3 LT DUP2 SUB PUSH2 0x4522 JUMPI PUSH2 0x4521 PUSH2 0x44CB JUMP JUMPDEST JUMPDEST POP SWAP2 SWAP1 POP JUMP JUMPDEST PUSH0 DUP2 SWAP1 POP DUP2 PUSH0 MSTORE PUSH1 0x20 PUSH0 KECCAK256 SWAP1 POP SWAP2 SWAP1 POP JUMP JUMPDEST PUSH0 PUSH1 0x20 PUSH1 0x1F DUP4 ADD DIV SWAP1 POP SWAP2 SWAP1 POP JUMP JUMPDEST PUSH0 DUP3 DUP3 SHL SWAP1 POP SWAP3 SWAP2 POP POP JUMP JUMPDEST PUSH0 PUSH1 0x8 DUP4 MUL PUSH2 0x4584 PUSH32 0xFFFFFFFFFFFFFFFFFFFFFFFFFFFFFFFFFFFFFFFFFFFFFFFFFFFFFFFFFFFFFFFF DUP3 PUSH2 0x4549 JUMP JUMPDEST PUSH2 0x458E DUP7 DUP4 PUSH2 0x4549 JUMP JUMPDEST SWAP6 POP DUP1 NOT DUP5 AND SWAP4 POP DUP1 DUP7 AND DUP5 OR SWAP3 POP POP POP SWAP4 SWAP3 POP POP POP JUMP JUMPDEST PUSH0 PUSH2 0x45C0 PUSH2 0x45BB PUSH2 0x45B6 DUP5 PUSH2 0x323B JUMP JUMPDEST PUSH2 0x42BF JUMP JUMPDEST PUSH2 0x323B JUMP JUMPDEST SWAP1 POP SWAP2 SWAP1 POP JUMP JUMPDEST PUSH0 DUP2 SWAP1 POP SWAP2 SWAP1 POP JUMP JUMPDEST PUSH2 0x45D9 DUP4 PUSH2 0x45A6 JUMP JUMPDEST PUSH2 0x45ED PUSH2 0x45E5 DUP3 PUSH2 0x45C7 JUMP JUMPDEST DUP5 DUP5 SLOAD PUSH2 0x4555 JUMP JUMPDEST DUP3 SSTORE POP POP POP POP JUMP JUMPDEST PUSH0 SWAP1 JUMP JUMPDEST PUSH2 0x4601 PUSH2 0x45F5 JUMP JUMPDEST PUSH2 0x460C DUP2 DUP5 DUP5 PUSH2 0x45D0 JUMP JUMPDEST POP POP POP JUMP JUMPDEST JUMPDEST DUP2 DUP2 LT ISZERO PUSH2 0x462F JUMPI PUSH2 0x4624 PUSH0 DUP3 PUSH2 0x45F9 JUMP JUMPDEST PUSH1 0x1 DUP2 ADD SWAP1 POP PUSH2 0x4612 JUMP JUMPDEST POP POP JUMP JUMPDEST PUSH1 0x1F DUP3 GT ISZERO PUSH2 0x4674 JUMPI PUSH2 0x4645 DUP2 PUSH2 0x4528 JUMP JUMPDEST PUSH2 0x464E DUP5 PUSH2 0x453A JUMP JUMPDEST DUP2 ADD PUSH1 0x20 DUP6 LT ISZERO PUSH2 0x465D JUMPI DUP2 SWAP1 POP JUMPDEST PUSH2 0x4671 PUSH2 0x4669 DUP6 PUSH2 0x453A JUMP JUMPDEST DUP4 ADD DUP3 PUSH2 0x4611 JUMP JUMPDEST POP POP JUMPDEST POP POP POP JUMP JUMPDEST PUSH0 DUP3 DUP3 SHR SWAP1 POP SWAP3 SWAP2 POP POP JUMP JUMPDEST PUSH0 PUSH2 0x4694 PUSH0 NOT DUP5 PUSH1 0x8 MUL PUSH2 0x4679 JUMP JUMPDEST NOT DUP1 DUP4 AND SWAP2 POP POP SWAP3 SWAP2 POP POP JUMP JUMPDEST PUSH0 PUSH2 0x46AC DUP4 DUP4 PUSH2 0x4685 JUMP JUMPDEST SWAP2 POP DUP3 PUSH1 0x2 MUL DUP3 OR SWAP1 POP SWAP3 SWAP2 POP POP JUMP JUMPDEST PUSH2 0x46C5 DUP3 PUSH2 0x3597 JUMP JUMPDEST PUSH8 0xFFFFFFFFFFFFFFFF DUP2 GT ISZERO PUSH2 0x46DE JUMPI PUSH2 0x46DD PUSH2 0x3401 JUMP JUMPDEST JUMPDEST PUSH2 0x46E8 DUP3 SLOAD PUSH2 0x44F8 JUMP JUMPDEST PUSH2 0x46F3 DUP3 DUP3 DUP6 PUSH2 0x4633 JUMP JUMPDEST PUSH0 PUSH1 0x20 SWAP1 POP PUSH1 0x1F DUP4 GT PUSH1 0x1 DUP2 EQ PUSH2 0x4724 JUMPI PUSH0 DUP5 ISZERO PUSH2 0x4712 JUMPI DUP3 DUP8 ADD MLOAD SWAP1 POP JUMPDEST PUSH2 0x471C DUP6 DUP3 PUSH2 0x46A1 JUMP JUMPDEST DUP7 SSTORE POP PUSH2 0x4783 JUMP JUMPDEST PUSH1 0x1F NOT DUP5 AND PUSH2 0x4732 DUP7 PUSH2 0x4528 JUMP JUMPDEST PUSH0 JUMPDEST DUP3 DUP2 LT ISZERO PUSH2 0x4759 JUMPI DUP5 DUP10 ADD MLOAD DUP3 SSTORE PUSH1 0x1 DUP3 ADD SWAP2 POP PUSH1 0x20 DUP6 ADD SWAP5 POP PUSH1 0x20 DUP2 ADD SWAP1 POP PUSH2 0x4734 JUMP JUMPDEST DUP7 DUP4 LT ISZERO PUSH2 0x4776 JUMPI DUP5 DUP10 ADD MLOAD PUSH2 0x4772 PUSH1 0x1F DUP10 AND DUP3 PUSH2 0x4685 JUMP JUMPDEST DUP4 SSTORE POP JUMPDEST PUSH1 0x1 PUSH1 0x2 DUP9 MUL ADD DUP9 SSTORE POP POP POP JUMPDEST POP POP POP POP POP POP JUMP JUMPDEST PUSH32 0x4E487B7100000000000000000000000000000000000000000000000000000000 PUSH0 MSTORE PUSH1 0x12 PUSH1 0x4 MSTORE PUSH1 0x24 PUSH0 REVERT JUMPDEST PUSH32 0x57616C6C6574204C696D69742052656163686564000000000000000000000000 PUSH0 DUP3 ADD MSTORE POP JUMP JUMPDEST PUSH0 PUSH2 0x47EC PUSH1 0x14 DUP4 PUSH2 0x35A1 JUMP JUMPDEST SWAP2 POP PUSH2 0x47F7 DUP3 PUSH2 0x47B8 JUMP JUMPDEST PUSH1 0x20 DUP3 ADD SWAP1 POP SWAP2 SWAP1 POP JUMP JUMPDEST PUSH0 PUSH1 0x20 DUP3 ADD SWAP1 POP DUP2 DUP2 SUB PUSH0 DUP4 ADD MSTORE PUSH2 0x4819 DUP2 PUSH2 0x47E0 JUMP JUMPDEST SWAP1 POP SWAP2 SWAP1 POP JUMP JUMPDEST PUSH32 0x536F7272792C20796F7520617265206D696E74696E67207468652077726F6E67 PUSH0 DUP3 ADD MSTORE PUSH32 0x204E465400000000000000000000000000000000000000000000000000000000 PUSH1 0x20 DUP3 ADD MSTORE POP JUMP JUMPDEST PUSH0 PUSH2 0x487A PUSH1 0x24 DUP4 PUSH2 0x35A1 JUMP JUMPDEST SWAP2 POP PUSH2 0x4885 DUP3 PUSH2 0x4820 JUMP JUMPDEST PUSH1 0x40 DUP3 ADD SWAP1 POP SWAP2 SWAP1 POP JUMP JUMPDEST PUSH0 PUSH1 0x20 DUP3 ADD SWAP1 POP DUP2 DUP2 SUB PUSH0 DUP4 ADD MSTORE PUSH2 0x48A7 DUP2 PUSH2 0x486E JUMP JUMPDEST SWAP1 POP SWAP2 SWAP1 POP JUMP JUMPDEST PUSH32 0x536F7272792C20576520617265206D696E746564206F75742100000000000000 PUSH0 DUP3 ADD MSTORE POP JUMP JUMPDEST PUSH0 PUSH2 0x48E2 PUSH1 0x19 DUP4 PUSH2 0x35A1 JUMP JUMPDEST SWAP2 POP PUSH2 0x48ED DUP3 PUSH2 0x48AE JUMP JUMPDEST PUSH1 0x20 DUP3 ADD SWAP1 POP SWAP2 SWAP1 POP JUMP JUMPDEST PUSH0 PUSH1 0x20 DUP3 ADD SWAP1 POP DUP2 DUP2 SUB PUSH0 DUP4 ADD MSTORE PUSH2 0x490F DUP2 PUSH2 0x48D6 JUMP JUMPDEST SWAP1 POP SWAP2 SWAP1 POP JUMP JUMPDEST PUSH0 DUP2 SWAP1 POP SWAP3 SWAP2 POP POP JUMP JUMPDEST POP JUMP JUMPDEST PUSH0 PUSH2 0x492E PUSH0 DUP4 PUSH2 0x4916 JUMP JUMPDEST SWAP2 POP PUSH2 0x4939 DUP3 PUSH2 0x4920 JUMP JUMPDEST PUSH0 DUP3 ADD SWAP1 POP SWAP2 SWAP1 POP JUMP JUMPDEST PUSH0 PUSH2 0x494D DUP3 PUSH2 0x4923 JUMP JUMPDEST SWAP2 POP DUP2 SWAP1 POP SWAP2 SWAP1 POP JUMP JUMPDEST PUSH0 PUSH2 0x4961 DUP3 PUSH2 0x323B JUMP JUMPDEST SWAP2 POP PUSH2 0x496C DUP4 PUSH2 0x323B JUMP JUMPDEST SWAP3 POP DUP3 PUSH2 0x497C JUMPI PUSH2 0x497B PUSH2 0x478B JUMP JUMPDEST JUMPDEST DUP3 DUP3 DIV SWAP1 POP SWAP3 SWAP2 POP POP JUMP JUMPDEST PUSH0 PUSH2 0x4991 DUP3 PUSH2 0x323B JUMP JUMPDEST SWAP2 POP PUSH2 0x499C DUP4 PUSH2 0x323B JUMP JUMPDEST SWAP3 POP DUP3 DUP3 SUB SWAP1 POP DUP2 DUP2 GT ISZERO PUSH2 0x49B4 JUMPI PUSH2 0x49B3 PUSH2 0x409A JUMP JUMPDEST JUMPDEST SWAP3 SWAP2 POP POP JUMP JUMPDEST PUSH0 DUP2 MLOAD SWAP1 POP SWAP2 SWAP1 POP JUMP JUMPDEST PUSH0 DUP3 DUP3 MSTORE PUSH1 0x20 DUP3 ADD SWAP1 POP SWAP3 SWAP2 POP POP JUMP JUMPDEST PUSH0 PUSH2 0x49DE DUP3 PUSH2 0x49BA JUMP JUMPDEST PUSH2 0x49E8 DUP2 DUP6 PUSH2 0x49C4 JUMP JUMPDEST SWAP4 POP PUSH2 0x49F8 DUP2 DUP6 PUSH1 0x20 DUP7 ADD PUSH2 0x35B1 JUMP JUMPDEST PUSH2 0x4A01 DUP2 PUSH2 0x33F1 JUMP JUMPDEST DUP5 ADD SWAP2 POP POP SWAP3 SWAP2 POP POP JUMP JUMPDEST PUSH0 PUSH1 0xA0 DUP3 ADD SWAP1 POP PUSH2 0x4A1F PUSH0 DUP4 ADD DUP9 PUSH2 0x322C JUMP JUMPDEST PUSH2 0x4A2C PUSH1 0x20 DUP4 ADD DUP8 PUSH2 0x322C JUMP JUMPDEST PUSH2 0x4A39 PUSH1 0x40 DUP4 ADD DUP7 PUSH2 0x3244 JUMP JUMPDEST PUSH2 0x4A46 PUSH1 0x60 DUP4 ADD DUP6 PUSH2 0x3244 JUMP JUMPDEST DUP2 DUP2 SUB PUSH1 0x80 DUP4 ADD MSTORE PUSH2 0x4A58 DUP2 DUP5 PUSH2 0x49D4 JUMP JUMPDEST SWAP1 POP SWAP7 SWAP6 POP POP POP POP POP POP JUMP JUMPDEST PUSH0 DUP2 MLOAD SWAP1 POP PUSH2 0x4A72 DUP2 PUSH2 0x3361 JUMP JUMPDEST SWAP3 SWAP2 POP POP JUMP JUMPDEST PUSH0 PUSH1 0x20 DUP3 DUP5 SUB SLT ISZERO PUSH2 0x4A8D JUMPI PUSH2 0x4A8C PUSH2 0x3283 JUMP JUMPDEST JUMPDEST PUSH0 PUSH2 0x4A9A DUP5 DUP3 DUP6 ADD PUSH2 0x4A64 JUMP JUMPDEST SWAP2 POP POP SWAP3 SWAP2 POP POP JUMP JUMPDEST PUSH0 PUSH1 0xA0 DUP3 ADD SWAP1 POP PUSH2 0x4AB6 PUSH0 DUP4 ADD DUP9 PUSH2 0x322C JUMP JUMPDEST PUSH2 0x4AC3 PUSH1 0x20 DUP4 ADD DUP8 PUSH2 0x322C JUMP JUMPDEST DUP2 DUP2 SUB PUSH1 0x40 DUP4 ADD MSTORE PUSH2 0x4AD5 DUP2 DUP7 PUSH2 0x3C3D JUMP JUMPDEST SWAP1 POP DUP2 DUP2 SUB PUSH1 0x60 DUP4 ADD MSTORE PUSH2 0x4AE9 DUP2 DUP6 PUSH2 0x3C3D JUMP JUMPDEST SWAP1 POP DUP2 DUP2 SUB PUSH1 0x80 DUP4 ADD MSTORE PUSH2 0x4AFD DUP2 DUP5 PUSH2 0x49D4 JUMP JUMPDEST SWAP1 POP SWAP7 SWAP6 POP POP POP POP POP POP JUMP JUMPDEST PUSH0 PUSH1 0x80 DUP3 ADD SWAP1 POP PUSH2 0x4B1C PUSH0 DUP4 ADD DUP8 PUSH2 0x322C JUMP JUMPDEST PUSH2 0x4B29 PUSH1 0x20 DUP4 ADD DUP7 PUSH2 0x3244 JUMP JUMPDEST PUSH2 0x4B36 PUSH1 0x40 DUP4 ADD DUP6 PUSH2 0x3244 JUMP JUMPDEST PUSH2 0x4B43 PUSH1 0x60 DUP4 ADD DUP5 PUSH2 0x3244 JUMP JUMPDEST SWAP6 SWAP5 POP POP POP POP POP JUMP JUMPDEST PUSH0 PUSH1 0x40 DUP3 ADD SWAP1 POP DUP2 DUP2 SUB PUSH0 DUP4 ADD MSTORE PUSH2 0x4B64 DUP2 DUP6 PUSH2 0x3C3D JUMP JUMPDEST SWAP1 POP DUP2 DUP2 SUB PUSH1 0x20 DUP4 ADD MSTORE PUSH2 0x4B78 DUP2 DUP5 PUSH2 0x3C3D JUMP JUMPDEST SWAP1 POP SWAP4 SWAP3 POP POP POP JUMP INVALID LOG2 PUSH5 0x6970667358 0x22 SLT KECCAK256 OR 0xAC PUSH9 0x3897CE506ADC491A3B DELEGATECALL RETURNDATACOPY 0x21 EXTCODEHASH SWAP5 0xD7 0xA8 LOG4 0xD6 0xE4 DUP9 BASEFEE PUSH31 0x84C150208223CE64736F6C634300081A0033697066733A2F2F626166796265 PUSH10 0x6435766378616A7A6A68 PUSH4 0x6135336D PUSH7 0x356B6635333475 PUSH10 0x726671617063636F6A65 PUSH25 0x696F706E6473796F7334726C33767A75752F00000000000000 "
		},
		"gasEstimates": {
			"creation": {
				"codeDepositCost": "3876600",
				"executionCost": "infinite",
				"totalCost": "infinite"
			},
			"external": {
				"allowList(address)": "2967",
				"allowListMint(uint256,uint256)": "infinite",
				"allowListMintOpen()": "2630",
				"allowListPrice()": "2558",
				"balanceOf(address,uint256)": "infinite",
				"balanceOfBatch(address[],uint256[])": "infinite",
				"editMintWindows(bool,bool)": "infinite",
				"exists(uint256)": "2934",
				"isApprovedForAll(address,address)": "infinite",
				"maxPerWallet()": "2470",
				"maxSupply()": "2469",
				"mintBatch(address,uint256[],uint256[],bytes)": "infinite",
				"owner()": "2649",
				"pause()": "infinite",
				"paused()": "2679",
				"payee(uint256)": "5066",
				"publicMint(uint256,uint256)": "infinite",
				"publicMintOpen()": "2533",
				"publicPrice()": "2470",
				"purchasesPerWallet(address)": "2847",
				"releasable(address)": "infinite",
				"releasable(address,address)": "infinite",
				"release(address)": "infinite",
				"release(address,address)": "infinite",
				"released(address)": "2896",
				"released(address,address)": "infinite",
				"renounceOwnership()": "infinite",
				"safeBatchTransferFrom(address,address,uint256[],uint256[],bytes)": "infinite",
				"safeTransferFrom(address,address,uint256,uint256,bytes)": "infinite",
				"setAllowList(address[])": "infinite",
				"setApprovalForAll(address,bool)": "infinite",
				"setURI(string)": "infinite",
				"shares(address)": "2962",
				"supportsInterface(bytes4)": "832",
				"totalReleased()": "2520",
				"totalReleased(address)": "2937",
				"totalShares()": "2522",
				"totalSupply()": "2500",
				"totalSupply(uint256)": "infinite",
				"transferOwnership(address)": "infinite",
				"unpause()": "infinite",
				"uri(uint256)": "infinite",
				"withdraw(address)": "infinite"
			},
			"internal": {
				"_update(address,address,uint256[] memory,uint256[] memory)": "infinite",
				"mint(uint256,uint256)": "infinite"
			}
		},
		"methodIdentifiers": {
			"allowList(address)": "2848aeaf",
			"allowListMint(uint256,uint256)": "128ac91b",
			"allowListMintOpen()": "085c9bac",
			"allowListPrice()": "a24e5153",
			"balanceOf(address,uint256)": "00fdd58e",
			"balanceOfBatch(address[],uint256[])": "4e1273f4",
			"editMintWindows(bool,bool)": "2f48de79",
			"exists(uint256)": "4f558e79",
			"isApprovedForAll(address,address)": "e985e9c5",
			"maxPerWallet()": "453c2310",
			"maxSupply()": "d5abeb01",
			"mintBatch(address,uint256[],uint256[],bytes)": "1f7fdffa",
			"owner()": "8da5cb5b",
			"pause()": "8456cb59",
			"paused()": "5c975abb",
			"payee(uint256)": "8b83209b",
			"publicMint(uint256,uint256)": "98ae99a8",
			"publicMintOpen()": "bcc9ca5b",
			"publicPrice()": "a945bf80",
			"purchasesPerWallet(address)": "97959f6d",
			"releasable(address)": "a3f8eace",
			"releasable(address,address)": "c45ac050",
			"release(address)": "19165587",
			"release(address,address)": "48b75044",
			"released(address)": "9852595c",
			"released(address,address)": "406072a9",
			"renounceOwnership()": "715018a6",
			"safeBatchTransferFrom(address,address,uint256[],uint256[],bytes)": "2eb2c2d6",
			"safeTransferFrom(address,address,uint256,uint256,bytes)": "f242432a",
			"setAllowList(address[])": "6447c35d",
			"setApprovalForAll(address,bool)": "a22cb465",
			"setURI(string)": "02fe5305",
			"shares(address)": "ce7c2ac2",
			"supportsInterface(bytes4)": "01ffc9a7",
			"totalReleased()": "e33b7de3",
			"totalReleased(address)": "d79779b2",
			"totalShares()": "3a98ef39",
			"totalSupply()": "18160ddd",
			"totalSupply(uint256)": "bd85b039",
			"transferOwnership(address)": "f2fde38b",
			"unpause()": "3f4ba83a",
			"uri(uint256)": "0e89341c",
			"withdraw(address)": "51cff8d9"
		}
	},
	"abi": [
		{
			"inputs": [
				{
					"internalType": "address",
					"name": "initialOwner",
					"type": "address"
				},
				{
					"internalType": "address[]",
					"name": "_payees",
					"type": "address[]"
				},
				{
					"internalType": "uint256[]",
					"name": "_shares",
					"type": "uint256[]"
				}
			],
			"stateMutability": "nonpayable",
			"type": "constructor"
		},
		{
			"inputs": [
				{
					"internalType": "address",
					"name": "sender",
					"type": "address"
				},
				{
					"internalType": "uint256",
					"name": "balance",
					"type": "uint256"
				},
				{
					"internalType": "uint256",
					"name": "needed",
					"type": "uint256"
				},
				{
					"internalType": "uint256",
					"name": "tokenId",
					"type": "uint256"
				}
			],
			"name": "ERC1155InsufficientBalance",
			"type": "error"
		},
		{
			"inputs": [
				{
					"internalType": "address",
					"name": "approver",
					"type": "address"
				}
			],
			"name": "ERC1155InvalidApprover",
			"type": "error"
		},
		{
			"inputs": [
				{
					"internalType": "uint256",
					"name": "idsLength",
					"type": "uint256"
				},
				{
					"internalType": "uint256",
					"name": "valuesLength",
					"type": "uint256"
				}
			],
			"name": "ERC1155InvalidArrayLength",
			"type": "error"
		},
		{
			"inputs": [
				{
					"internalType": "address",
					"name": "operator",
					"type": "address"
				}
			],
			"name": "ERC1155InvalidOperator",
			"type": "error"
		},
		{
			"inputs": [
				{
					"internalType": "address",
					"name": "receiver",
					"type": "address"
				}
			],
			"name": "ERC1155InvalidReceiver",
			"type": "error"
		},
		{
			"inputs": [
				{
					"internalType": "address",
					"name": "sender",
					"type": "address"
				}
			],
			"name": "ERC1155InvalidSender",
			"type": "error"
		},
		{
			"inputs": [
				{
					"internalType": "address",
					"name": "operator",
					"type": "address"
				},
				{
					"internalType": "address",
					"name": "owner",
					"type": "address"
				}
			],
			"name": "ERC1155MissingApprovalForAll",
			"type": "error"
		},
		{
			"inputs": [],
			"name": "EnforcedPause",
			"type": "error"
		},
		{
			"inputs": [],
			"name": "ExpectedPause",
			"type": "error"
		},
		{
			"inputs": [],
			"name": "FailedCall",
			"type": "error"
		},
		{
			"inputs": [
				{
					"internalType": "uint256",
					"name": "balance",
					"type": "uint256"
				},
				{
					"internalType": "uint256",
					"name": "needed",
					"type": "uint256"
				}
			],
			"name": "InsufficientBalance",
			"type": "error"
		},
		{
			"inputs": [
				{
					"internalType": "address",
					"name": "owner",
					"type": "address"
				}
			],
			"name": "OwnableInvalidOwner",
			"type": "error"
		},
		{
			"inputs": [
				{
					"internalType": "address",
					"name": "account",
					"type": "address"
				}
			],
			"name": "OwnableUnauthorizedAccount",
			"type": "error"
		},
		{
			"inputs": [
				{
					"internalType": "address",
					"name": "token",
					"type": "address"
				}
			],
			"name": "SafeERC20FailedOperation",
			"type": "error"
		},
		{
			"anonymous": false,
			"inputs": [
				{
					"indexed": true,
					"internalType": "address",
					"name": "account",
					"type": "address"
				},
				{
					"indexed": true,
					"internalType": "address",
					"name": "operator",
					"type": "address"
				},
				{
					"indexed": false,
					"internalType": "bool",
					"name": "approved",
					"type": "bool"
				}
			],
			"name": "ApprovalForAll",
			"type": "event"
		},
		{
			"anonymous": false,
			"inputs": [
				{
					"indexed": true,
					"internalType": "contract IERC20",
					"name": "token",
					"type": "address"
				},
				{
					"indexed": false,
					"internalType": "address",
					"name": "to",
					"type": "address"
				},
				{
					"indexed": false,
					"internalType": "uint256",
					"name": "amount",
					"type": "uint256"
				}
			],
			"name": "ERC20PaymentReleased",
			"type": "event"
		},
		{
			"anonymous": false,
			"inputs": [
				{
					"indexed": true,
					"internalType": "address",
					"name": "previousOwner",
					"type": "address"
				},
				{
					"indexed": true,
					"internalType": "address",
					"name": "newOwner",
					"type": "address"
				}
			],
			"name": "OwnershipTransferred",
			"type": "event"
		},
		{
			"anonymous": false,
			"inputs": [
				{
					"indexed": false,
					"internalType": "address",
					"name": "account",
					"type": "address"
				}
			],
			"name": "Paused",
			"type": "event"
		},
		{
			"anonymous": false,
			"inputs": [
				{
					"indexed": false,
					"internalType": "address",
					"name": "account",
					"type": "address"
				},
				{
					"indexed": false,
					"internalType": "uint256",
					"name": "shares",
					"type": "uint256"
				}
			],
			"name": "PayeeAdded",
			"type": "event"
		},
		{
			"anonymous": false,
			"inputs": [
				{
					"indexed": false,
					"internalType": "address",
					"name": "from",
					"type": "address"
				},
				{
					"indexed": false,
					"internalType": "uint256",
					"name": "amount",
					"type": "uint256"
				}
			],
			"name": "PaymentReceived",
			"type": "event"
		},
		{
			"anonymous": false,
			"inputs": [
				{
					"indexed": false,
					"internalType": "address",
					"name": "to",
					"type": "address"
				},
				{
					"indexed": false,
					"internalType": "uint256",
					"name": "amount",
					"type": "uint256"
				}
			],
			"name": "PaymentReleased",
			"type": "event"
		},
		{
			"anonymous": false,
			"inputs": [
				{
					"indexed": true,
					"internalType": "address",
					"name": "operator",
					"type": "address"
				},
				{
					"indexed": true,
					"internalType": "address",
					"name": "from",
					"type": "address"
				},
				{
					"indexed": true,
					"internalType": "address",
					"name": "to",
					"type": "address"
				},
				{
					"indexed": false,
					"internalType": "uint256[]",
					"name": "ids",
					"type": "uint256[]"
				},
				{
					"indexed": false,
					"internalType": "uint256[]",
					"name": "values",
					"type": "uint256[]"
				}
			],
			"name": "TransferBatch",
			"type": "event"
		},
		{
			"anonymous": false,
			"inputs": [
				{
					"indexed": true,
					"internalType": "address",
					"name": "operator",
					"type": "address"
				},
				{
					"indexed": true,
					"internalType": "address",
					"name": "from",
					"type": "address"
				},
				{
					"indexed": true,
					"internalType": "address",
					"name": "to",
					"type": "address"
				},
				{
					"indexed": false,
					"internalType": "uint256",
					"name": "id",
					"type": "uint256"
				},
				{
					"indexed": false,
					"internalType": "uint256",
					"name": "value",
					"type": "uint256"
				}
			],
			"name": "TransferSingle",
			"type": "event"
		},
		{
			"anonymous": false,
			"inputs": [
				{
					"indexed": false,
					"internalType": "string",
					"name": "value",
					"type": "string"
				},
				{
					"indexed": true,
					"internalType": "uint256",
					"name": "id",
					"type": "uint256"
				}
			],
			"name": "URI",
			"type": "event"
		},
		{
			"anonymous": false,
			"inputs": [
				{
					"indexed": false,
					"internalType": "address",
					"name": "account",
					"type": "address"
				}
			],
			"name": "Unpaused",
			"type": "event"
		},
		{
			"inputs": [
				{
					"internalType": "address",
					"name": "",
					"type": "address"
				}
			],
			"name": "allowList",
			"outputs": [
				{
					"internalType": "bool",
					"name": "",
					"type": "bool"
				}
			],
			"stateMutability": "view",
			"type": "function"
		},
		{
			"inputs": [
				{
					"internalType": "uint256",
					"name": "id",
					"type": "uint256"
				},
				{
					"internalType": "uint256",
					"name": "amount",
					"type": "uint256"
				}
			],
			"name": "allowListMint",
			"outputs": [],
			"stateMutability": "payable",
			"type": "function"
		},
		{
			"inputs": [],
			"name": "allowListMintOpen",
			"outputs": [
				{
					"internalType": "bool",
					"name": "",
					"type": "bool"
				}
			],
			"stateMutability": "view",
			"type": "function"
		},
		{
			"inputs": [],
			"name": "allowListPrice",
			"outputs": [
				{
					"internalType": "uint256",
					"name": "",
					"type": "uint256"
				}
			],
			"stateMutability": "view",
			"type": "function"
		},
		{
			"inputs": [
				{
					"internalType": "address",
					"name": "account",
					"type": "address"
				},
				{
					"internalType": "uint256",
					"name": "id",
					"type": "uint256"
				}
			],
			"name": "balanceOf",
			"outputs": [
				{
					"internalType": "uint256",
					"name": "",
					"type": "uint256"
				}
			],
			"stateMutability": "view",
			"type": "function"
		},
		{
			"inputs": [
				{
					"internalType": "address[]",
					"name": "accounts",
					"type": "address[]"
				},
				{
					"internalType": "uint256[]",
					"name": "ids",
					"type": "uint256[]"
				}
			],
			"name": "balanceOfBatch",
			"outputs": [
				{
					"internalType": "uint256[]",
					"name": "",
					"type": "uint256[]"
				}
			],
			"stateMutability": "view",
			"type": "function"
		},
		{
			"inputs": [
				{
					"internalType": "bool",
					"name": "_publicMintOpen",
					"type": "bool"
				},
				{
					"internalType": "bool",
					"name": "_allowListMintOpen",
					"type": "bool"
				}
			],
			"name": "editMintWindows",
			"outputs": [],
			"stateMutability": "nonpayable",
			"type": "function"
		},
		{
			"inputs": [
				{
					"internalType": "uint256",
					"name": "id",
					"type": "uint256"
				}
			],
			"name": "exists",
			"outputs": [
				{
					"internalType": "bool",
					"name": "",
					"type": "bool"
				}
			],
			"stateMutability": "view",
			"type": "function"
		},
		{
			"inputs": [
				{
					"internalType": "address",
					"name": "account",
					"type": "address"
				},
				{
					"internalType": "address",
					"name": "operator",
					"type": "address"
				}
			],
			"name": "isApprovedForAll",
			"outputs": [
				{
					"internalType": "bool",
					"name": "",
					"type": "bool"
				}
			],
			"stateMutability": "view",
			"type": "function"
		},
		{
			"inputs": [],
			"name": "maxPerWallet",
			"outputs": [
				{
					"internalType": "uint256",
					"name": "",
					"type": "uint256"
				}
			],
			"stateMutability": "view",
			"type": "function"
		},
		{
			"inputs": [],
			"name": "maxSupply",
			"outputs": [
				{
					"internalType": "uint256",
					"name": "",
					"type": "uint256"
				}
			],
			"stateMutability": "view",
			"type": "function"
		},
		{
			"inputs": [
				{
					"internalType": "address",
					"name": "to",
					"type": "address"
				},
				{
					"internalType": "uint256[]",
					"name": "ids",
					"type": "uint256[]"
				},
				{
					"internalType": "uint256[]",
					"name": "amounts",
					"type": "uint256[]"
				},
				{
					"internalType": "bytes",
					"name": "data",
					"type": "bytes"
				}
			],
			"name": "mintBatch",
			"outputs": [],
			"stateMutability": "nonpayable",
			"type": "function"
		},
		{
			"inputs": [],
			"name": "owner",
			"outputs": [
				{
					"internalType": "address",
					"name": "",
					"type": "address"
				}
			],
			"stateMutability": "view",
			"type": "function"
		},
		{
			"inputs": [],
			"name": "pause",
			"outputs": [],
			"stateMutability": "nonpayable",
			"type": "function"
		},
		{
			"inputs": [],
			"name": "paused",
			"outputs": [
				{
					"internalType": "bool",
					"name": "",
					"type": "bool"
				}
			],
			"stateMutability": "view",
			"type": "function"
		},
		{
			"inputs": [
				{
					"internalType": "uint256",
					"name": "index",
					"type": "uint256"
				}
			],
			"name": "payee",
			"outputs": [
				{
					"internalType": "address",
					"name": "",
					"type": "address"
				}
			],
			"stateMutability": "view",
			"type": "function"
		},
		{
			"inputs": [
				{
					"internalType": "uint256",
					"name": "id",
					"type": "uint256"
				},
				{
					"internalType": "uint256",
					"name": "amount",
					"type": "uint256"
				}
			],
			"name": "publicMint",
			"outputs": [],
			"stateMutability": "payable",
			"type": "function"
		},
		{
			"inputs": [],
			"name": "publicMintOpen",
			"outputs": [
				{
					"internalType": "bool",
					"name": "",
					"type": "bool"
				}
			],
			"stateMutability": "view",
			"type": "function"
		},
		{
			"inputs": [],
			"name": "publicPrice",
			"outputs": [
				{
					"internalType": "uint256",
					"name": "",
					"type": "uint256"
				}
			],
			"stateMutability": "view",
			"type": "function"
		},
		{
			"inputs": [
				{
					"internalType": "address",
					"name": "",
					"type": "address"
				}
			],
			"name": "purchasesPerWallet",
			"outputs": [
				{
					"internalType": "uint256",
					"name": "",
					"type": "uint256"
				}
			],
			"stateMutability": "view",
			"type": "function"
		},
		{
			"inputs": [
				{
					"internalType": "address",
					"name": "account",
					"type": "address"
				}
			],
			"name": "releasable",
			"outputs": [
				{
					"internalType": "uint256",
					"name": "",
					"type": "uint256"
				}
			],
			"stateMutability": "view",
			"type": "function"
		},
		{
			"inputs": [
				{
					"internalType": "contract IERC20",
					"name": "token",
					"type": "address"
				},
				{
					"internalType": "address",
					"name": "account",
					"type": "address"
				}
			],
			"name": "releasable",
			"outputs": [
				{
					"internalType": "uint256",
					"name": "",
					"type": "uint256"
				}
			],
			"stateMutability": "view",
			"type": "function"
		},
		{
			"inputs": [
				{
					"internalType": "address payable",
					"name": "account",
					"type": "address"
				}
			],
			"name": "release",
			"outputs": [],
			"stateMutability": "nonpayable",
			"type": "function"
		},
		{
			"inputs": [
				{
					"internalType": "contract IERC20",
					"name": "token",
					"type": "address"
				},
				{
					"internalType": "address",
					"name": "account",
					"type": "address"
				}
			],
			"name": "release",
			"outputs": [],
			"stateMutability": "nonpayable",
			"type": "function"
		},
		{
			"inputs": [
				{
					"internalType": "contract IERC20",
					"name": "token",
					"type": "address"
				},
				{
					"internalType": "address",
					"name": "account",
					"type": "address"
				}
			],
			"name": "released",
			"outputs": [
				{
					"internalType": "uint256",
					"name": "",
					"type": "uint256"
				}
			],
			"stateMutability": "view",
			"type": "function"
		},
		{
			"inputs": [
				{
					"internalType": "address",
					"name": "account",
					"type": "address"
				}
			],
			"name": "released",
			"outputs": [
				{
					"internalType": "uint256",
					"name": "",
					"type": "uint256"
				}
			],
			"stateMutability": "view",
			"type": "function"
		},
		{
			"inputs": [],
			"name": "renounceOwnership",
			"outputs": [],
			"stateMutability": "nonpayable",
			"type": "function"
		},
		{
			"inputs": [
				{
					"internalType": "address",
					"name": "from",
					"type": "address"
				},
				{
					"internalType": "address",
					"name": "to",
					"type": "address"
				},
				{
					"internalType": "uint256[]",
					"name": "ids",
					"type": "uint256[]"
				},
				{
					"internalType": "uint256[]",
					"name": "values",
					"type": "uint256[]"
				},
				{
					"internalType": "bytes",
					"name": "data",
					"type": "bytes"
				}
			],
			"name": "safeBatchTransferFrom",
			"outputs": [],
			"stateMutability": "nonpayable",
			"type": "function"
		},
		{
			"inputs": [
				{
					"internalType": "address",
					"name": "from",
					"type": "address"
				},
				{
					"internalType": "address",
					"name": "to",
					"type": "address"
				},
				{
					"internalType": "uint256",
					"name": "id",
					"type": "uint256"
				},
				{
					"internalType": "uint256",
					"name": "value",
					"type": "uint256"
				},
				{
					"internalType": "bytes",
					"name": "data",
					"type": "bytes"
				}
			],
			"name": "safeTransferFrom",
			"outputs": [],
			"stateMutability": "nonpayable",
			"type": "function"
		},
		{
			"inputs": [
				{
					"internalType": "address[]",
					"name": "addresses",
					"type": "address[]"
				}
			],
			"name": "setAllowList",
			"outputs": [],
			"stateMutability": "nonpayable",
			"type": "function"
		},
		{
			"inputs": [
				{
					"internalType": "address",
					"name": "operator",
					"type": "address"
				},
				{
					"internalType": "bool",
					"name": "approved",
					"type": "bool"
				}
			],
			"name": "setApprovalForAll",
			"outputs": [],
			"stateMutability": "nonpayable",
			"type": "function"
		},
		{
			"inputs": [
				{
					"internalType": "string",
					"name": "newuri",
					"type": "string"
				}
			],
			"name": "setURI",
			"outputs": [],
			"stateMutability": "nonpayable",
			"type": "function"
		},
		{
			"inputs": [
				{
					"internalType": "address",
					"name": "account",
					"type": "address"
				}
			],
			"name": "shares",
			"outputs": [
				{
					"internalType": "uint256",
					"name": "",
					"type": "uint256"
				}
			],
			"stateMutability": "view",
			"type": "function"
		},
		{
			"inputs": [
				{
					"internalType": "bytes4",
					"name": "interfaceId",
					"type": "bytes4"
				}
			],
			"name": "supportsInterface",
			"outputs": [
				{
					"internalType": "bool",
					"name": "",
					"type": "bool"
				}
			],
			"stateMutability": "view",
			"type": "function"
		},
		{
			"inputs": [
				{
					"internalType": "contract IERC20",
					"name": "token",
					"type": "address"
				}
			],
			"name": "totalReleased",
			"outputs": [
				{
					"internalType": "uint256",
					"name": "",
					"type": "uint256"
				}
			],
			"stateMutability": "view",
			"type": "function"
		},
		{
			"inputs": [],
			"name": "totalReleased",
			"outputs": [
				{
					"internalType": "uint256",
					"name": "",
					"type": "uint256"
				}
			],
			"stateMutability": "view",
			"type": "function"
		},
		{
			"inputs": [],
			"name": "totalShares",
			"outputs": [
				{
					"internalType": "uint256",
					"name": "",
					"type": "uint256"
				}
			],
			"stateMutability": "view",
			"type": "function"
		},
		{
			"inputs": [],
			"name": "totalSupply",
			"outputs": [
				{
					"internalType": "uint256",
					"name": "",
					"type": "uint256"
				}
			],
			"stateMutability": "view",
			"type": "function"
		},
		{
			"inputs": [
				{
					"internalType": "uint256",
					"name": "id",
					"type": "uint256"
				}
			],
			"name": "totalSupply",
			"outputs": [
				{
					"internalType": "uint256",
					"name": "",
					"type": "uint256"
				}
			],
			"stateMutability": "view",
			"type": "function"
		},
		{
			"inputs": [
				{
					"internalType": "address",
					"name": "newOwner",
					"type": "address"
				}
			],
			"name": "transferOwnership",
			"outputs": [],
			"stateMutability": "nonpayable",
			"type": "function"
		},
		{
			"inputs": [],
			"name": "unpause",
			"outputs": [],
			"stateMutability": "nonpayable",
			"type": "function"
		},
		{
			"inputs": [
				{
					"internalType": "uint256",
					"name": "_id",
					"type": "uint256"
				}
			],
			"name": "uri",
			"outputs": [
				{
					"internalType": "string",
					"name": "",
					"type": "string"
				}
			],
			"stateMutability": "view",
			"type": "function"
		},
		{
			"inputs": [
				{
					"internalType": "address",
					"name": "_addr",
					"type": "address"
				}
			],
			"name": "withdraw",
			"outputs": [],
			"stateMutability": "nonpayable",
			"type": "function"
		},
		{
			"stateMutability": "payable",
			"type": "receive"
		}
	]
}